{
  "contractName": "NFTFactory",
  "abi": [
    {
      "inputs": [
        {
          "internalType": "contract SeascapeNFT",
          "name": "_nft",
          "type": "address"
        }
      ],
      "stateMutability": "nonpayable",
      "type": "constructor"
    },
    {
      "anonymous": false,
      "inputs": [
        {
          "indexed": true,
          "internalType": "bytes32",
          "name": "role",
          "type": "bytes32"
        },
        {
          "indexed": true,
          "internalType": "bytes32",
          "name": "previousAdminRole",
          "type": "bytes32"
        },
        {
          "indexed": true,
          "internalType": "bytes32",
          "name": "newAdminRole",
          "type": "bytes32"
        }
      ],
      "name": "RoleAdminChanged",
      "type": "event"
    },
    {
      "anonymous": false,
      "inputs": [
        {
          "indexed": true,
          "internalType": "bytes32",
          "name": "role",
          "type": "bytes32"
        },
        {
          "indexed": true,
          "internalType": "address",
          "name": "account",
          "type": "address"
        },
        {
          "indexed": true,
          "internalType": "address",
          "name": "sender",
          "type": "address"
        }
      ],
      "name": "RoleGranted",
      "type": "event"
    },
    {
      "anonymous": false,
      "inputs": [
        {
          "indexed": true,
          "internalType": "bytes32",
          "name": "role",
          "type": "bytes32"
        },
        {
          "indexed": true,
          "internalType": "address",
          "name": "account",
          "type": "address"
        },
        {
          "indexed": true,
          "internalType": "address",
          "name": "sender",
          "type": "address"
        }
      ],
      "name": "RoleRevoked",
      "type": "event"
    },
    {
      "inputs": [],
      "name": "DEFAULT_ADMIN_ROLE",
      "outputs": [
        {
          "internalType": "bytes32",
          "name": "",
          "type": "bytes32"
        }
      ],
      "stateMutability": "view",
      "type": "function",
      "constant": true
    },
    {
      "inputs": [],
      "name": "GENERATOR_ROLE",
      "outputs": [
        {
          "internalType": "bytes32",
          "name": "",
          "type": "bytes32"
        }
      ],
      "stateMutability": "view",
      "type": "function",
      "constant": true
    },
    {
      "inputs": [],
      "name": "STATIC_ROLE",
      "outputs": [
        {
          "internalType": "bytes32",
          "name": "",
          "type": "bytes32"
        }
      ],
      "stateMutability": "view",
      "type": "function",
      "constant": true
    },
    {
      "inputs": [
        {
          "internalType": "bytes32",
          "name": "role",
          "type": "bytes32"
        }
      ],
      "name": "getRoleAdmin",
      "outputs": [
        {
          "internalType": "bytes32",
          "name": "",
          "type": "bytes32"
        }
      ],
      "stateMutability": "view",
      "type": "function",
      "constant": true
    },
    {
      "inputs": [
        {
          "internalType": "bytes32",
          "name": "role",
          "type": "bytes32"
        },
        {
          "internalType": "uint256",
          "name": "index",
          "type": "uint256"
        }
      ],
      "name": "getRoleMember",
      "outputs": [
        {
          "internalType": "address",
          "name": "",
          "type": "address"
        }
      ],
      "stateMutability": "view",
      "type": "function",
      "constant": true
    },
    {
      "inputs": [
        {
          "internalType": "bytes32",
          "name": "role",
          "type": "bytes32"
        }
      ],
      "name": "getRoleMemberCount",
      "outputs": [
        {
          "internalType": "uint256",
          "name": "",
          "type": "uint256"
        }
      ],
      "stateMutability": "view",
      "type": "function",
      "constant": true
    },
    {
      "inputs": [
        {
          "internalType": "bytes32",
          "name": "role",
          "type": "bytes32"
        },
        {
          "internalType": "address",
          "name": "account",
          "type": "address"
        }
      ],
      "name": "grantRole",
      "outputs": [],
      "stateMutability": "nonpayable",
      "type": "function"
    },
    {
      "inputs": [
        {
          "internalType": "bytes32",
          "name": "role",
          "type": "bytes32"
        },
        {
          "internalType": "address",
          "name": "account",
          "type": "address"
        }
      ],
      "name": "hasRole",
      "outputs": [
        {
          "internalType": "bool",
          "name": "",
          "type": "bool"
        }
      ],
      "stateMutability": "view",
      "type": "function",
      "constant": true
    },
    {
      "inputs": [
        {
          "internalType": "bytes32",
          "name": "role",
          "type": "bytes32"
        },
        {
          "internalType": "address",
          "name": "account",
          "type": "address"
        }
      ],
      "name": "renounceRole",
      "outputs": [],
      "stateMutability": "nonpayable",
      "type": "function"
    },
    {
      "inputs": [
        {
          "internalType": "bytes32",
          "name": "role",
          "type": "bytes32"
        },
        {
          "internalType": "address",
          "name": "account",
          "type": "address"
        }
      ],
      "name": "revokeRole",
      "outputs": [],
      "stateMutability": "nonpayable",
      "type": "function"
    },
    {
      "inputs": [
        {
          "internalType": "address",
          "name": "_owner",
          "type": "address"
        },
        {
          "internalType": "uint256",
          "name": "_generation",
          "type": "uint256"
        }
      ],
      "name": "mint",
      "outputs": [
        {
          "internalType": "bool",
          "name": "",
          "type": "bool"
        }
      ],
      "stateMutability": "nonpayable",
      "type": "function"
    },
    {
      "inputs": [
        {
          "internalType": "contract SeascapeNFT",
          "name": "_nft",
          "type": "address"
        }
      ],
      "name": "setNFT",
      "outputs": [],
      "stateMutability": "nonpayable",
      "type": "function"
    },
    {
      "inputs": [
        {
          "internalType": "address",
          "name": "account",
          "type": "address"
        }
      ],
      "name": "addAdmin",
      "outputs": [],
      "stateMutability": "nonpayable",
      "type": "function"
    },
    {
      "inputs": [],
      "name": "renounceAdmin",
      "outputs": [],
      "stateMutability": "nonpayable",
      "type": "function"
    },
    {
      "inputs": [
        {
          "internalType": "address",
          "name": "account",
          "type": "address"
        }
      ],
      "name": "isAdmin",
      "outputs": [
        {
          "internalType": "bool",
          "name": "",
          "type": "bool"
        }
      ],
      "stateMutability": "view",
      "type": "function",
      "constant": true
    },
    {
      "inputs": [
        {
          "internalType": "address",
          "name": "account",
          "type": "address"
        }
      ],
      "name": "isStaticUser",
      "outputs": [
        {
          "internalType": "bool",
          "name": "",
          "type": "bool"
        }
      ],
      "stateMutability": "view",
      "type": "function",
      "constant": true
    },
    {
      "inputs": [
        {
          "internalType": "address",
          "name": "account",
          "type": "address"
        }
      ],
      "name": "addStaticUser",
      "outputs": [],
      "stateMutability": "nonpayable",
      "type": "function"
    },
    {
      "inputs": [
        {
          "internalType": "address",
          "name": "account",
          "type": "address"
        }
      ],
      "name": "removeStaticUser",
      "outputs": [],
      "stateMutability": "nonpayable",
      "type": "function"
    },
    {
      "inputs": [
        {
          "internalType": "address",
          "name": "account",
          "type": "address"
        }
      ],
      "name": "isGenerator",
      "outputs": [
        {
          "internalType": "bool",
          "name": "",
          "type": "bool"
        }
      ],
      "stateMutability": "view",
      "type": "function",
      "constant": true
    },
    {
      "inputs": [
        {
          "internalType": "address",
          "name": "account",
          "type": "address"
        }
      ],
      "name": "addGenerator",
      "outputs": [],
      "stateMutability": "nonpayable",
      "type": "function"
    },
    {
      "inputs": [
        {
          "internalType": "address",
          "name": "account",
          "type": "address"
        }
      ],
      "name": "removeGenerator",
      "outputs": [],
      "stateMutability": "nonpayable",
      "type": "function"
    }
  ],
  "bytecode": "0x60806040523480156200001157600080fd5b506040516200176138038062001761833981810160405260208110156200003757600080fd5b810190808051906020019092919050505080600160006101000a81548173ffffffffffffffffffffffffffffffffffffffff021916908373ffffffffffffffffffffffffffffffffffffffff1602179055506200009e6000801b33620000a560201b60201c565b506200023b565b620000b78282620000bb60201b60201c565b5050565b620000e9816000808581526020019081526020016000206000016200015e60201b620011c11790919060201c565b156200015a57620000ff6200019660201b60201c565b73ffffffffffffffffffffffffffffffffffffffff168173ffffffffffffffffffffffffffffffffffffffff16837f2f8788117e7eff1d82e926ec794901d17c78024a50270940304540a733656f0d60405160405180910390a45b5050565b60006200018e836000018373ffffffffffffffffffffffffffffffffffffffff1660001b6200019e60201b60201c565b905092915050565b600033905090565b6000620001b283836200021860201b60201c565b6200020d57826000018290806001815401808255809150506001900390600052602060002001600090919091909150558260000180549050836001016000848152602001908152602001600020819055506001905062000212565b600090505b92915050565b600080836001016000848152602001908152602001600020541415905092915050565b611516806200024b6000396000f3fe608060405234801561001057600080fd5b50600436106101375760003560e01c80639010d07c116100b8578063bc8b7e1d1161007c578063bc8b7e1d14610546578063ca15c873146105a2578063ce8ac926146105e4578063cffafe2614610628578063d547741f1461066c578063f56e9c66146106ba57610137565b80639010d07c146103e857806391d148541461046057806399327235146104c65780639eb8378b146104e4578063a217fddf1461052857610137565b806340c10f19116100ff57806340c10f19146102ba5780635eafde55146103205780636601b7671461033e578063704802751461039a5780638bad0c0a146103de57610137565b8063107b8e0d1461013c578063248a9ca31461018057806324d7806c146101c25780632f2ff15d1461021e57806336568abe1461026c575b600080fd5b61017e6004803603602081101561015257600080fd5b81019080803573ffffffffffffffffffffffffffffffffffffffff1690602001909291905050506106fe565b005b6101ac6004803603602081101561019657600080fd5b81019080803590602001909291905050506107bb565b6040518082815260200191505060405180910390f35b610204600480360360208110156101d857600080fd5b81019080803573ffffffffffffffffffffffffffffffffffffffff1690602001909291905050506107da565b604051808215151515815260200191505060405180910390f35b61026a6004803603604081101561023457600080fd5b8101908080359060200190929190803573ffffffffffffffffffffffffffffffffffffffff1690602001909291905050506107f0565b005b6102b86004803603604081101561028257600080fd5b8101908080359060200190929190803573ffffffffffffffffffffffffffffffffffffffff169060200190929190505050610879565b005b610306600480360360408110156102d057600080fd5b81019080803573ffffffffffffffffffffffffffffffffffffffff16906020019092919080359060200190929190505050610912565b604051808215151515815260200191505060405180910390f35b610328610a8a565b6040518082815260200191505060405180910390f35b6103806004803603602081101561035457600080fd5b81019080803573ffffffffffffffffffffffffffffffffffffffff169060200190929190505050610ac3565b604051808215151515815260200191505060405180910390f35b6103dc600480360360208110156103b057600080fd5b81019080803573ffffffffffffffffffffffffffffffffffffffff169060200190929190505050610b0b565b005b6103e6610b96565b005b61041e600480360360408110156103fe57600080fd5b810190808035906020019092919080359060200190929190505050610ba5565b604051808273ffffffffffffffffffffffffffffffffffffffff1673ffffffffffffffffffffffffffffffffffffffff16815260200191505060405180910390f35b6104ac6004803603604081101561047657600080fd5b8101908080359060200190929190803573ffffffffffffffffffffffffffffffffffffffff169060200190929190505050610bd6565b604051808215151515815260200191505060405180910390f35b6104ce610c07565b6040518082815260200191505060405180910390f35b610526600480360360208110156104fa57600080fd5b81019080803573ffffffffffffffffffffffffffffffffffffffff169060200190929190505050610c40565b005b610530610cfd565b6040518082815260200191505060405180910390f35b6105886004803603602081101561055c57600080fd5b81019080803573ffffffffffffffffffffffffffffffffffffffff169060200190929190505050610d04565b604051808215151515815260200191505060405180910390f35b6105ce600480360360208110156105b857600080fd5b8101908080359060200190929190505050610d4c565b6040518082815260200191505060405180910390f35b610626600480360360208110156105fa57600080fd5b81019080803573ffffffffffffffffffffffffffffffffffffffff169060200190929190505050610d72565b005b61066a6004803603602081101561063e57600080fd5b81019080803573ffffffffffffffffffffffffffffffffffffffff169060200190929190505050610e2f565b005b6106b86004803603604081101561068257600080fd5b8101908080359060200190929190803573ffffffffffffffffffffffffffffffffffffffff169060200190929190505050610eec565b005b6106fc600480360360208110156106d057600080fd5b81019080803573ffffffffffffffffffffffffffffffffffffffff169060200190929190505050610f75565b005b610707336107da565b610779576040517f08c379a00000000000000000000000000000000000000000000000000000000081526004018080602001828103825260158152602001807f5265737472696374656420746f2061646d696e732e000000000000000000000081525060200191505060405180910390fd5b6107b860405180807f535441544943000000000000000000000000000000000000000000000000000081525060060190506040518091039020826107f0565b50565b6000806000838152602001908152602001600020600201549050919050565b60006107e96000801b83610bd6565b9050919050565b61081660008084815260200190815260200160002060020154610811611034565b610bd6565b61086b576040517f08c379a000000000000000000000000000000000000000000000000000000000815260040180806020018281038252602f815260200180611453602f913960400191505060405180910390fd5b610875828261103c565b5050565b610881611034565b73ffffffffffffffffffffffffffffffffffffffff168173ffffffffffffffffffffffffffffffffffffffff1614610904576040517f08c379a000000000000000000000000000000000000000000000000000000000815260040180806020018281038252602f8152602001806114b2602f913960400191505060405180910390fd5b61090e82826110cf565b5050565b600061091d33610ac3565b61098f576040517f08c379a00000000000000000000000000000000000000000000000000000000081526004018080602001828103825260168152602001807f5265737472696374656420746f206d696e746572732e0000000000000000000081525060200191505060405180910390fd5b600160009054906101000a900473ffffffffffffffffffffffffffffffffffffffff1673ffffffffffffffffffffffffffffffffffffffff16636112e8ac848460016040518463ffffffff1660e01b8152600401808473ffffffffffffffffffffffffffffffffffffffff1673ffffffffffffffffffffffffffffffffffffffff1681526020018381526020018260ff1660ff1681526020019350505050602060405180830381600087803b158015610a4757600080fd5b505af1158015610a5b573d6000803e3d6000fd5b505050506040513d6020811015610a7157600080fd5b8101908080519060200190929190505050905092915050565b60405180807f53544154494300000000000000000000000000000000000000000000000000008152506006019050604051809103902081565b6000610b0460405180807f53544154494300000000000000000000000000000000000000000000000000008152506006019050604051809103902083610bd6565b9050919050565b610b14336107da565b610b86576040517f08c379a00000000000000000000000000000000000000000000000000000000081526004018080602001828103825260158152602001807f5265737472696374656420746f2061646d696e732e000000000000000000000081525060200191505060405180910390fd5b610b936000801b826107f0565b50565b610ba36000801b33610879565b565b6000610bce8260008086815260200190815260200160002060000161116290919063ffffffff16565b905092915050565b6000610bff8260008086815260200190815260200160002060000161117c90919063ffffffff16565b905092915050565b60405180807f47454e455241544f5200000000000000000000000000000000000000000000008152506009019050604051809103902081565b610c49336107da565b610cbb576040517f08c379a00000000000000000000000000000000000000000000000000000000081526004018080602001828103825260158152602001807f5265737472696374656420746f2061646d696e732e000000000000000000000081525060200191505060405180910390fd5b610cfa60405180807f47454e455241544f5200000000000000000000000000000000000000000000008152506009019050604051809103902082610eec565b50565b6000801b81565b6000610d4560405180807f47454e455241544f5200000000000000000000000000000000000000000000008152506009019050604051809103902083610bd6565b9050919050565b6000610d6b6000808481526020019081526020016000206000016111ac565b9050919050565b610d7b336107da565b610ded576040517f08c379a00000000000000000000000000000000000000000000000000000000081526004018080602001828103825260158152602001807f5265737472696374656420746f2061646d696e732e000000000000000000000081525060200191505060405180910390fd5b610e2c60405180807f53544154494300000000000000000000000000000000000000000000000000008152506006019050604051809103902082610eec565b50565b610e38336107da565b610eaa576040517f08c379a00000000000000000000000000000000000000000000000000000000081526004018080602001828103825260158152602001807f5265737472696374656420746f2061646d696e732e000000000000000000000081525060200191505060405180910390fd5b610ee960405180807f47454e455241544f52000000000000000000000000000000000000000000000081525060090190506040518091039020826107f0565b50565b610f1260008084815260200190815260200160002060020154610f0d611034565b610bd6565b610f67576040517f08c379a00000000000000000000000000000000000000000000000000000000081526004018080602001828103825260308152602001806114826030913960400191505060405180910390fd5b610f7182826110cf565b5050565b610f7e336107da565b610ff0576040517f08c379a00000000000000000000000000000000000000000000000000000000081526004018080602001828103825260158152602001807f5265737472696374656420746f2061646d696e732e000000000000000000000081525060200191505060405180910390fd5b80600160006101000a81548173ffffffffffffffffffffffffffffffffffffffff021916908373ffffffffffffffffffffffffffffffffffffffff16021790555050565b600033905090565b611063816000808581526020019081526020016000206000016111c190919063ffffffff16565b156110cb57611070611034565b73ffffffffffffffffffffffffffffffffffffffff168173ffffffffffffffffffffffffffffffffffffffff16837f2f8788117e7eff1d82e926ec794901d17c78024a50270940304540a733656f0d60405160405180910390a45b5050565b6110f6816000808581526020019081526020016000206000016111f190919063ffffffff16565b1561115e57611103611034565b73ffffffffffffffffffffffffffffffffffffffff168173ffffffffffffffffffffffffffffffffffffffff16837ff6391f5c32d9c69d2a47ea670b442974b53935d1edc7fd64eb21e047a839171b60405160405180910390a45b5050565b60006111718360000183611221565b60001c905092915050565b60006111a4836000018373ffffffffffffffffffffffffffffffffffffffff1660001b6112a4565b905092915050565b60006111ba826000016112c7565b9050919050565b60006111e9836000018373ffffffffffffffffffffffffffffffffffffffff1660001b6112d8565b905092915050565b6000611219836000018373ffffffffffffffffffffffffffffffffffffffff1660001b611348565b905092915050565b600081836000018054905011611282576040517f08c379a00000000000000000000000000000000000000000000000000000000081526004018080602001828103825260228152602001806114316022913960400191505060405180910390fd5b82600001828154811061129157fe5b9060005260206000200154905092915050565b600080836001016000848152602001908152602001600020541415905092915050565b600081600001805490509050919050565b60006112e483836112a4565b61133d578260000182908060018154018082558091505060019003906000526020600020016000909190919091505582600001805490508360010160008481526020019081526020016000208190555060019050611342565b600090505b92915050565b60008083600101600084815260200190815260200160002054905060008114611424576000600182039050600060018660000180549050039050600086600001828154811061139357fe5b90600052602060002001549050808760000184815481106113b057fe5b90600052602060002001819055506001830187600101600083815260200190815260200160002081905550866000018054806113e857fe5b6001900381819060005260206000200160009055905586600101600087815260200190815260200160002060009055600194505050505061142a565b60009150505b9291505056fe456e756d657261626c655365743a20696e646578206f7574206f6620626f756e6473416363657373436f6e74726f6c3a2073656e646572206d75737420626520616e2061646d696e20746f206772616e74416363657373436f6e74726f6c3a2073656e646572206d75737420626520616e2061646d696e20746f207265766f6b65416363657373436f6e74726f6c3a2063616e206f6e6c792072656e6f756e636520726f6c657320666f722073656c66a264697066735822122081f6efc6e52e82151cdceaba22f7fb90ddecb240a657a7023625f89f30d598fe64736f6c63430006070033",
  "immutableReferences": {},
  "source": "pragma solidity 0.6.7;\r\n\r\nimport \"./openzeppelin/contracts/access/AccessControl.sol\";\r\nimport \"./openzeppelin/contracts/math/SafeMath.sol\";\r\nimport \"./SeascapeNFT.sol\";\r\n\r\ncontract NFTFactory is AccessControl {\r\n    using SafeMath for uint256;\r\n\r\n    bytes32 public constant STATIC_ROLE = keccak256(\"STATIC\");\r\n    bytes32 public constant GENERATOR_ROLE = keccak256(\"GENERATOR\");\r\n\r\n    SeascapeNFT private nft;\r\n\r\n    uint8 constant NORMAL = 1;\r\n    uint8 constant SPECIAL = 2;\r\n    uint8 constant RARE = 3;\r\n    uint8 constant EPIC = 4;\r\n    uint8 constant LEGENDARY = 5;\r\n    \r\n    constructor(SeascapeNFT _nft) public {\r\n\tnft = _nft;\r\n\t_setupRole(DEFAULT_ADMIN_ROLE, msg.sender);\r\n    }\r\n\r\n    //--------------------------------------------------\r\n    // Only Seascape Staking contract\r\n    //--------------------------------------------------\r\n    function mint(address _owner, uint256 _generation) public onlyStaticUser returns(bool) {\r\n\treturn nft.mint(_owner, _generation, NORMAL);\r\n    }\r\n    \r\n    \r\n    //--------------------------------------------------\r\n    // Only owner\r\n    //--------------------------------------------------\r\n    function setNFT(SeascapeNFT _nft) public onlyAdmin {\r\n\tnft = _nft;\r\n    }\r\n\r\n    /// @dev Add an account to the admin role. Restricted to admins.\r\n    function addAdmin(address account) public virtual onlyAdmin\r\n    {\r\n        grantRole(DEFAULT_ADMIN_ROLE, account);\r\n    }\r\n\r\n     /// @dev Remove oneself from the admin role.\r\n     function renounceAdmin() public virtual\r\n     {\r\n\t renounceRole(DEFAULT_ADMIN_ROLE, msg.sender);\r\n     }\r\n\r\n     /// @dev Return `true` if the account belongs to the admin role.\r\n     function isAdmin(address account) public virtual view returns (bool)\r\n     {\r\n\t return hasRole(DEFAULT_ADMIN_ROLE, account);\r\n     }\r\n\r\n     /// @dev Restricted to members of the admin role.\r\n     modifier onlyAdmin()\r\n     {\r\n\t require(isAdmin(msg.sender), \"Restricted to admins.\");\r\n\t _;\r\n     }\r\n\r\n\r\n     /// @dev Restricted to members of the user role.\r\n     modifier onlyStaticUser()\r\n     {\r\n\t require(isStaticUser(msg.sender), \"Restricted to minters.\");\r\n\t _;\r\n     }\r\n\r\n     /// @dev Return `true` if the account belongs to the user role.\r\n     function isStaticUser(address account) public virtual view returns (bool)\r\n     {\r\n      return hasRole(STATIC_ROLE, account);\r\n     }\r\n     \r\n     /// @dev Add an account to the user role. Restricted to admins.\r\n     function addStaticUser(address account) public virtual onlyAdmin\r\n     {\r\n\t grantRole(STATIC_ROLE, account);\r\n     }\r\n\r\n     /// @dev Remove an account from the user role. Restricted to admins.\r\n     function removeStaticUser(address account) public virtual onlyAdmin\r\n     {\r\n\t revokeRole(STATIC_ROLE, account);\r\n     }\r\n  \r\n\r\n     /// @dev Restricted to members of the user role.\r\n     modifier onlyGenerator()\r\n     {\r\n\t require(isGenerator(msg.sender), \"Restricted to random generator.\");\r\n\t _;\r\n     }\r\n\r\n     /// @dev Return `true` if the account belongs to the user role.\r\n     function isGenerator(address account) public virtual view returns (bool)\r\n     {\r\n      return hasRole(GENERATOR_ROLE, account);\r\n     }\r\n     \r\n     /// @dev Add an account to the user role. Restricted to admins.\r\n     function addGenerator(address account) public virtual onlyAdmin\r\n     {\r\n\t grantRole(GENERATOR_ROLE, account);\r\n     }\r\n\r\n     /// @dev Remove an account from the user role. Restricted to admins.\r\n     function removeGenerator(address account) public virtual onlyAdmin\r\n     {\r\n\t revokeRole(GENERATOR_ROLE, account);\r\n     }\r\n  \r\n\r\n    //--------------------------------------------------\r\n    // Public methods\r\n    //--------------------------------------------------\r\n\r\n}\r\n\r\n\r\n",
  "sourcePath": "/home/node/app/contracts/NFTFactory.sol",
  "compiler": {
    "name": "solc",
    "version": "0.6.7+commit.b8d736ae.Emscripten.clang"
  },
  "schemaVersion": "3.3.0",
  "updatedAt": "2020-11-05T17:51:34.084Z",
  "networkType": "ethereum",
  "devdoc": {
    "methods": {
      "addAdmin(address)": {
        "details": "Add an account to the admin role. Restricted to admins."
      },
      "addGenerator(address)": {
        "details": "Add an account to the user role. Restricted to admins."
      },
      "addStaticUser(address)": {
        "details": "Add an account to the user role. Restricted to admins."
      },
      "getRoleAdmin(bytes32)": {
        "details": "Returns the admin role that controls `role`. See {grantRole} and {revokeRole}.     * To change a role's admin, use {_setRoleAdmin}."
      },
      "getRoleMember(bytes32,uint256)": {
        "details": "Returns one of the accounts that have `role`. `index` must be a value between 0 and {getRoleMemberCount}, non-inclusive.     * Role bearers are not sorted in any particular way, and their ordering may change at any point.     * WARNING: When using {getRoleMember} and {getRoleMemberCount}, make sure you perform all queries on the same block. See the following https://forum.openzeppelin.com/t/iterating-over-elements-on-enumerableset-in-openzeppelin-contracts/2296[forum post] for more information."
      },
      "getRoleMemberCount(bytes32)": {
        "details": "Returns the number of accounts that have `role`. Can be used together with {getRoleMember} to enumerate all bearers of a role."
      },
      "grantRole(bytes32,address)": {
        "details": "Grants `role` to `account`.     * If `account` had not been already granted `role`, emits a {RoleGranted} event.     * Requirements:     * - the caller must have ``role``'s admin role."
      },
      "hasRole(bytes32,address)": {
        "details": "Returns `true` if `account` has been granted `role`."
      },
      "isAdmin(address)": {
        "details": "Return `true` if the account belongs to the admin role."
      },
      "isGenerator(address)": {
        "details": "Return `true` if the account belongs to the user role."
      },
      "isStaticUser(address)": {
        "details": "Return `true` if the account belongs to the user role."
      },
      "removeGenerator(address)": {
        "details": "Remove an account from the user role. Restricted to admins."
      },
      "removeStaticUser(address)": {
        "details": "Remove an account from the user role. Restricted to admins."
      },
      "renounceAdmin()": {
        "details": "Remove oneself from the admin role."
      },
      "renounceRole(bytes32,address)": {
        "details": "Revokes `role` from the calling account.     * Roles are often managed via {grantRole} and {revokeRole}: this function's purpose is to provide a mechanism for accounts to lose their privileges if they are compromised (such as when a trusted device is misplaced).     * If the calling account had been granted `role`, emits a {RoleRevoked} event.     * Requirements:     * - the caller must be `account`."
      },
      "revokeRole(bytes32,address)": {
        "details": "Revokes `role` from `account`.     * If `account` had been granted `role`, emits a {RoleRevoked} event.     * Requirements:     * - the caller must have ``role``'s admin role."
      }
    }
  },
  "userdoc": {
    "methods": {}
  }
}