{
  "contractName": "ProfitCircus",
  "abi": [
    {
      "inputs": [
        {
          "internalType": "address",
          "name": "_nftFactory",
          "type": "address"
        }
      ],
      "stateMutability": "nonpayable",
      "type": "constructor"
    },
    {
      "anonymous": false,
      "inputs": [
        {
          "indexed": true,
          "internalType": "address",
          "name": "stakingToken",
          "type": "address"
        },
        {
          "indexed": true,
          "internalType": "address",
          "name": "owner",
          "type": "address"
        },
        {
          "indexed": false,
          "internalType": "uint256",
          "name": "sessionId",
          "type": "uint256"
        },
        {
          "indexed": false,
          "internalType": "uint256",
          "name": "amount",
          "type": "uint256"
        },
        {
          "indexed": false,
          "internalType": "uint256",
          "name": "claimedTime",
          "type": "uint256"
        }
      ],
      "name": "Claimed",
      "type": "event"
    },
    {
      "anonymous": false,
      "inputs": [
        {
          "indexed": true,
          "internalType": "address",
          "name": "stakingToken",
          "type": "address"
        },
        {
          "indexed": true,
          "internalType": "address",
          "name": "owner",
          "type": "address"
        },
        {
          "indexed": false,
          "internalType": "uint256",
          "name": "sessionId",
          "type": "uint256"
        },
        {
          "indexed": false,
          "internalType": "uint256",
          "name": "amount",
          "type": "uint256"
        },
        {
          "indexed": false,
          "internalType": "uint256",
          "name": "startTime",
          "type": "uint256"
        },
        {
          "indexed": false,
          "internalType": "uint256",
          "name": "totalStaked",
          "type": "uint256"
        }
      ],
      "name": "Deposited",
      "type": "event"
    },
    {
      "anonymous": false,
      "inputs": [
        {
          "indexed": true,
          "internalType": "address",
          "name": "factoryAddress",
          "type": "address"
        }
      ],
      "name": "FactorySet",
      "type": "event"
    },
    {
      "anonymous": false,
      "inputs": [
        {
          "indexed": true,
          "internalType": "address",
          "name": "previousOwner",
          "type": "address"
        },
        {
          "indexed": true,
          "internalType": "address",
          "name": "newOwner",
          "type": "address"
        }
      ],
      "name": "OwnershipTransferred",
      "type": "event"
    },
    {
      "anonymous": false,
      "inputs": [
        {
          "indexed": true,
          "internalType": "address",
          "name": "rewardToken",
          "type": "address"
        },
        {
          "indexed": true,
          "internalType": "address",
          "name": "stakingToken",
          "type": "address"
        },
        {
          "indexed": true,
          "internalType": "uint256",
          "name": "sessionIdd",
          "type": "uint256"
        },
        {
          "indexed": false,
          "internalType": "uint256",
          "name": "reward",
          "type": "uint256"
        },
        {
          "indexed": false,
          "internalType": "uint256",
          "name": "startTime",
          "type": "uint256"
        },
        {
          "indexed": false,
          "internalType": "uint256",
          "name": "endTime",
          "type": "uint256"
        },
        {
          "indexed": false,
          "internalType": "uint256",
          "name": "generation",
          "type": "uint256"
        }
      ],
      "name": "SessionStarted",
      "type": "event"
    },
    {
      "anonymous": false,
      "inputs": [
        {
          "indexed": true,
          "internalType": "address",
          "name": "stakingToken",
          "type": "address"
        },
        {
          "indexed": true,
          "internalType": "address",
          "name": "owner",
          "type": "address"
        },
        {
          "indexed": false,
          "internalType": "uint256",
          "name": "sessionId",
          "type": "uint256"
        },
        {
          "indexed": false,
          "internalType": "uint256",
          "name": "amount",
          "type": "uint256"
        },
        {
          "indexed": false,
          "internalType": "uint256",
          "name": "startTime",
          "type": "uint256"
        },
        {
          "indexed": false,
          "internalType": "uint256",
          "name": "totalStaked",
          "type": "uint256"
        }
      ],
      "name": "Withdrawn",
      "type": "event"
    },
    {
      "inputs": [
        {
          "internalType": "uint256",
          "name": "",
          "type": "uint256"
        },
        {
          "internalType": "address",
          "name": "",
          "type": "address"
        }
      ],
      "name": "balances",
      "outputs": [
        {
          "internalType": "uint256",
          "name": "amount",
          "type": "uint256"
        },
        {
          "internalType": "uint256",
          "name": "claimed",
          "type": "uint256"
        },
        {
          "internalType": "uint256",
          "name": "claimedTime",
          "type": "uint256"
        },
        {
          "internalType": "bool",
          "name": "minted",
          "type": "bool"
        },
        {
          "internalType": "uint256",
          "name": "claimedReward",
          "type": "uint256"
        },
        {
          "internalType": "uint256",
          "name": "unpaidReward",
          "type": "uint256"
        },
        {
          "internalType": "uint256",
          "name": "stakeTime",
          "type": "uint256"
        }
      ],
      "stateMutability": "view",
      "type": "function",
      "constant": true
    },
    {
      "inputs": [
        {
          "internalType": "uint256",
          "name": "",
          "type": "uint256"
        },
        {
          "internalType": "address",
          "name": "",
          "type": "address"
        }
      ],
      "name": "depositTimes",
      "outputs": [
        {
          "internalType": "uint256",
          "name": "",
          "type": "uint256"
        }
      ],
      "stateMutability": "view",
      "type": "function",
      "constant": true
    },
    {
      "inputs": [
        {
          "internalType": "address",
          "name": "",
          "type": "address"
        }
      ],
      "name": "lastSessionIds",
      "outputs": [
        {
          "internalType": "uint256",
          "name": "",
          "type": "uint256"
        }
      ],
      "stateMutability": "view",
      "type": "function",
      "constant": true
    },
    {
      "inputs": [],
      "name": "owner",
      "outputs": [
        {
          "internalType": "address",
          "name": "",
          "type": "address"
        }
      ],
      "stateMutability": "view",
      "type": "function",
      "constant": true
    },
    {
      "inputs": [],
      "name": "renounceOwnership",
      "outputs": [],
      "stateMutability": "nonpayable",
      "type": "function"
    },
    {
      "inputs": [
        {
          "internalType": "uint256",
          "name": "",
          "type": "uint256"
        }
      ],
      "name": "sessions",
      "outputs": [
        {
          "internalType": "address",
          "name": "rewardToken",
          "type": "address"
        },
        {
          "internalType": "address",
          "name": "stakingToken",
          "type": "address"
        },
        {
          "internalType": "uint256",
          "name": "totalReward",
          "type": "uint256"
        },
        {
          "internalType": "uint256",
          "name": "period",
          "type": "uint256"
        },
        {
          "internalType": "uint256",
          "name": "startTime",
          "type": "uint256"
        },
        {
          "internalType": "uint256",
          "name": "generation",
          "type": "uint256"
        },
        {
          "internalType": "uint256",
          "name": "claimed",
          "type": "uint256"
        },
        {
          "internalType": "uint256",
          "name": "amount",
          "type": "uint256"
        },
        {
          "internalType": "uint256",
          "name": "rewardUnit",
          "type": "uint256"
        },
        {
          "internalType": "uint256",
          "name": "interestPerToken",
          "type": "uint256"
        },
        {
          "internalType": "uint256",
          "name": "claimedPerToken",
          "type": "uint256"
        },
        {
          "internalType": "uint256",
          "name": "lastInterestUpdate",
          "type": "uint256"
        },
        {
          "internalType": "uint256",
          "name": "stakeAmount",
          "type": "uint256"
        },
        {
          "internalType": "uint256",
          "name": "stakePeriod",
          "type": "uint256"
        }
      ],
      "stateMutability": "view",
      "type": "function",
      "constant": true
    },
    {
      "inputs": [
        {
          "internalType": "address",
          "name": "newOwner",
          "type": "address"
        }
      ],
      "name": "transferOwnership",
      "outputs": [],
      "stateMutability": "nonpayable",
      "type": "function"
    },
    {
      "inputs": [
        {
          "internalType": "address",
          "name": "_rewardToken",
          "type": "address"
        },
        {
          "internalType": "address",
          "name": "_lpToken",
          "type": "address"
        },
        {
          "internalType": "uint256",
          "name": "_totalReward",
          "type": "uint256"
        },
        {
          "internalType": "uint256",
          "name": "_period",
          "type": "uint256"
        },
        {
          "internalType": "uint256",
          "name": "_startTime",
          "type": "uint256"
        },
        {
          "internalType": "uint256",
          "name": "_generation",
          "type": "uint256"
        },
        {
          "internalType": "uint256",
          "name": "_stakeAmount",
          "type": "uint256"
        },
        {
          "internalType": "uint256",
          "name": "_stakePeriod",
          "type": "uint256"
        }
      ],
      "name": "startSession",
      "outputs": [],
      "stateMutability": "nonpayable",
      "type": "function"
    },
    {
      "inputs": [
        {
          "internalType": "address",
          "name": "_address",
          "type": "address"
        }
      ],
      "name": "setNftFactory",
      "outputs": [],
      "stateMutability": "nonpayable",
      "type": "function"
    },
    {
      "inputs": [
        {
          "internalType": "uint256",
          "name": "_sessionId",
          "type": "uint256"
        },
        {
          "internalType": "address",
          "name": "_address",
          "type": "address"
        }
      ],
      "name": "payDebt",
      "outputs": [],
      "stateMutability": "nonpayable",
      "type": "function"
    },
    {
      "inputs": [
        {
          "internalType": "uint256",
          "name": "_sessionId",
          "type": "uint256"
        },
        {
          "internalType": "uint256",
          "name": "_amount",
          "type": "uint256"
        }
      ],
      "name": "deposit",
      "outputs": [],
      "stateMutability": "nonpayable",
      "type": "function"
    },
    {
      "inputs": [
        {
          "internalType": "uint256",
          "name": "_sessionId",
          "type": "uint256"
        }
      ],
      "name": "claim",
      "outputs": [
        {
          "internalType": "bool",
          "name": "",
          "type": "bool"
        }
      ],
      "stateMutability": "nonpayable",
      "type": "function"
    },
    {
      "inputs": [
        {
          "internalType": "uint256",
          "name": "_sessionId",
          "type": "uint256"
        },
        {
          "internalType": "uint256",
          "name": "_amount",
          "type": "uint256"
        }
      ],
      "name": "withdraw",
      "outputs": [],
      "stateMutability": "nonpayable",
      "type": "function"
    },
    {
      "inputs": [
        {
          "internalType": "uint256",
          "name": "_sessionId",
          "type": "uint256"
        }
      ],
      "name": "claimNft",
      "outputs": [],
      "stateMutability": "nonpayable",
      "type": "function"
    },
    {
      "inputs": [
        {
          "internalType": "uint256",
          "name": "_sessionId",
          "type": "uint256"
        },
        {
          "internalType": "address",
          "name": "_owner",
          "type": "address"
        }
      ],
      "name": "stakedBalanceOf",
      "outputs": [
        {
          "internalType": "uint256",
          "name": "",
          "type": "uint256"
        }
      ],
      "stateMutability": "view",
      "type": "function",
      "constant": true
    },
    {
      "inputs": [
        {
          "internalType": "uint256",
          "name": "_sessionId",
          "type": "uint256"
        },
        {
          "internalType": "address",
          "name": "_owner",
          "type": "address"
        }
      ],
      "name": "earned",
      "outputs": [
        {
          "internalType": "uint256",
          "name": "",
          "type": "uint256"
        }
      ],
      "stateMutability": "view",
      "type": "function",
      "constant": true
    },
    {
      "inputs": [
        {
          "internalType": "uint256",
          "name": "_sessionId",
          "type": "uint256"
        },
        {
          "internalType": "address",
          "name": "_owner",
          "type": "address"
        }
      ],
      "name": "claimable",
      "outputs": [
        {
          "internalType": "uint256",
          "name": "",
          "type": "uint256"
        }
      ],
      "stateMutability": "view",
      "type": "function",
      "constant": true
    },
    {
      "inputs": [
        {
          "internalType": "uint256",
          "name": "_sessionId",
          "type": "uint256"
        }
      ],
      "name": "stakedBalance",
      "outputs": [
        {
          "internalType": "uint256",
          "name": "",
          "type": "uint256"
        }
      ],
      "stateMutability": "view",
      "type": "function",
      "constant": true
    },
    {
      "inputs": [
        {
          "internalType": "uint256",
          "name": "_sessionId",
          "type": "uint256"
        }
      ],
      "name": "isNftClaimable",
      "outputs": [
        {
          "internalType": "bool",
          "name": "",
          "type": "bool"
        }
      ],
      "stateMutability": "view",
      "type": "function",
      "constant": true
    }
  ],
  "bytecode": "0x60806040523480156200001157600080fd5b506040516200414f3803806200414f833981810160405260208110156200003757600080fd5b810190808051906020019092919050505060006200005a6200015760201b60201c565b9050806000806101000a81548173ffffffffffffffffffffffffffffffffffffffff021916908373ffffffffffffffffffffffffffffffffffffffff1602179055508073ffffffffffffffffffffffffffffffffffffffff16600073ffffffffffffffffffffffffffffffffffffffff167f8be0079c531659141344cd1fd0a4f28419497f9722a3daafe3b4186f6b6457e060405160405180910390a3506200010f60026200015f60201b620038e11760201c565b80600160006101000a81548173ffffffffffffffffffffffffffffffffffffffff021916908373ffffffffffffffffffffffffffffffffffffffff1602179055505062000175565b600033905090565b6001816000016000828254019250508190555050565b613fca80620001856000396000f3fe608060405234801561001057600080fd5b50600436106101215760003560e01c806383c4b7a3116100ad578063e2bbb15811610071578063e2bbb1581461065c578063e39c08fc14610694578063f2508dac146106f6578063f256cad51461073c578063f2fde38b1461077e57610121565b806383c4b7a31461040b5780638da5cb5b14610500578063a0c7f71c1461054a578063d389838b146105ac578063d9dc8f1d1461060e57610121565b8063441a3e70116100f4578063441a3e701461026e578063541e33e0146102a65780636edcc665146102fe578063715018a61461039f5780637bd208b2146103a957610121565b80630dac9962146101265780631f3203311461016a5780632ec09d39146101fa578063379607f514610228575b600080fd5b6101686004803603602081101561013c57600080fd5b81019080803573ffffffffffffffffffffffffffffffffffffffff1690602001909291905050506107c2565b005b6101b66004803603604081101561018057600080fd5b8101908080359060200190929190803573ffffffffffffffffffffffffffffffffffffffff169060200190929190505050610998565b604051808881526020018781526020018681526020018515151515815260200184815260200183815260200182815260200197505050505050505060405180910390f35b6102266004803603602081101561021057600080fd5b81019080803590602001909291905050506109f4565b005b6102546004803603602081101561023e57600080fd5b8101908080359060200190929190505050610d17565b604051808215151515815260200191505060405180910390f35b6102a46004803603604081101561028457600080fd5b810190808035906020019092919080359060200190929190505050610df2565b005b6102e8600480360360208110156102bc57600080fd5b81019080803573ffffffffffffffffffffffffffffffffffffffff169060200190929190505050611514565b6040518082815260200191505060405180910390f35b61039d600480360361010081101561031557600080fd5b81019080803573ffffffffffffffffffffffffffffffffffffffff169060200190929190803573ffffffffffffffffffffffffffffffffffffffff16906020019092919080359060200190929190803590602001909291908035906020019092919080359060200190929190803590602001909291908035906020019092919050505061152c565b005b6103a7611cf6565b005b6103f5600480360360408110156103bf57600080fd5b8101908080359060200190929190803573ffffffffffffffffffffffffffffffffffffffff169060200190929190505050611e7e565b6040518082815260200191505060405180910390f35b6104376004803603602081101561042157600080fd5b8101908080359060200190929190505050611edc565b604051808f73ffffffffffffffffffffffffffffffffffffffff1673ffffffffffffffffffffffffffffffffffffffff1681526020018e73ffffffffffffffffffffffffffffffffffffffff1673ffffffffffffffffffffffffffffffffffffffff1681526020018d81526020018c81526020018b81526020018a81526020018981526020018881526020018781526020018681526020018581526020018481526020018381526020018281526020019e50505050505050505050505050505060405180910390f35b610508611f88565b604051808273ffffffffffffffffffffffffffffffffffffffff1673ffffffffffffffffffffffffffffffffffffffff16815260200191505060405180910390f35b6105966004803603604081101561056057600080fd5b8101908080359060200190929190803573ffffffffffffffffffffffffffffffffffffffff169060200190929190505050611fb1565b6040518082815260200191505060405180910390f35b6105f8600480360360408110156105c257600080fd5b8101908080359060200190929190803573ffffffffffffffffffffffffffffffffffffffff169060200190929190505050611fc5565b6040518082815260200191505060405180910390f35b61065a6004803603604081101561062457600080fd5b8101908080359060200190929190803573ffffffffffffffffffffffffffffffffffffffff169060200190929190505050611fea565b005b6106926004803603604081101561067257600080fd5b810190808035906020019092919080359060200190929190505050612326565b005b6106e0600480360360408110156106aa57600080fd5b8101908080359060200190929190803573ffffffffffffffffffffffffffffffffffffffff1690602001909291905050506128c0565b6040518082815260200191505060405180910390f35b6107226004803603602081101561070c57600080fd5b810190808035906020019092919050505061293e565b604051808215151515815260200191505060405180910390f35b6107686004803603602081101561075257600080fd5b81019080803590602001909291905050506129d6565b6040518082815260200191505060405180910390f35b6107c06004803603602081101561079457600080fd5b81019080803573ffffffffffffffffffffffffffffffffffffffff1690602001909291905050506129f6565b005b6107ca612c03565b73ffffffffffffffffffffffffffffffffffffffff166000809054906101000a900473ffffffffffffffffffffffffffffffffffffffff1673ffffffffffffffffffffffffffffffffffffffff161461088b576040517f08c379a00000000000000000000000000000000000000000000000000000000081526004018080602001828103825260208152602001807f4f776e61626c653a2063616c6c6572206973206e6f7420746865206f776e657281525060200191505060405180910390fd5b600073ffffffffffffffffffffffffffffffffffffffff168173ffffffffffffffffffffffffffffffffffffffff161415610911576040517f08c379a0000000000000000000000000000000000000000000000000000000008152600401808060200182810382526035815260200180613b686035913960400191505060405180910390fd5b80600160006101000a81548173ffffffffffffffffffffffffffffffffffffffff021916908373ffffffffffffffffffffffffffffffffffffffff1602179055508073ffffffffffffffffffffffffffffffffffffffff167f1edf3afd4ac789736e00d216cd88be164ddcef26a6eedcc30cdb0cb62f3741b160405160405180910390a250565b6005602052816000526040600020602052806000526040600020600091509150508060000154908060010154908060020154908060030160009054906101000a900460ff16908060040154908060050154908060060154905087565b600060046000838152602001908152602001600020905060006005600084815260200190815260200160002060003373ffffffffffffffffffffffffffffffffffffffff1673ffffffffffffffffffffffffffffffffffffffff16815260200190815260200160002090506000610a7c82600001548360010154612c0b90919063ffffffff16565b11610aef576040517f08c379a000000000000000000000000000000000000000000000000000000000815260040180806020018281038252601c8152602001807f50726f666974204369726375733a204465706f7369742066697273740000000081525060200191505060405180910390fd5b610af98282612c93565b610b4e576040517f08c379a0000000000000000000000000000000000000000000000000000000008152600401808060200182810382526031815260200180613d656031913960400191505060405180910390fd5b6000600160009054906101000a900473ffffffffffffffffffffffffffffffffffffffff1673ffffffffffffffffffffffffffffffffffffffff166340c10f193360046000888152602001908152602001600020600501546040518363ffffffff1660e01b8152600401808373ffffffffffffffffffffffffffffffffffffffff1673ffffffffffffffffffffffffffffffffffffffff16815260200182815260200192505050602060405180830381600087803b158015610c0f57600080fd5b505af1158015610c23573d6000803e3d6000fd5b505050506040513d6020811015610c3957600080fd5b8101908080519060200190929190505050905060008111610ca5576040517f08c379a0000000000000000000000000000000000000000000000000000000008152600401808060200182810382526025815260200180613c4c6025913960400191505060405180910390fd5b60016005600086815260200190815260200160002060003373ffffffffffffffffffffffffffffffffffffffff1673ffffffffffffffffffffffffffffffffffffffff16815260200190815260200160002060030160006101000a81548160ff02191690831515021790555050505050565b6000806005600084815260200190815260200160002060003373ffffffffffffffffffffffffffffffffffffffff1673ffffffffffffffffffffffffffffffffffffffff16815260200190815260200160002090506000816000015411610dc9576040517f08c379a0000000000000000000000000000000000000000000000000000000008152600401808060200182810382526023815260200180613de96023913960400191505060405180910390fd5b610dd283612d1f565b50610ddc83612e24565b50610de783336131fb565b506001915050919050565b600060046000848152602001908152602001600020905060006005600085815260200190815260200160002060003373ffffffffffffffffffffffffffffffffffffffff1673ffffffffffffffffffffffffffffffffffffffff16815260200190815260200160002090508281600001541015610eba576040517f08c379a0000000000000000000000000000000000000000000000000000000008152600401808060200182810382526030815260200180613b386030913960400191505060405180910390fd5b610ec384612d1f565b5060008260010160009054906101000a900473ffffffffffffffffffffffffffffffffffffffff169050838173ffffffffffffffffffffffffffffffffffffffff166370a08231306040518263ffffffff1660e01b8152600401808273ffffffffffffffffffffffffffffffffffffffff1673ffffffffffffffffffffffffffffffffffffffff16815260200191505060206040518083038186803b158015610f6b57600080fd5b505afa158015610f7f573d6000803e3d6000fd5b505050506040513d6020811015610f9557600080fd5b81019080805190602001909291905050501015610ffd576040517f08c379a0000000000000000000000000000000000000000000000000000000008152600401808060200182810382526034815260200180613b046034913960400191505060405180910390fd5b600061100986336132ac565b90506000809050600073ffffffffffffffffffffffffffffffffffffffff168560000160009054906101000a900473ffffffffffffffffffffffffffffffffffffffff1673ffffffffffffffffffffffffffffffffffffffff16146111515760008560000160009054906101000a900473ffffffffffffffffffffffffffffffffffffffff1690508073ffffffffffffffffffffffffffffffffffffffff166370a08231306040518263ffffffff1660e01b8152600401808273ffffffffffffffffffffffffffffffffffffffff1673ffffffffffffffffffffffffffffffffffffffff16815260200191505060206040518083038186803b15801561110e57600080fd5b505afa158015611122573d6000803e3d6000fd5b505050506040513d602081101561113857600080fd5b8101908080519060200190929190505050915050611155565b4790505b60008211801561116457508181105b1561119b576111928460050154611184838561342f90919063ffffffff16565b612c0b90919063ffffffff16565b84600501819055505b6111b286856000015461342f90919063ffffffff16565b84600001819055506111d186866007015461342f90919063ffffffff16565b85600701819055506000821115611330576111f9828660060154612c0b90919063ffffffff16565b8560060181905550611218828560010154612c0b90919063ffffffff16565b84600101819055506000151561122d88613479565b1515141561125d5761125085600301548660040154612c0b90919063ffffffff16565b8460020181905550611267565b4284600201819055505b6112968560000160009054906101000a900473ffffffffffffffffffffffffffffffffffffffff1633846134fa565b3373ffffffffffffffffffffffffffffffffffffffff168560010160009054906101000a900473ffffffffffffffffffffffffffffffffffffffff1673ffffffffffffffffffffffffffffffffffffffff167fd795915374024be1f03204e052bd584b33bb85c9128ede9c54adbe0bbdc2209589854260405180848152602001838152602001828152602001935050505060405180910390a35b8273ffffffffffffffffffffffffffffffffffffffff1663a9059cbb33886040518363ffffffff1660e01b8152600401808373ffffffffffffffffffffffffffffffffffffffff1673ffffffffffffffffffffffffffffffffffffffff16815260200182815260200192505050602060405180830381600087803b1580156113b757600080fd5b505af11580156113cb573d6000803e3d6000fd5b505050506040513d60208110156113e157600080fd5b8101908080519060200190929190505050611447576040517f08c379a000000000000000000000000000000000000000000000000000000000815260040180806020018281038252603d815260200180613eb3603d913960400191505060405180910390fd5b61145087612d1f565b5061145b87336131fb565b506114668585613832565b3373ffffffffffffffffffffffffffffffffffffffff168560010160009054906101000a900473ffffffffffffffffffffffffffffffffffffffff1673ffffffffffffffffffffffffffffffffffffffff167ffabb9e7afa4ef595f60e1ae9041b2b311b4acb27aeaed4b11b6f2abf689af10a8989428a600701546040518085815260200184815260200183815260200182815260200194505050505060405180910390a350505050505050565b60036020528060005260406000206000915090505481565b611534612c03565b73ffffffffffffffffffffffffffffffffffffffff166000809054906101000a900473ffffffffffffffffffffffffffffffffffffffff1673ffffffffffffffffffffffffffffffffffffffff16146115f5576040517f08c379a00000000000000000000000000000000000000000000000000000000081526004018080602001828103825260208152602001807f4f776e61626c653a2063616c6c6572206973206e6f7420746865206f776e657281525060200191505060405180910390fd5b600073ffffffffffffffffffffffffffffffffffffffff168773ffffffffffffffffffffffffffffffffffffffff16141561167b576040517f08c379a0000000000000000000000000000000000000000000000000000000008152600401808060200182810382526035815260200180613e7e6035913960400191505060405180910390fd5b4284116116d3576040517f08c379a0000000000000000000000000000000000000000000000000000000008152600401808060200182810382526032815260200180613d966032913960400191505060405180910390fd5b6000851161172c576040517f08c379a0000000000000000000000000000000000000000000000000000000008152600401808060200182810382526038815260200180613c9f6038913960400191505060405180910390fd5b60008611611785576040517f08c379a000000000000000000000000000000000000000000000000000000000815260040180806020018281038252603e815260200180613e0c603e913960400191505060405180910390fd5b6000821180156117955750600081115b6117ea576040517f08c379a0000000000000000000000000000000000000000000000000000000008152600401808060200182810382526024815260200180613bc36024913960400191505060405180910390fd5b6000600360008973ffffffffffffffffffffffffffffffffffffffff1673ffffffffffffffffffffffffffffffffffffffff168152602001908152602001600020549050600081111561189d576000151561184482613479565b15151461189c576040517f08c379a0000000000000000000000000000000000000000000000000000000008152600401808060200182810382526039815260200180613f296039913960400191505060405180910390fd5b5b600073ffffffffffffffffffffffffffffffffffffffff168973ffffffffffffffffffffffffffffffffffffffff16146119ec576000899050878173ffffffffffffffffffffffffffffffffffffffff166370a08231306040518263ffffffff1660e01b8152600401808273ffffffffffffffffffffffffffffffffffffffff1673ffffffffffffffffffffffffffffffffffffffff16815260200191505060206040518083038186803b15801561195457600080fd5b505afa158015611968573d6000803e3d6000fd5b505050506040513d602081101561197e57600080fd5b810190808051906020019092919050505010156119e6576040517f08c379a0000000000000000000000000000000000000000000000000000000008152600401808060200182810382526031815260200180613d106031913960400191505060405180910390fd5b50611a46565b86471015611a45576040517f08c379a0000000000000000000000000000000000000000000000000000000008152600401808060200182810382526032815260200180613be76032913960400191505060405180910390fd5b5b6000611a526002613889565b90506000611a69888a61389790919063ffffffff16565b9050604051806101c001604052808c73ffffffffffffffffffffffffffffffffffffffff1681526020018b73ffffffffffffffffffffffffffffffffffffffff1681526020018a815260200189815260200188815260200187815260200160008152602001600081526020018281526020016000815260200160008152602001888152602001868152602001858152506004600084815260200190815260200160002060008201518160000160006101000a81548173ffffffffffffffffffffffffffffffffffffffff021916908373ffffffffffffffffffffffffffffffffffffffff16021790555060208201518160010160006101000a81548173ffffffffffffffffffffffffffffffffffffffff021916908373ffffffffffffffffffffffffffffffffffffffff16021790555060408201518160020155606082015181600301556080820151816004015560a0820151816005015560c0820151816006015560e082015181600701556101008201518160080155610120820151816009015561014082015181600a015561016082015181600b015561018082015181600c01556101a082015181600d0155905050611c2560026138e1565b81600360008c73ffffffffffffffffffffffffffffffffffffffff1673ffffffffffffffffffffffffffffffffffffffff16815260200190815260200160002081905550818a73ffffffffffffffffffffffffffffffffffffffff168c73ffffffffffffffffffffffffffffffffffffffff167fa859e0f0105bfa8e6a84bea88ceb9b20edbded649fb195236e0fd8f57008eef58c8b8d8d018c6040518085815260200184815260200183815260200182815260200194505050505060405180910390a45050505050505050505050565b611cfe612c03565b73ffffffffffffffffffffffffffffffffffffffff166000809054906101000a900473ffffffffffffffffffffffffffffffffffffffff1673ffffffffffffffffffffffffffffffffffffffff1614611dbf576040517f08c379a00000000000000000000000000000000000000000000000000000000081526004018080602001828103825260208152602001807f4f776e61626c653a2063616c6c6572206973206e6f7420746865206f776e657281525060200191505060405180910390fd5b600073ffffffffffffffffffffffffffffffffffffffff166000809054906101000a900473ffffffffffffffffffffffffffffffffffffffff1673ffffffffffffffffffffffffffffffffffffffff167f8be0079c531659141344cd1fd0a4f28419497f9722a3daafe3b4186f6b6457e060405160405180910390a360008060006101000a81548173ffffffffffffffffffffffffffffffffffffffff021916908373ffffffffffffffffffffffffffffffffffffffff160217905550565b60006005600084815260200190815260200160002060008373ffffffffffffffffffffffffffffffffffffffff1673ffffffffffffffffffffffffffffffffffffffff16815260200190815260200160002060000154905092915050565b60046020528060005260406000206000915090508060000160009054906101000a900473ffffffffffffffffffffffffffffffffffffffff16908060010160009054906101000a900473ffffffffffffffffffffffffffffffffffffffff169080600201549080600301549080600401549080600501549080600601549080600701549080600801549080600901549080600a01549080600b01549080600c01549080600d015490508e565b60008060009054906101000a900473ffffffffffffffffffffffffffffffffffffffff16905090565b6000611fbd83836132ac565b905092915050565b6006602052816000526040600020602052806000526040600020600091509150505481565b611ff2612c03565b73ffffffffffffffffffffffffffffffffffffffff166000809054906101000a900473ffffffffffffffffffffffffffffffffffffffff1673ffffffffffffffffffffffffffffffffffffffff16146120b3576040517f08c379a00000000000000000000000000000000000000000000000000000000081526004018080602001828103825260208152602001807f4f776e61626c653a2063616c6c6572206973206e6f7420746865206f776e657281525060200191505060405180910390fd5b60006005600084815260200190815260200160002060008373ffffffffffffffffffffffffffffffffffffffff1673ffffffffffffffffffffffffffffffffffffffff16815260200190815260200160002090506000816005015411156123215760006004600085815260200190815260200160002060000160009054906101000a900473ffffffffffffffffffffffffffffffffffffffff169050600073ffffffffffffffffffffffffffffffffffffffff168173ffffffffffffffffffffffffffffffffffffffff16146122a857600081905060008173ffffffffffffffffffffffffffffffffffffffff166370a08231306040518263ffffffff1660e01b8152600401808273ffffffffffffffffffffffffffffffffffffffff1673ffffffffffffffffffffffffffffffffffffffff16815260200191505060206040518083038186803b15801561220757600080fd5b505afa15801561221b573d6000803e3d6000fd5b505050506040513d602081101561223157600080fd5b8101908080519060200190929190505050905083600501548110156122a1576040517f08c379a0000000000000000000000000000000000000000000000000000000008152600401808060200182810382526033815260200180613c196033913960400191505060405180910390fd5b5050612306565b8160050154471015612305576040517f08c379a0000000000000000000000000000000000000000000000000000000008152600401808060200182810382526034815260200180613e4a6034913960400191505060405180910390fd5b5b612315818484600501546134fa565b60008260050181905550505b505050565b6000811161237f576040517f08c379a0000000000000000000000000000000000000000000000000000000008152600401808060200182810382526039815260200180613ef06039913960400191505060405180910390fd5b600082116123d8576040517f08c379a0000000000000000000000000000000000000000000000000000000008152600401808060200182810382526033815260200180613f626033913960400191505060405180910390fd5b6123e182613479565b612436576040517f08c379a0000000000000000000000000000000000000000000000000000000008152600401808060200182810382526024815260200180613d416024913960400191505060405180910390fd5b61243f82612d1f565b5060006004600084815260200190815260200160002060010160009054906101000a900473ffffffffffffffffffffffffffffffffffffffff169050818173ffffffffffffffffffffffffffffffffffffffff166370a08231336040518263ffffffff1660e01b8152600401808273ffffffffffffffffffffffffffffffffffffffff1673ffffffffffffffffffffffffffffffffffffffff16815260200191505060206040518083038186803b1580156124f957600080fd5b505afa15801561250d573d6000803e3d6000fd5b505050506040513d602081101561252357600080fd5b8101908080519060200190929190505050101561258b576040517f08c379a000000000000000000000000000000000000000000000000000000000815260040180806020018281038252602e815260200180613c71602e913960400191505060405180910390fd5b8073ffffffffffffffffffffffffffffffffffffffff166323b872dd3330856040518463ffffffff1660e01b8152600401808473ffffffffffffffffffffffffffffffffffffffff1673ffffffffffffffffffffffffffffffffffffffff1681526020018373ffffffffffffffffffffffffffffffffffffffff1673ffffffffffffffffffffffffffffffffffffffff1681526020018281526020019350505050602060405180830381600087803b15801561264657600080fd5b505af115801561265a573d6000803e3d6000fd5b505050506040513d602081101561267057600080fd5b81019080805190602001909291905050506126d6576040517f08c379a0000000000000000000000000000000000000000000000000000000008152600401808060200182810382526039815260200180613cd76039913960400191505060405180910390fd5b600060046000858152602001908152602001600020905060006005600086815260200190815260200160002060003373ffffffffffffffffffffffffffffffffffffffff1673ffffffffffffffffffffffffffffffffffffffff16815260200190815260200160002090506000816000015411156127595761275785612e24565b505b612770848360070154612c0b90919063ffffffff16565b826007018190555061278185612d1f565b50612799816000015485612c0b90919063ffffffff16565b8160000181905550428160020181905550426006600087815260200190815260200160002060003373ffffffffffffffffffffffffffffffffffffffff1673ffffffffffffffffffffffffffffffffffffffff1681526020019081526020016000208190555061280985336131fb565b506128148282613832565b3373ffffffffffffffffffffffffffffffffffffffff168260010160009054906101000a900473ffffffffffffffffffffffffffffffffffffffff1673ffffffffffffffffffffffffffffffffffffffff167ff3b2a76575670b4eff5a4ad3639d40d32f7ca987adac169e6f9b89a3ab857d2787874287600701546040518085815260200184815260200183815260200182815260200194505050505060405180910390a35050505050565b6000806128cd84846132ac565b9050612935816005600087815260200190815260200160002060008673ffffffffffffffffffffffffffffffffffffffff1673ffffffffffffffffffffffffffffffffffffffff16815260200190815260200160002060010154612c0b90919063ffffffff16565b91505092915050565b60008060046000848152602001908152602001600020905060006005600085815260200190815260200160002060003373ffffffffffffffffffffffffffffffffffffffff1673ffffffffffffffffffffffffffffffffffffffff16815260200190815260200160002090506000826004015414156129c2576000925050506129d1565b6129cc8282612c93565b925050505b919050565b600060046000838152602001908152602001600020600701549050919050565b6129fe612c03565b73ffffffffffffffffffffffffffffffffffffffff166000809054906101000a900473ffffffffffffffffffffffffffffffffffffffff1673ffffffffffffffffffffffffffffffffffffffff1614612abf576040517f08c379a00000000000000000000000000000000000000000000000000000000081526004018080602001828103825260208152602001807f4f776e61626c653a2063616c6c6572206973206e6f7420746865206f776e657281525060200191505060405180910390fd5b600073ffffffffffffffffffffffffffffffffffffffff168173ffffffffffffffffffffffffffffffffffffffff161415612b45576040517f08c379a0000000000000000000000000000000000000000000000000000000008152600401808060200182810382526026815260200180613b9d6026913960400191505060405180910390fd5b8073ffffffffffffffffffffffffffffffffffffffff166000809054906101000a900473ffffffffffffffffffffffffffffffffffffffff1673ffffffffffffffffffffffffffffffffffffffff167f8be0079c531659141344cd1fd0a4f28419497f9722a3daafe3b4186f6b6457e060405160405180910390a3806000806101000a81548173ffffffffffffffffffffffffffffffffffffffff021916908373ffffffffffffffffffffffffffffffffffffffff16021790555050565b600033905090565b600080828401905083811015612c89576040517f08c379a000000000000000000000000000000000000000000000000000000000815260040180806020018281038252601b8152602001807f536166654d6174683a206164646974696f6e206f766572666c6f77000000000081525060200191505060405180910390fd5b8091505092915050565b60008160030160009054906101000a900460ff1615612cb55760009050612d19565b600080905083600c0154836000015410158015612cd6575060008360060154115b15612d0d576000612cf484600601544261342f90919063ffffffff16565b9050612d098183612c0b90919063ffffffff16565b9150505b83600d01548110159150505b92915050565b600080600460008481526020019081526020016000209050600042905060001515612d4985613479565b15151415612d6f57612d6c82600301548360040154612c0b90919063ffffffff16565b90505b612db2612d9f8360090154612d9185600b01548561342f90919063ffffffff16565b6138f790919063ffffffff16565b83600a0154612c0b90919063ffffffff16565b82600a0181905550600082600701541415612dd65760008260090181905550612e14565b612e0b8260070154612dfd670de0b6b3a764000085600801546138f790919063ffffffff16565b61389790919063ffffffff16565b82600901819055505b8082600b01819055505050919050565b60008060046000848152602001908152602001600020905060006005600085815260200190815260200160002060003373ffffffffffffffffffffffffffffffffffffffff1673ffffffffffffffffffffffffffffffffffffffff16815260200190815260200160002090506000816000015411612eed576040517f08c379a0000000000000000000000000000000000000000000000000000000008152600401808060200182810382526023815260200180613de96023913960400191505060405180910390fd5b6000612ef985336132ac565b90506000811415612f1057600093505050506131f6565b6000809050600073ffffffffffffffffffffffffffffffffffffffff168460000160009054906101000a900473ffffffffffffffffffffffffffffffffffffffff1673ffffffffffffffffffffffffffffffffffffffff16146130565760008460000160009054906101000a900473ffffffffffffffffffffffffffffffffffffffff1690508073ffffffffffffffffffffffffffffffffffffffff166370a08231306040518263ffffffff1660e01b8152600401808273ffffffffffffffffffffffffffffffffffffffff1673ffffffffffffffffffffffffffffffffffffffff16815260200191505060206040518083038186803b15801561301357600080fd5b505afa158015613027573d6000803e3d6000fd5b505050506040513d602081101561303d57600080fd5b810190808051906020019092919050505091505061305a565b4790505b60008211801561306957508181105b156130a0576130978360050154613089838561342f90919063ffffffff16565b612c0b90919063ffffffff16565b83600501819055505b600015156130ad87613479565b151514156130dd576130d084600301548560040154612c0b90919063ffffffff16565b83600201819055506130e7565b4283600201819055505b6130fe828560060154612c0b90919063ffffffff16565b846006018190555061311d828460010154612c0b90919063ffffffff16565b83600101819055506131548460000160009054906101000a900473ffffffffffffffffffffffffffffffffffffffff1633846134fa565b3373ffffffffffffffffffffffffffffffffffffffff168460010160009054906101000a900473ffffffffffffffffffffffffffffffffffffffff1673ffffffffffffffffffffffffffffffffffffffff167fd795915374024be1f03204e052bd584b33bb85c9128ede9c54adbe0bbdc2209588854260405180848152602001838152602001828152602001935050505060405180910390a360019450505050505b919050565b60008060046000858152602001908152602001600020905060006005600086815260200190815260200160002060008573ffffffffffffffffffffffffffffffffffffffff1673ffffffffffffffffffffffffffffffffffffffff168152602001908152602001600020905061329c670de0b6b3a764000061328e836000015485600a01546138f790919063ffffffff16565b61389790919063ffffffff16565b8160040181905550505092915050565b60008060046000858152602001908152602001600020905060006005600086815260200190815260200160002060008573ffffffffffffffffffffffffffffffffffffffff1673ffffffffffffffffffffffffffffffffffffffff168152602001908152602001600020905060008160000154148061332f575060008260070154145b1561333f57600092505050613429565b60004290506000151561335187613479565b1515141561338e5761337483600301548460040154612c0b90919063ffffffff16565b90508082600201541061338d5760009350505050613429565b5b60006133d36133c085600901546133b287600b01548661342f90919063ffffffff16565b6138f790919063ffffffff16565b85600a0154612c0b90919063ffffffff16565b9050600061341e8460040154613410670de0b6b3a76400006134028689600001546138f790919063ffffffff16565b61389790919063ffffffff16565b61342f90919063ffffffff16565b905080955050505050505b92915050565b600061347183836040518060400160405280601e81526020017f536166654d6174683a207375627472616374696f6e206f766572666c6f77000081525061397d565b905092915050565b6000806134bb60046000858152602001908152602001600020600301546004600086815260200190815260200160002060040154612c0b90919063ffffffff16565b905060046000848152602001908152602001600020600401544210806134e057508042115b156134ef5760009150506134f5565b60019150505b919050565b600073ffffffffffffffffffffffffffffffffffffffff168373ffffffffffffffffffffffffffffffffffffffff161461378a57600083905060008173ffffffffffffffffffffffffffffffffffffffff166370a08231306040518263ffffffff1660e01b8152600401808273ffffffffffffffffffffffffffffffffffffffff1673ffffffffffffffffffffffffffffffffffffffff16815260200191505060206040518083038186803b1580156135b257600080fd5b505afa1580156135c6573d6000803e3d6000fd5b505050506040513d60208110156135dc57600080fd5b81019080805190602001909291905050509050808311156136bf578173ffffffffffffffffffffffffffffffffffffffff1663a9059cbb85836040518363ffffffff1660e01b8152600401808373ffffffffffffffffffffffffffffffffffffffff1673ffffffffffffffffffffffffffffffffffffffff16815260200182815260200192505050602060405180830381600087803b15801561367e57600080fd5b505af1158015613692573d6000803e3d6000fd5b505050506040513d60208110156136a857600080fd5b810190808051906020019092919050505050613783565b8173ffffffffffffffffffffffffffffffffffffffff1663a9059cbb85856040518363ffffffff1660e01b8152600401808373ffffffffffffffffffffffffffffffffffffffff1673ffffffffffffffffffffffffffffffffffffffff16815260200182815260200192505050602060405180830381600087803b15801561374657600080fd5b505af115801561375a573d6000803e3d6000fd5b505050506040513d602081101561377057600080fd5b8101908080519060200190929190505050505b505061382d565b6000479050808211156137e3578273ffffffffffffffffffffffffffffffffffffffff166108fc829081150290604051600060405180830381858888f193505050501580156137dd573d6000803e3d6000fd5b5061382b565b8273ffffffffffffffffffffffffffffffffffffffff166108fc839081150290604051600060405180830381858888f19350505050158015613829573d6000803e3d6000fd5b505b505b505050565b8060030160009054906101000a900460ff161561384e57613885565b81600c015481600001541061387957600081600601541415613874574281600601819055505b613884565b600081600601819055505b5b5050565b600081600001549050919050565b60006138d983836040518060400160405280601a81526020017f536166654d6174683a206469766973696f6e206279207a65726f000000000000815250613a3d565b905092915050565b6001816000016000828254019250508190555050565b60008083141561390a5760009050613977565b600082840290508284828161391b57fe5b0414613972576040517f08c379a0000000000000000000000000000000000000000000000000000000008152600401808060200182810382526021815260200180613dc86021913960400191505060405180910390fd5b809150505b92915050565b6000838311158290613a2a576040517f08c379a00000000000000000000000000000000000000000000000000000000081526004018080602001828103825283818151815260200191508051906020019080838360005b838110156139ef5780820151818401526020810190506139d4565b50505050905090810190601f168015613a1c5780820380516001836020036101000a031916815260200191505b509250505060405180910390fd5b5060008385039050809150509392505050565b60008083118290613ae9576040517f08c379a00000000000000000000000000000000000000000000000000000000081526004018080602001828103825283818151815260200191508051906020019080838360005b83811015613aae578082015181840152602081019050613a93565b50505050905090810190601f168015613adb5780820380516001836020036101000a031916815260200191505b509250505060405180910390fd5b506000838581613af557fe5b04905080915050939250505056fe50726f666974204369726375733a204e6f7420656e6f756768204c7020746f6b656e20696e20706c617965722062616c616e636550726f666974204369726375733a2045786365656473207468652062616c616e6365207468617420757365722068617350726f666974204369726375733a204e667420466163746f727920616464726573732063616e206e6f74206265206265207a65726f4f776e61626c653a206e6577206f776e657220697320746865207a65726f206164647265737350726f666974204369726375733a2030207374616b696e6720726571756972656d656e7450726f666974204369726375733a204e6f7420656e6f7567682062616c616e6365206f66206e61746976652072657761726450726f666974204369726375733a204e6f7420656e6f7567682072657761726420746f6b656e20746f207472616e736665722150726f666974204369726375733a206661696c656420746f206d696e74206120746f6b656e50726f666974204369726375733a204e6f7420656e6f756768204c5020746f6b656e7320746f206465706f73697450726f666974204369726375733a2053657373696f6e206475726174696f6e2073686f756c642062652067726561746572207468616e203050726f666974204369726375733a204661696c656420746f207472616e73666572204c5020746f6b656e7320696e746f20636f6e747261637450726f666974204369726375733a204e6f7420656e6f7567682062616c616e6365206f662072657761726420746f6b656e50726f666974204369726375733a2053657373696f6e206973206e6f742061637469766550726f666974204369726375733a20616c726561647920636c61696d6564206f722074696d65206e6f742070617373656450726f666974204369726375733a205365617373696f6e2073686f756c6420737461727420696e2074686520667574757265536166654d6174683a206d756c7469706c69636174696f6e206f766572666c6f7750726f666974204369726375733a204e6f206465706f7369742077617320666f756e6450726f666974204369726375733a20546f74616c20726577617264206f6620746f6b656e732073686f756c642062652067726561746572207468616e203050726f666974204369726375733a204e6f7420656e6f756768206e61746976652072657761726420746f207472616e736665722150726f666974204369726375733a205374616b696e6720746f6b656e2073686f756c64206e6f7420626520657175616c20746f203050726f666974204369726375733a204661696c656420746f207472616e7366657220746f6b656e2066726f6d20636f6e747261637420746f207573657250726f666974204369726375733a20416d6f756e7420746f206465706f7369742073686f756c642062652067726561746572207468616e203050726f666974204369726375733a2043616e2774207374617274207768656e2073657373696f6e20697320616c72656164792061637469766550726f666974204369726375733a2053657373696f6e2069642073686f756c642062652067726561746572207468616e203021a26469706673582212209cb3f477ef619b707e3ccc32e40f251db9b0324c0e45c2f9765493c4facb0cc764736f6c63430006070033",
  "immutableReferences": {},
  "source": "pragma solidity 0.6.7;\r\n\r\nimport \"./../openzeppelin/contracts/token/ERC20/IERC20.sol\";\r\nimport \"./../openzeppelin/contracts/token/ERC20/SafeERC20.sol\";\r\nimport \"./../openzeppelin/contracts/access/Ownable.sol\";\r\nimport \"./../openzeppelin/contracts/math/SafeMath.sol\";\r\nimport \"./../openzeppelin/contracts/utils/Counters.sol\";\r\nimport \"./../seascape_nft/NftFactory.sol\";\r\n\r\n/// @title A Liquidity pool mining\r\n/// @author Medet Ahmetson <admin@blocklords.io>\r\n/// @notice Contract is attached to Seascape Nft Factory\r\ncontract ProfitCircus is Ownable {\r\n    using SafeMath for uint256;\r\n    using SafeERC20 for IERC20;\r\n    using Counters for Counters.Counter;\r\n\r\n    uint256 private constant scaler = 10**18;\r\n\t\r\n    NftFactory nftFactory;\r\n  \r\n    Counters.Counter private sessionId;\r\n\r\n    /// @notice game event struct. as event is a solidity keyword, we call them session instead.\r\n    struct Session {\r\n\t\taddress rewardToken;\t\t// The token that user is farming\r\n\t\taddress stakingToken;  \t\t// staked token, users earn reward token\r\n        uint256 totalReward;   \t\t// amount of reward tokens to airdrop\r\n\t\tuint256 period;        \t\t// session duration in seconds\r\n\t\tuint256 startTime;     \t\t// session start in unixtimestamp\r\n\t\tuint256 generation;    \t\t// Seascape Nft generation given for minted NFT in the game\r\n\t\tuint256 claimed;       \t\t// amount of already claimed reward token\r\n\t\tuint256 amount;        \t\t// total amount of deposited tokens to the session by users\r\n\t\tuint256 rewardUnit;    \t\t// reward per second = totalReward/period\r\n\t\tuint256 interestPerToken; \t// total earned interest per token since the beginning\r\n\t\t\t\t\t\t\t\t\t// of the session\r\n\t\tuint256 claimedPerToken;    // total amount of tokens earned by a one staked token,\r\n\t\t\t\t\t\t\t\t\t// since the beginning of the session\r\n\t\tuint256 lastInterestUpdate; // last time when claimedPerToken and interestPerToken\r\n\r\n\t\t// The following two parameters are used to determine the free claimable nft.\r\n\t\tuint256 stakeAmount;\t\t// Minimum amount of Tokens to Stake\r\n\t\tuint256 stakePeriod;        // Minimum period of staking\r\n\t}\r\n\r\n    /// @notice balance of lp token that each player deposited to game session\r\n    struct Balance {\r\n\t\tuint256 amount;        \t\t// amount of staked token\r\n\t\tuint256 claimed;       \t\t// amount of claimed reward token\r\n\t\tuint256 claimedTime;\r\n\t\tbool minted;           \t\t// Seascape Nft is claimed or not,\r\n\t\t\t\t\t\t\t\t\t// for every session, user can claim one nft only\r\n\t\tuint256 claimedReward;\r\n\t\tuint256 unpaidReward;       // Amount of reward token that contract should pay to user\r\n\r\n\t\t// Track staking period in order to claim a free nft.\r\n\t\tuint256 stakeTime;\t\t\t// The time since the latest deposited enough token. It starts the countdown to stake\r\n\t}\r\n\r\n    mapping(address => uint256) public lastSessionIds;\r\n    mapping(uint256 => Session) public sessions;\r\n    mapping(uint256 => mapping(address => Balance)) public balances;\r\n    mapping(uint256 => mapping(address => uint)) public depositTimes;\r\n\r\n    event SessionStarted(address indexed rewardToken, address indexed stakingToken, uint256 indexed sessionIdd, uint256 reward, uint256 startTime, uint256 endTime, uint256 generation);\r\n    event Deposited(address indexed stakingToken, address indexed owner, uint256 sessionId, uint256 amount, uint256 startTime, uint256 totalStaked);\r\n    event Claimed(address indexed stakingToken, address indexed owner, uint256 sessionId, uint256 amount, uint256 claimedTime);\r\n    event Withdrawn(address indexed stakingToken, address indexed owner, uint256 sessionId, uint256 amount, uint256 startTime, uint256 totalStaked);\r\n    event FactorySet(address indexed factoryAddress);\t\r\n\r\n    constructor(address _nftFactory) public {\r\n\t\tsessionId.increment(); \t// starts at value 1\r\n\r\n\t\tnftFactory = NftFactory(_nftFactory);\r\n    }\r\n    \r\n    //--------------------------------------------------\r\n    // Only owner\r\n    //--------------------------------------------------\r\n\r\n    /// @notice Starts a staking session for a finit _period of\r\n    /// time, starting from _startTime. The _totalReward of\r\n    /// Reward tokens will be distributed in every second. It allows to claim a\r\n    /// a _generation Seascape NFT.\r\n    function startSession(address _rewardToken, address _lpToken,  uint256 _totalReward, uint256 _period,  uint256 _startTime, uint256 _generation, uint256 _stakeAmount, uint256 _stakePeriod) external onlyOwner {\r\n\t\trequire(_lpToken != address(0), \"Profit Circus: Staking token should not be equal to 0\");\r\n\t\trequire(_startTime > block.timestamp, \"Profit Circus: Seassion should start in the future\");\r\n\t\trequire(_period > 0, \"Profit Circus: Session duration should be greater than 0\");\r\n\t\trequire(_totalReward > 0, \"Profit Circus: Total reward of tokens should be greater than 0\");\r\n\t\trequire(_stakeAmount > 0 && _stakePeriod > 0, \"Profit Circus: 0 staking requirement\");\r\n\r\n\t\t// game session for the staked token was already created, then:\r\n\t\tuint256 _lastId = lastSessionIds[_lpToken];\r\n\t\tif (_lastId > 0) {\r\n\t\t\trequire(isActive(_lastId)==false,     \"Profit Circus: Can't start when session is already active\");\r\n\t\t}\r\n\r\n\t\tif (_rewardToken != address(0)) {\r\n\t\t\tIERC20 _reward = IERC20(_rewardToken);\r\n\r\n\t\t\t// required reward balance of this contract\r\n\t\t\trequire(_reward.balanceOf(address(this)) >= _totalReward, \"Profit Circus: Not enough balance of reward token\");\r\n\t\t} else {\r\n\t\t\trequire(address(this).balance >= _totalReward, \"Profit Circus: Not enough balance of native reward\");\r\n\t\t}\r\n\r\n\t\t//--------------------------------------------------------------------\r\n\t\t// creating the session\r\n\t\t//--------------------------------------------------------------------\r\n\t\tuint256 _sessionId = sessionId.current();\r\n\t\tuint256 _rewardUnit = _totalReward.div(_period);\t\r\n\t\tsessions[_sessionId] = Session(_rewardToken, _lpToken, _totalReward, _period, _startTime, _generation, 0, 0, _rewardUnit,\r\n\t\t\t0, 0, _startTime, _stakeAmount, _stakePeriod);\r\n\r\n\t\t//--------------------------------------------------------------------\r\n        // updating rest of the session related data\r\n\t\t//--------------------------------------------------------------------\r\n\t\tsessionId.increment();\r\n\t\tlastSessionIds[_lpToken] = _sessionId;\r\n\r\n\t\temit SessionStarted(_rewardToken, _lpToken, _sessionId, _totalReward, _startTime, _startTime + _period, _generation);\r\n    }\r\n     \r\n    /// @dev sets an nft factory, a smartcontract that mints tokens.\r\n    /// the nft factory should give a permission on it's own side to this contract too.\r\n    function setNftFactory(address _address) external onlyOwner {\r\n\t\trequire(_address != address(0), \"Profit Circus: Nft Factory address can not be be zero\");\r\n\t\tnftFactory = NftFactory(_address);\r\n\r\n\t\temit FactorySet(_address);\t    \r\n    }\r\n\r\n\tfunction payDebt(uint256 _sessionId, address _address) external onlyOwner {\r\n\t\tBalance storage _balance = balances[_sessionId][_address];\r\n\t\tif (_balance.unpaidReward > 0) {\r\n\t\t\taddress _rewardToken = sessions[_sessionId].rewardToken;\r\n\t\t\t\r\n\t\t\tif (_rewardToken != address(0)) {\r\n\t\t\t\tIERC20 _reward = IERC20(_rewardToken);\r\n\r\n\t\t\t\tuint256 _contractBalance = _reward.balanceOf(address(this));\r\n\t\t\t\trequire(_contractBalance >= _balance.unpaidReward, \"Profit Circus: Not enough reward token to transfer!\");\r\n\t\t\t} else {\r\n\t\t\t\trequire(address(this).balance >= _balance.unpaidReward, \"Profit Circus: Not enough native reward to transfer!\");\r\n\t\t\t}\r\n\r\n\t\t\t_safeTransfer(_rewardToken, _address, _balance.unpaidReward);\r\n\t\t\t\r\n\t\t\t_balance.unpaidReward = 0;\r\n\t\t}\r\n\t}\r\n\r\n    //--------------------------------------------------\r\n    // Only game users\r\n    //--------------------------------------------------\r\n\r\n    /// @notice deposits _amount of staking token. Staking token could be any ERC20 compatible token\r\n    function deposit(uint256 _sessionId, uint256 _amount) external {\r\n\t\trequire(_amount > 0,          \"Profit Circus: Amount to deposit should be greater than 0\");\r\n\t\trequire(_sessionId > 0,       \"Profit Circus: Session id should be greater than 0!\");\r\n\t\trequire(isActive(_sessionId), \"Profit Circus: Session is not active\");\r\n\r\n\t\tupdateInterestPerToken(_sessionId);\r\n\r\n\t\tIERC20 _token = IERC20(sessions[_sessionId].stakingToken);\r\n\t\t\r\n\t\trequire(_token.balanceOf(msg.sender) >= _amount,                 \"Profit Circus: Not enough LP tokens to deposit\");\r\n\t\trequire(_token.transferFrom(msg.sender, address(this), _amount), \"Profit Circus: Failed to transfer LP tokens into contract\");\r\n\r\n\t\tSession storage _session  = sessions[_sessionId];\r\n\t\tBalance storage _balance  = balances[_sessionId][msg.sender];\r\n\r\n\t\t// claim tokens if any\r\n\t\tif (_balance.amount > 0) {\r\n\t\t\t_claim(_sessionId);\r\n\t\t}\r\n\r\n\t\t// I add amount of deposits to session.amount\r\n\t\t_session.amount = _session.amount.add(_amount); // 10\r\n\r\n\t\t// interest per token is updated. maybe need to withdraw out?\r\n\t\tupdateInterestPerToken(_sessionId);\r\n\t\t\r\n\t\t_balance.amount = _amount.add(_balance.amount);\r\n\t\t_balance.claimedTime = block.timestamp;\r\n\r\n\t\tdepositTimes[_sessionId][msg.sender]    = block.timestamp;\r\n\r\n\t\tupdateBalanceInterestPerToken(_sessionId, msg.sender);\r\n\r\n\t\tupdateTimeProgress(_session, _balance);\r\n\r\n\t\temit Deposited(_session.stakingToken, msg.sender, _sessionId, _amount, block.timestamp, _session.amount);\r\n\t}\r\n\r\n\r\n\tfunction claim(uint256 _sessionId) public returns(bool) {\r\n\t\tBalance storage _balance = balances[_sessionId][msg.sender];\r\n\r\n\t\trequire(_balance.amount > 0, \"Profit Circus: No deposit was found\");\r\n\t\t\r\n\t\tupdateInterestPerToken(_sessionId);\r\n\r\n\t\t_claim(_sessionId);\r\n\r\n\t\tupdateBalanceInterestPerToken(_sessionId, msg.sender);\r\n\r\n\t\treturn true;\r\n    }\r\n\r\n    /// @notice Withdraws _amount of LP token\r\n    /// of type _token out of Staking contract.\r\n    function withdraw(uint256 _sessionId, uint256 _amount) external {\r\n\t\tSession storage _session = sessions[_sessionId];\r\n\t\tBalance storage _balance  = balances[_sessionId][msg.sender];\r\n\r\n\t\trequire(_balance.amount >= _amount, \"Profit Circus: Exceeds the balance that user has\");\r\n\r\n\t\tupdateInterestPerToken(_sessionId);\r\n\r\n\t\tIERC20 _token = IERC20(_session.stakingToken);\r\n\t\t\t\r\n\t\trequire(_token.balanceOf(address(this)) >= _amount, \"Profit Circus: Not enough Lp token in player balance\");\r\n\t\tuint256 _interest = calculateInterest(_sessionId, msg.sender);\r\n\r\n\r\n\t\tuint256 _contractBalance = 0;\r\n\t\tif (_session.rewardToken != address(0)) {\r\n\t\t\tIERC20 _reward = IERC20(_session.rewardToken);\r\n\t\t\t_contractBalance = _reward.balanceOf(address(this));\r\n\t\t} else {\r\n\t\t\t_contractBalance = address(this).balance;\r\n\t\t}\r\n\t\tif (_interest > 0 && _contractBalance < _interest) {\r\n\t\t\t_balance.unpaidReward = _interest.sub(_contractBalance).add(_balance.unpaidReward);\r\n\t\t}\r\n\r\n\t\t_balance.amount = _balance.amount.sub(_amount);\r\n\t\t_session.amount = _session.amount.sub(_amount);\r\n\r\n\t\t/// reward claims as in claim method\r\n\t\tif (_interest > 0) {\r\n\t\t\t_session.claimed     = _session.claimed.add(_interest);\t\r\n\t\t\t_balance.claimed     = _balance.claimed.add(_interest);\r\n\t\t\tif (isActive(_sessionId) == false) {\r\n\t\t\t\t_balance.claimedTime = _session.startTime.add(_session.period);\r\n\t\t\t} else {\r\n\t\t\t\t_balance.claimedTime = block.timestamp;\r\n\t\t\t}\r\n\r\n\t\t\t_safeTransfer(_session.rewardToken, msg.sender, _interest);\r\n\t\t\temit Claimed(_session.stakingToken, msg.sender, _sessionId, _interest, block.timestamp);\t\r\n\t\t}\r\n\t\trequire(_token.transfer(msg.sender, _amount), \"Profit Circus: Failed to transfer token from contract to user\");\r\n\r\n\t\t// change the session.interestPerToken\r\n\t\tupdateInterestPerToken(_sessionId);\r\n\t\tupdateBalanceInterestPerToken(_sessionId, msg.sender);\r\n \t\t\r\n\t\tupdateTimeProgress(_session, _balance);\r\n\r\n\t\temit Withdrawn(_session.stakingToken, msg.sender, _sessionId, _amount, block.timestamp, _session.amount);\r\n    }\r\n\r\n    /// @notice Mints an NFT for staker. One NFT per session, per token. and should be a deposit\r\n    function claimNft(uint256 _sessionId) external {\r\n\t\t// it also indicates that session exists\r\n\t\tSession storage _session = sessions[_sessionId];\r\n\t\tBalance storage _balance = balances[_sessionId][msg.sender];\r\n\t\trequire(_balance.claimed.add(_balance.amount) > 0, \"Profit Circus: Deposit first\");\r\n\t\trequire(isMintable(_session, _balance), \"Profit Circus: already claimed or time not passed\");\r\n\r\n\t\tuint256 _tokenId = nftFactory.mint(msg.sender, sessions[_sessionId].generation);\r\n\t\trequire(_tokenId > 0,                              \"Profit Circus: failed to mint a token\");\r\n\t\t\r\n\t\tbalances[_sessionId][msg.sender].minted = true;\r\n    }\r\n\r\n    //--------------------------------------------------\r\n    // Public methods\r\n    //--------------------------------------------------\r\n\r\n    /// @notice Returns amount of Token staked by _owner\r\n    function stakedBalanceOf(uint256 _sessionId, address _owner) external view returns(uint256) {\r\n\t\treturn balances[_sessionId][_owner].amount;\r\n    }\r\n\r\n    /// @notice Returns amount of reward Tokens earned by _address\r\n    function earned(uint256 _sessionId, address _owner) external view returns(uint256) {\r\n\t\tuint256 _interest = calculateInterest(_sessionId, _owner);\r\n\t\treturn balances[_sessionId][_owner].claimed.add(_interest);\r\n    }\r\n\r\n    /// @notice Returns amount of reward Tokens that _address could claim.\r\n    function claimable(uint256 _sessionId, address _owner) external view returns(uint256) {\r\n\t\treturn calculateInterest(_sessionId, _owner);\r\n    }\r\n\r\n    /// @notice Returns total amount of Staked LP Tokens\r\n    function stakedBalance(uint256 _sessionId) external view returns(uint256) {\r\n\t\treturn sessions[_sessionId].amount;\r\n    }\r\n\r\n\tfunction isNftClaimable(uint256 _sessionId) external view returns(bool) {\r\n\t\tSession storage _session = sessions[_sessionId];\r\n\t\tBalance storage _balance = balances[_sessionId][msg.sender];\r\n\t\t\r\n\t\t// session doesn't exist.\r\n\t\tif (_session.startTime == 0) {\r\n\t\t\treturn false;\r\n\t\t}\r\n\t\treturn isMintable(_session, _balance);\r\n\t}\r\n\r\n    //---------------------------------------------------\r\n    // Internal methods\r\n    //---------------------------------------------------\r\n\r\n\tfunction updateTimeProgress(Session storage _session, Balance storage _balance) internal {\r\n\t\tif (_balance.minted) {\r\n\t\t\treturn;\r\n\t\t}\r\n\r\n\t\t// If after withdraw or deposit remained more than minimum required tokens\r\n\t\t// progress the timer.\r\n\t\t// otherwise reset it.\r\n        if (_balance.amount >= _session.stakeAmount) {\r\n\t\t\tif (_balance.stakeTime == 0) {\r\n\t\t\t\t_balance.stakeTime = now;\r\n\t\t\t}\r\n        } else {\r\n\t\t\t_balance.stakeTime = 0;\r\n\t\t}\r\n    }\r\n\r\n\r\n    /// @dev check whether the session is active or not\r\n    function isActive(uint256 _sessionId) internal view returns(bool) {\r\n\t\tuint256 _endTime = sessions[_sessionId].startTime.add(sessions[_sessionId].period);\r\n\r\n\t\t// _endTime will be 0 if session never started.\r\n\t\tif (now < sessions[_sessionId].startTime || now > _endTime) {\r\n\t    \treturn false;\r\n\t\t}\r\n\r\n\t\treturn true;\r\n    }\r\n\r\n\t/// @dev check whether the time progress passed or not\r\n\tfunction isMintable(Session storage _session, Balance storage _balance) internal view returns(bool) {\r\n\t\tif (_balance.minted) {\r\n\t\t\treturn false;\r\n\t\t}\r\n\r\n\t\tuint256 time = 0;\r\n\r\n        if (_balance.amount >= _session.stakeAmount && _balance.stakeTime > 0) {\r\n            uint256 duration = now.sub(_balance.stakeTime);\r\n            time = time.add(duration);\r\n        }\r\n\r\n        return time >= _session.stakePeriod;\r\n\t}\r\n\r\n    function calculateInterest(uint256 _sessionId, address _owner) internal view returns(uint256) {\t    \r\n\t\tSession storage _session = sessions[_sessionId];\r\n\t\tBalance storage _balance = balances[_sessionId][_owner];\r\n\r\n\t\t// How much of total deposit is belong to player as a floating number\r\n\t\tif (_balance.amount == 0 || _session.amount == 0) {\r\n\t\t\treturn 0;\r\n\t\t}\r\n\r\n\t\tuint256 _sessionCap = block.timestamp;\r\n\t\tif (isActive(_sessionId) == false) {\r\n\t\t\t_sessionCap = _session.startTime.add(_session.period);\r\n\r\n\t\t\t// claimed after session expire, means no any claimables\r\n\t\t\tif (_balance.claimedTime >= _sessionCap) {\r\n\t\t\t\treturn 0;\r\n\t\t\t}\r\n\t\t}\r\n\r\n\t\tuint256 claimedPerToken = _session.claimedPerToken.add(\r\n\t\t\t_sessionCap.sub(_session.lastInterestUpdate).mul(_session.interestPerToken));\r\n\t\t\r\n\t\t// (balance * total claimable) - user deposit earned amount per token - balance.claimedTime\r\n    \tuint256 _interest = _balance.amount.mul(claimedPerToken).div(scaler).sub(_balance.claimedReward);\r\n\r\n\t\treturn _interest;\r\n    }\r\n\r\n\t\r\n\t/// @dev updateInterestPerToken set's up the amount of tokens earned since the beginning\r\n\t/// of the session to 1 token. It also updates the portion of it for the user.\r\n\t/// @param _sessionId is a session id\r\n\tfunction updateInterestPerToken(uint256 _sessionId) internal returns(bool) {\r\n\t\tSession storage _session = sessions[_sessionId];\r\n\r\n\t\tuint256 _sessionCap = block.timestamp;\r\n\t\tif (isActive(_sessionId) == false) {\r\n\t\t\t_sessionCap = _session.startTime.add(_session.period);\r\n\t\t}\r\n\r\n        // I calculate previous claimed rewards\r\n        // (session.claimedPerToken += (now - session.lastInterestUpdate) * session.interestPerToken)\r\n\t\t_session.claimedPerToken = _session.claimedPerToken.add(\r\n\t\t\t_sessionCap.sub(_session.lastInterestUpdate).mul(_session.interestPerToken));\r\n\r\n        // I record that interestPerToken is 0.1 Reward Token (rewardUnit/amount) in session.interestPerToken\r\n        // I update the session.lastInterestUpdate to now\r\n\t\tif (_session.amount == 0) {\r\n\t\t\t_session.interestPerToken = 0;\r\n\t\t} else {\r\n\t\t\t_session.interestPerToken = _session.rewardUnit.mul(scaler).div(_session.amount); // 0.1\r\n\t\t}\r\n\r\n\t\t// we avoid sub. underflow, for calulating session.claimedPerToken\r\n\t\t_session.lastInterestUpdate = _sessionCap;\r\n\t}\r\n\r\n\tfunction updateBalanceInterestPerToken(uint256 _sessionId, address _owner) internal returns(bool) {\r\n\t\tSession storage _session = sessions[_sessionId];\r\n\t\tBalance storage _balance = balances[_sessionId][_owner];\r\n\r\n\t\t// also, need to attach to alex, \r\n\t\t// that previous earning (session.claimedPerToken) is 0.\r\n\t\t_balance.claimedReward = _session.claimedPerToken.mul(_balance.amount).div(scaler); // 0\r\n\t}\r\n\r\n\tfunction _claim(uint256 _sessionId) internal returns(bool) {\r\n\t\tSession storage _session = sessions[_sessionId];\r\n\t\tBalance storage _balance = balances[_sessionId][msg.sender];\r\n\r\n\t\trequire(_balance.amount > 0, \"Profit Circus: No deposit was found\");\r\n\t\t\r\n\t\tuint256 _interest = calculateInterest(_sessionId, msg.sender);\r\n\t\tif (_interest == 0) {\r\n\t\t\treturn false;\r\n\t\t}\r\n\r\n\r\n\t\tuint256 _contractBalance = 0;\r\n\r\n\t\tif (_session.rewardToken != address(0)) {\r\n\t\t\tIERC20 _rewardToken = IERC20(_session.rewardToken);\r\n\t\t\t_contractBalance = _rewardToken.balanceOf(address(this));\r\n\t\t} else {\r\n\t\t\t_contractBalance = address(this).balance;\r\n\t\t}\r\n\t\tif (_interest > 0 && _contractBalance < _interest) {\r\n\t\t\t_balance.unpaidReward = _interest.sub(_contractBalance).add(_balance.unpaidReward);\r\n\t\t}\r\n\r\n\t\t// we avoid sub. underflow, for calulating session.claimedPerToken\r\n\t\tif (isActive(_sessionId) == false) {\r\n\t\t\t_balance.claimedTime = _session.startTime.add(_session.period);\r\n\t\t} else {\r\n\t\t\t_balance.claimedTime = block.timestamp;\r\n\t\t}\r\n\t\t_session.claimed     = _session.claimed.add(_interest);\r\n\t\t_balance.claimed     = _balance.claimed.add(_interest);\r\n\t\t\r\n\t\t_safeTransfer(_session.rewardToken, msg.sender, _interest);\r\n\t\t\t\r\n\t\temit Claimed(_session.stakingToken, msg.sender, _sessionId, _interest, block.timestamp);\r\n\t\treturn true;\r\n    }\r\n\r\n\tfunction _safeTransfer(address _token, address _to, uint256 _amount) internal {\r\n\t\tif (_token != address(0)) {\r\n\t\t\tIERC20 _rewardToken = IERC20(_token);\r\n\r\n\t\t\tuint256 _balance = _rewardToken.balanceOf(address(this));\r\n        \tif (_amount > _balance) {\r\n            \t_rewardToken.transfer(_to, _balance);\r\n\t\t\t} else {\r\n\t\t\t\t_rewardToken.transfer(_to, _amount);\r\n\t\t\t}\r\n\t\t} else {\r\n\t\t\tuint256 _balance = address(this).balance;\r\n        \tif (_amount > _balance) {\r\n            \tpayable(_to).transfer(_balance);\r\n\t\t\t} else {\r\n\t\t\t\tpayable(_to).transfer(_amount);\r\n\t\t\t}\r\n\t\t}\r\n\t}\r\n}\r\n\r\n\r\n",
  "sourcePath": "D:/projects/seascape-smartcontracts/contracts/game_1/ProfitCircus.sol",
  "compiler": {
    "name": "solc",
    "version": "0.6.7+commit.b8d736ae.Emscripten.clang"
  },
  "schemaVersion": "3.3.4",
  "updatedAt": "2021-10-13T04:52:30.489Z",
  "networkType": "ethereum",
  "devdoc": {
    "author": "Medet Ahmetson <admin@blocklords.io>",
    "methods": {
      "owner()": {
        "details": "Returns the address of the current owner."
      },
      "renounceOwnership()": {
        "details": "Leaves the contract without owner. It will not be possible to call `onlyOwner` functions anymore. Can only be called by the current owner.     * NOTE: Renouncing ownership will leave the contract without an owner, thereby removing any functionality that is only available to the owner."
      },
      "setNftFactory(address)": {
        "details": "sets an nft factory, a smartcontract that mints tokens. the nft factory should give a permission on it's own side to this contract too."
      },
      "transferOwnership(address)": {
        "details": "Transfers ownership of the contract to a new account (`newOwner`). Can only be called by the current owner."
      }
    },
    "title": "A Liquidity pool mining"
  },
  "userdoc": {
    "methods": {
      "claimNft(uint256)": {
        "notice": "Mints an NFT for staker. One NFT per session, per token. and should be a deposit"
      },
      "claimable(uint256,address)": {
        "notice": "Returns amount of reward Tokens that _address could claim."
      },
      "deposit(uint256,uint256)": {
        "notice": "deposits _amount of staking token. Staking token could be any ERC20 compatible token"
      },
      "earned(uint256,address)": {
        "notice": "Returns amount of reward Tokens earned by _address"
      },
      "stakedBalance(uint256)": {
        "notice": "Returns total amount of Staked LP Tokens"
      },
      "stakedBalanceOf(uint256,address)": {
        "notice": "Returns amount of Token staked by _owner"
      },
      "startSession(address,address,uint256,uint256,uint256,uint256,uint256,uint256)": {
        "notice": "Starts a staking session for a finit _period of time, starting from _startTime. The _totalReward of Reward tokens will be distributed in every second. It allows to claim a a _generation Seascape NFT."
      },
      "withdraw(uint256,uint256)": {
        "notice": "Withdraws _amount of LP token of type _token out of Staking contract."
      }
    },
    "notice": "Contract is attached to Seascape Nft Factory"
  }
}