{
  "contractName": "CrownsToken",
  "abi": [
    {
      "inputs": [],
      "stateMutability": "nonpayable",
      "type": "constructor"
    },
    {
      "anonymous": false,
      "inputs": [
        {
          "indexed": true,
          "internalType": "address",
          "name": "owner",
          "type": "address"
        },
        {
          "indexed": true,
          "internalType": "address",
          "name": "spender",
          "type": "address"
        },
        {
          "indexed": false,
          "internalType": "uint256",
          "name": "value",
          "type": "uint256"
        }
      ],
      "name": "Approval",
      "type": "event"
    },
    {
      "anonymous": false,
      "inputs": [
        {
          "indexed": true,
          "internalType": "address",
          "name": "previousOwner",
          "type": "address"
        },
        {
          "indexed": true,
          "internalType": "address",
          "name": "newOwner",
          "type": "address"
        }
      ],
      "name": "OwnershipTransferred",
      "type": "event"
    },
    {
      "anonymous": false,
      "inputs": [
        {
          "indexed": false,
          "internalType": "uint256",
          "name": "spent",
          "type": "uint256"
        },
        {
          "indexed": false,
          "internalType": "uint256",
          "name": "totalRebase",
          "type": "uint256"
        }
      ],
      "name": "Rebase",
      "type": "event"
    },
    {
      "anonymous": false,
      "inputs": [
        {
          "indexed": true,
          "internalType": "address",
          "name": "from",
          "type": "address"
        },
        {
          "indexed": true,
          "internalType": "address",
          "name": "to",
          "type": "address"
        },
        {
          "indexed": false,
          "internalType": "uint256",
          "name": "value",
          "type": "uint256"
        }
      ],
      "name": "Transfer",
      "type": "event"
    },
    {
      "inputs": [],
      "name": "owner",
      "outputs": [
        {
          "internalType": "address",
          "name": "",
          "type": "address"
        }
      ],
      "stateMutability": "view",
      "type": "function"
    },
    {
      "inputs": [],
      "name": "renounceOwnership",
      "outputs": [],
      "stateMutability": "nonpayable",
      "type": "function"
    },
    {
      "inputs": [],
      "name": "totalRebase",
      "outputs": [
        {
          "internalType": "uint256",
          "name": "",
          "type": "uint256"
        }
      ],
      "stateMutability": "view",
      "type": "function"
    },
    {
      "inputs": [
        {
          "internalType": "address",
          "name": "newOwner",
          "type": "address"
        }
      ],
      "name": "transferOwnership",
      "outputs": [],
      "stateMutability": "nonpayable",
      "type": "function"
    },
    {
      "inputs": [],
      "name": "unclaimedRebase",
      "outputs": [
        {
          "internalType": "uint256",
          "name": "",
          "type": "uint256"
        }
      ],
      "stateMutability": "view",
      "type": "function"
    },
    {
      "inputs": [],
      "name": "unconfirmedRebase",
      "outputs": [
        {
          "internalType": "uint256",
          "name": "",
          "type": "uint256"
        }
      ],
      "stateMutability": "view",
      "type": "function"
    },
    {
      "inputs": [
        {
          "internalType": "address",
          "name": "account",
          "type": "address"
        }
      ],
      "name": "rebaseOwing",
      "outputs": [
        {
          "internalType": "uint256",
          "name": "",
          "type": "uint256"
        }
      ],
      "stateMutability": "view",
      "type": "function"
    },
    {
      "inputs": [],
      "name": "name",
      "outputs": [
        {
          "internalType": "string",
          "name": "",
          "type": "string"
        }
      ],
      "stateMutability": "view",
      "type": "function"
    },
    {
      "inputs": [],
      "name": "symbol",
      "outputs": [
        {
          "internalType": "string",
          "name": "",
          "type": "string"
        }
      ],
      "stateMutability": "view",
      "type": "function"
    },
    {
      "inputs": [],
      "name": "decimals",
      "outputs": [
        {
          "internalType": "uint8",
          "name": "",
          "type": "uint8"
        }
      ],
      "stateMutability": "view",
      "type": "function"
    },
    {
      "inputs": [],
      "name": "totalSupply",
      "outputs": [
        {
          "internalType": "uint256",
          "name": "",
          "type": "uint256"
        }
      ],
      "stateMutability": "view",
      "type": "function"
    },
    {
      "inputs": [
        {
          "internalType": "address",
          "name": "account",
          "type": "address"
        }
      ],
      "name": "balanceOf",
      "outputs": [
        {
          "internalType": "uint256",
          "name": "",
          "type": "uint256"
        }
      ],
      "stateMutability": "view",
      "type": "function"
    },
    {
      "inputs": [
        {
          "internalType": "address",
          "name": "recipient",
          "type": "address"
        },
        {
          "internalType": "uint256",
          "name": "amount",
          "type": "uint256"
        }
      ],
      "name": "transfer",
      "outputs": [
        {
          "internalType": "bool",
          "name": "",
          "type": "bool"
        }
      ],
      "stateMutability": "nonpayable",
      "type": "function"
    },
    {
      "inputs": [
        {
          "internalType": "address",
          "name": "owner",
          "type": "address"
        },
        {
          "internalType": "address",
          "name": "spender",
          "type": "address"
        }
      ],
      "name": "allowance",
      "outputs": [
        {
          "internalType": "uint256",
          "name": "",
          "type": "uint256"
        }
      ],
      "stateMutability": "view",
      "type": "function"
    },
    {
      "inputs": [
        {
          "internalType": "address",
          "name": "spender",
          "type": "address"
        },
        {
          "internalType": "uint256",
          "name": "amount",
          "type": "uint256"
        }
      ],
      "name": "approve",
      "outputs": [
        {
          "internalType": "bool",
          "name": "",
          "type": "bool"
        }
      ],
      "stateMutability": "nonpayable",
      "type": "function"
    },
    {
      "inputs": [
        {
          "internalType": "address",
          "name": "sender",
          "type": "address"
        },
        {
          "internalType": "address",
          "name": "recipient",
          "type": "address"
        },
        {
          "internalType": "uint256",
          "name": "amount",
          "type": "uint256"
        }
      ],
      "name": "transferFrom",
      "outputs": [
        {
          "internalType": "bool",
          "name": "",
          "type": "bool"
        }
      ],
      "stateMutability": "nonpayable",
      "type": "function"
    },
    {
      "inputs": [
        {
          "internalType": "address",
          "name": "spender",
          "type": "address"
        },
        {
          "internalType": "uint256",
          "name": "addedValue",
          "type": "uint256"
        }
      ],
      "name": "increaseAllowance",
      "outputs": [
        {
          "internalType": "bool",
          "name": "",
          "type": "bool"
        }
      ],
      "stateMutability": "nonpayable",
      "type": "function"
    },
    {
      "inputs": [
        {
          "internalType": "address",
          "name": "spender",
          "type": "address"
        },
        {
          "internalType": "uint256",
          "name": "subtractedValue",
          "type": "uint256"
        }
      ],
      "name": "decreaseAllowance",
      "outputs": [
        {
          "internalType": "bool",
          "name": "",
          "type": "bool"
        }
      ],
      "stateMutability": "nonpayable",
      "type": "function"
    },
    {
      "inputs": [
        {
          "internalType": "uint256",
          "name": "amount",
          "type": "uint256"
        }
      ],
      "name": "spend",
      "outputs": [],
      "stateMutability": "nonpayable",
      "type": "function"
    },
    {
      "inputs": [
        {
          "internalType": "address",
          "name": "account",
          "type": "address"
        }
      ],
      "name": "getLastRebase",
      "outputs": [
        {
          "internalType": "uint256",
          "name": "",
          "type": "uint256"
        }
      ],
      "stateMutability": "view",
      "type": "function"
    },
    {
      "inputs": [],
      "name": "rebase",
      "outputs": [
        {
          "internalType": "bool",
          "name": "",
          "type": "bool"
        }
      ],
      "stateMutability": "nonpayable",
      "type": "function"
    }
  ],
  "bytecode": "0x60806040526000600755600060085560006009553480156200002057600080fd5b50600062000033620002f260201b60201c565b9050806000806101000a81548173ffffffffffffffffffffffffffffffffffffffff021916908373ffffffffffffffffffffffffffffffffffffffff1602179055508073ffffffffffffffffffffffffffffffffffffffff16600073ffffffffffffffffffffffffffffffffffffffff167f8be0079c531659141344cd1fd0a4f28419497f9722a3daafe3b4186f6b6457e060405160405180910390a3506040518060400160405280600681526020017f43726f776e730000000000000000000000000000000000000000000000000000815250600490805190602001906200011e92919062000786565b506040518060400160405280600381526020017f4357530000000000000000000000000000000000000000000000000000000000815250600590805190602001906200016c92919062000786565b506012600660006101000a81548160ff021916908360ff160217905550600073fa4d7d1ac9b7a7454d09b8eadc35aa70599329ea905060007353bd91aef5e84a61f9b87781a024ee648733f9739050600073b5de2b5186e1edc947b73019f3102ef53c2ac69190506000731d3db9bca5aa2ce931ce13b7b51f8e14f589536890506000730811e2dfb6482507461ca2ab583844313f2549b5905060003390506000670de0b6b3a7640000620f424060030202905060008190506000670de0b6b3a7640000620f424060010202905060008190506000670de0b6b3a7640000620b71b00290506000670de0b6b3a7640000621312d0029050620002758c87620002fa60201b60201c565b620002878b86620002fa60201b60201c565b620002998a85620002fa60201b60201c565b620002ab8984620002fa60201b60201c565b620002bd8883620002fa60201b60201c565b620002cf8782620002fa60201b60201c565b620002e087620004e060201b60201c565b50505050505050505050505062000835565b600033905090565b600073ffffffffffffffffffffffffffffffffffffffff168273ffffffffffffffffffffffffffffffffffffffff1614156200039e576040517f08c379a000000000000000000000000000000000000000000000000000000000815260040180806020018281038252601f8152602001807f45524332303a206d696e7420746f20746865207a65726f20616464726573730081525060200191505060405180910390fd5b620003b260008383620006f860201b60201c565b620003ce81600354620006fd60201b620020ff1790919060201c565b6003819055506200043081600160008573ffffffffffffffffffffffffffffffffffffffff1673ffffffffffffffffffffffffffffffffffffffff16815260200190815260200160002060000154620006fd60201b620020ff1790919060201c565b600160008473ffffffffffffffffffffffffffffffffffffffff1673ffffffffffffffffffffffffffffffffffffffff168152602001908152602001600020600001819055508173ffffffffffffffffffffffffffffffffffffffff16600073ffffffffffffffffffffffffffffffffffffffff167fddf252ad1be2c89b69c2b068fc378daa952ba7f163c4a11628f55a4df523b3ef836040518082815260200191505060405180910390a35050565b620004f0620002f260201b60201c565b73ffffffffffffffffffffffffffffffffffffffff166000809054906101000a900473ffffffffffffffffffffffffffffffffffffffff1673ffffffffffffffffffffffffffffffffffffffff1614620005b2576040517f08c379a00000000000000000000000000000000000000000000000000000000081526004018080602001828103825260208152602001807f4f776e61626c653a2063616c6c6572206973206e6f7420746865206f776e657281525060200191505060405180910390fd5b600073ffffffffffffffffffffffffffffffffffffffff168173ffffffffffffffffffffffffffffffffffffffff1614156200063a576040517f08c379a000000000000000000000000000000000000000000000000000000000815260040180806020018281038252602681526020018062002d6e6026913960400191505060405180910390fd5b8073ffffffffffffffffffffffffffffffffffffffff166000809054906101000a900473ffffffffffffffffffffffffffffffffffffffff1673ffffffffffffffffffffffffffffffffffffffff167f8be0079c531659141344cd1fd0a4f28419497f9722a3daafe3b4186f6b6457e060405160405180910390a3806000806101000a81548173ffffffffffffffffffffffffffffffffffffffff021916908373ffffffffffffffffffffffffffffffffffffffff16021790555050565b505050565b6000808284019050838110156200077c576040517f08c379a000000000000000000000000000000000000000000000000000000000815260040180806020018281038252601b8152602001807f536166654d6174683a206164646974696f6e206f766572666c6f77000000000081525060200191505060405180910390fd5b8091505092915050565b828054600181600116156101000203166002900490600052602060002090601f016020900481019282601f10620007c957805160ff1916838001178555620007fa565b82800160010185558215620007fa579182015b82811115620007f9578251825591602001919060010190620007dc565b5b5090506200080991906200080d565b5090565b6200083291905b808211156200082e57600081600090555060010162000814565b5090565b90565b61252980620008456000396000f3fe608060405234801561001057600080fd5b50600436106101375760003560e01c80638da5cb5b116100b8578063a9059cbb1161007c578063a9059cbb146105aa578063af14052c14610610578063bc04238914610632578063bd69c80c1461068a578063dd62ed3e146106a8578063f2fde38b1461072057610137565b80638da5cb5b1461043b5780639179d8151461048557806395d89b41146104a3578063988e3ab114610526578063a457c2d71461054457610137565b806331329f22116100ff57806331329f22146102f7578063313ce5671461034f578063395093511461037357806370a08231146103d9578063715018a61461043157610137565b806306fdde031461013c578063095ea7b3146101bf57806318160ddd146102255780631dbf3bc71461024357806323b872dd14610271575b600080fd5b610144610764565b6040518080602001828103825283818151815260200191508051906020019080838360005b83811015610184578082015181840152602081019050610169565b50505050905090810190601f1680156101b15780820380516001836020036101000a031916815260200191505b509250505060405180910390f35b61020b600480360360408110156101d557600080fd5b81019080803573ffffffffffffffffffffffffffffffffffffffff16906020019092919080359060200190929190505050610806565b604051808215151515815260200191505060405180910390f35b61022d610824565b6040518082815260200191505060405180910390f35b61026f6004803603602081101561025957600080fd5b810190808035906020019092919050505061082e565b005b6102dd6004803603606081101561028757600080fd5b81019080803573ffffffffffffffffffffffffffffffffffffffff169060200190929190803573ffffffffffffffffffffffffffffffffffffffff16906020019092919080359060200190929190505050610914565b604051808215151515815260200191505060405180910390f35b6103396004803603602081101561030d57600080fd5b81019080803573ffffffffffffffffffffffffffffffffffffffff1690602001909291905050506109ed565b6040518082815260200191505060405180910390f35b610357610a39565b604051808260ff1660ff16815260200191505060405180910390f35b6103bf6004803603604081101561038957600080fd5b81019080803573ffffffffffffffffffffffffffffffffffffffff16906020019092919080359060200190929190505050610a50565b604051808215151515815260200191505060405180910390f35b61041b600480360360208110156103ef57600080fd5b81019080803573ffffffffffffffffffffffffffffffffffffffff169060200190929190505050610b03565b6040518082815260200191505060405180910390f35b610439610b15565b005b610443610c9d565b604051808273ffffffffffffffffffffffffffffffffffffffff1673ffffffffffffffffffffffffffffffffffffffff16815260200191505060405180910390f35b61048d610cc6565b6040518082815260200191505060405180910390f35b6104ab610ccc565b6040518080602001828103825283818151815260200191508051906020019080838360005b838110156104eb5780820151818401526020810190506104d0565b50505050905090810190601f1680156105185780820380516001836020036101000a031916815260200191505b509250505060405180910390f35b61052e610d6e565b6040518082815260200191505060405180910390f35b6105906004803603604081101561055a57600080fd5b81019080803573ffffffffffffffffffffffffffffffffffffffff16906020019092919080359060200190929190505050610d74565b604051808215151515815260200191505060405180910390f35b6105f6600480360360408110156105c057600080fd5b81019080803573ffffffffffffffffffffffffffffffffffffffff16906020019092919080359060200190929190505050610e41565b604051808215151515815260200191505060405180910390f35b610618610e5f565b604051808215151515815260200191505060405180910390f35b6106746004803603602081101561064857600080fd5b81019080803573ffffffffffffffffffffffffffffffffffffffff169060200190929190505050610fb6565b6040518082815260200191505060405180910390f35b6106926110c9565b6040518082815260200191505060405180910390f35b61070a600480360360408110156106be57600080fd5b81019080803573ffffffffffffffffffffffffffffffffffffffff169060200190929190803573ffffffffffffffffffffffffffffffffffffffff1690602001909291905050506110cf565b6040518082815260200191505060405180910390f35b6107626004803603602081101561073657600080fd5b81019080803573ffffffffffffffffffffffffffffffffffffffff169060200190929190505050611156565b005b606060048054600181600116156101000203166002900480601f0160208091040260200160405190810160405280929190818152602001828054600181600116156101000203166002900480156107fc5780601f106107d1576101008083540402835291602001916107fc565b820191906000526020600020905b8154815290600101906020018083116107df57829003601f168201915b5050505050905090565b600061081a610813611363565b848461136b565b6001905092915050565b6000600354905090565b620f42408111610889576040517f08c379a000000000000000000000000000000000000000000000000000000000815260040180806020018281038252602a81526020018061243b602a913960400191505060405180910390fd5b8061089333611562565b1015610907576040517f08c379a000000000000000000000000000000000000000000000000000000000815260040180806020018281038252601a8152602001807f43726f776e733a204e6f7420656e6f7567682062616c616e636500000000000081525060200191505060405180910390fd5b61091133826115e7565b50565b6000610921848484611996565b6109e28461092d611363565b6109dd8560405180606001604052806028815260200161241360289139600260008b73ffffffffffffffffffffffffffffffffffffffff1673ffffffffffffffffffffffffffffffffffffffff1681526020019081526020016000206000610993611363565b73ffffffffffffffffffffffffffffffffffffffff1673ffffffffffffffffffffffffffffffffffffffff1681526020019081526020016000205461203f9092919063ffffffff16565b61136b565b600190509392505050565b6000600160008373ffffffffffffffffffffffffffffffffffffffff1673ffffffffffffffffffffffffffffffffffffffff168152602001908152602001600020600101549050919050565b6000600660009054906101000a900460ff16905090565b6000610af9610a5d611363565b84610af48560026000610a6e611363565b73ffffffffffffffffffffffffffffffffffffffff1673ffffffffffffffffffffffffffffffffffffffff16815260200190815260200160002060008973ffffffffffffffffffffffffffffffffffffffff1673ffffffffffffffffffffffffffffffffffffffff168152602001908152602001600020546120ff90919063ffffffff16565b61136b565b6001905092915050565b6000610b0e82611562565b9050919050565b610b1d611363565b73ffffffffffffffffffffffffffffffffffffffff166000809054906101000a900473ffffffffffffffffffffffffffffffffffffffff1673ffffffffffffffffffffffffffffffffffffffff1614610bde576040517f08c379a00000000000000000000000000000000000000000000000000000000081526004018080602001828103825260208152602001807f4f776e61626c653a2063616c6c6572206973206e6f7420746865206f776e657281525060200191505060405180910390fd5b600073ffffffffffffffffffffffffffffffffffffffff166000809054906101000a900473ffffffffffffffffffffffffffffffffffffffff1673ffffffffffffffffffffffffffffffffffffffff167f8be0079c531659141344cd1fd0a4f28419497f9722a3daafe3b4186f6b6457e060405160405180910390a360008060006101000a81548173ffffffffffffffffffffffffffffffffffffffff021916908373ffffffffffffffffffffffffffffffffffffffff160217905550565b60008060009054906101000a900473ffffffffffffffffffffffffffffffffffffffff16905090565b60075481565b606060058054600181600116156101000203166002900480601f016020809104026020016040519081016040528092919081815260200182805460018160011615610100020316600290048015610d645780601f10610d3957610100808354040283529160200191610d64565b820191906000526020600020905b815481529060010190602001808311610d4757829003601f168201915b5050505050905090565b60085481565b6000610e37610d81611363565b84610e32856040518060600160405280602581526020016124cf6025913960026000610dab611363565b73ffffffffffffffffffffffffffffffffffffffff1673ffffffffffffffffffffffffffffffffffffffff16815260200190815260200160002060008a73ffffffffffffffffffffffffffffffffffffffff1673ffffffffffffffffffffffffffffffffffffffff1681526020019081526020016000205461203f9092919063ffffffff16565b61136b565b6001905092915050565b6000610e55610e4e611363565b8484611996565b6001905092915050565b6000610e69611363565b73ffffffffffffffffffffffffffffffffffffffff166000809054906101000a900473ffffffffffffffffffffffffffffffffffffffff1673ffffffffffffffffffffffffffffffffffffffff1614610f2a576040517f08c379a00000000000000000000000000000000000000000000000000000000081526004018080602001828103825260208152602001807f4f776e61626c653a2063616c6c6572206973206e6f7420746865206f776e657281525060200191505060405180910390fd5b610f416008546009546120ff90919063ffffffff16565b600981905550610f5e6008546007546120ff90919063ffffffff16565b60078190555060006008819055507f11c6bf55864ff83827df712625d7a80e5583eef0264921025e7cd22003a21511600854600954604051808381526020018281526020019250505060405180910390a16001905090565b6000610fc061236c565b600160008473ffffffffffffffffffffffffffffffffffffffff1673ffffffffffffffffffffffffffffffffffffffff168152602001908152602001600020604051806040016040529081600082015481526020016001820154815250509050600061103b826020015160095461218790919063ffffffff16565b905060006110568284600001516121d190919063ffffffff16565b9050600061106f8360035461218790919063ffffffff16565b905060006110ba670de0b6b3a76400006110ac8461109e670de0b6b3a7640000886121d190919063ffffffff16565b61225790919063ffffffff16565b61225790919063ffffffff16565b90508095505050505050919050565b60095481565b6000600260008473ffffffffffffffffffffffffffffffffffffffff1673ffffffffffffffffffffffffffffffffffffffff16815260200190815260200160002060008373ffffffffffffffffffffffffffffffffffffffff1673ffffffffffffffffffffffffffffffffffffffff16815260200190815260200160002054905092915050565b61115e611363565b73ffffffffffffffffffffffffffffffffffffffff166000809054906101000a900473ffffffffffffffffffffffffffffffffffffffff1673ffffffffffffffffffffffffffffffffffffffff161461121f576040517f08c379a00000000000000000000000000000000000000000000000000000000081526004018080602001828103825260208152602001807f4f776e61626c653a2063616c6c6572206973206e6f7420746865206f776e657281525060200191505060405180910390fd5b600073ffffffffffffffffffffffffffffffffffffffff168173ffffffffffffffffffffffffffffffffffffffff1614156112a5576040517f08c379a00000000000000000000000000000000000000000000000000000000081526004018080602001828103825260268152602001806123aa6026913960400191505060405180910390fd5b8073ffffffffffffffffffffffffffffffffffffffff166000809054906101000a900473ffffffffffffffffffffffffffffffffffffffff1673ffffffffffffffffffffffffffffffffffffffff167f8be0079c531659141344cd1fd0a4f28419497f9722a3daafe3b4186f6b6457e060405160405180910390a3806000806101000a81548173ffffffffffffffffffffffffffffffffffffffff021916908373ffffffffffffffffffffffffffffffffffffffff16021790555050565b600033905090565b600073ffffffffffffffffffffffffffffffffffffffff168373ffffffffffffffffffffffffffffffffffffffff1614156113f1576040517f08c379a00000000000000000000000000000000000000000000000000000000081526004018080602001828103825260248152602001806124ab6024913960400191505060405180910390fd5b600073ffffffffffffffffffffffffffffffffffffffff168273ffffffffffffffffffffffffffffffffffffffff161415611477576040517f08c379a00000000000000000000000000000000000000000000000000000000081526004018080602001828103825260228152602001806123d06022913960400191505060405180910390fd5b80600260008573ffffffffffffffffffffffffffffffffffffffff1673ffffffffffffffffffffffffffffffffffffffff16815260200190815260200160002060008473ffffffffffffffffffffffffffffffffffffffff1673ffffffffffffffffffffffffffffffffffffffff168152602001908152602001600020819055508173ffffffffffffffffffffffffffffffffffffffff168373ffffffffffffffffffffffffffffffffffffffff167f8c5be1e5ebec7d5bd14f71427d1e84f3dd0314c0f7b2291e5b200ac8c7c3b925836040518082815260200191505060405180910390a3505050565b600080600160008473ffffffffffffffffffffffffffffffffffffffff1673ffffffffffffffffffffffffffffffffffffffff16815260200190815260200160002060000154905060008114156115bd5760009150506115e2565b60006115c884610fb6565b90506115dd81836120ff90919063ffffffff16565b925050505b919050565b8160006115f382610fb6565b9050600954600160008473ffffffffffffffffffffffffffffffffffffffff1673ffffffffffffffffffffffffffffffffffffffff1681526020019081526020016000206001018190555060008111156117645761169c81600160008573ffffffffffffffffffffffffffffffffffffffff1673ffffffffffffffffffffffffffffffffffffffff168152602001908152602001600020600001546120ff90919063ffffffff16565b600160008473ffffffffffffffffffffffffffffffffffffffff1673ffffffffffffffffffffffffffffffffffffffff168152602001908152602001600020600001819055506116f78160075461218790919063ffffffff16565b6007819055508173ffffffffffffffffffffffffffffffffffffffff16600073ffffffffffffffffffffffffffffffffffffffff167fddf252ad1be2c89b69c2b068fc378daa952ba7f163c4a11628f55a4df523b3ef836040518082815260200191505060405180910390a35b600073ffffffffffffffffffffffffffffffffffffffff168473ffffffffffffffffffffffffffffffffffffffff1614156117ea576040517f08c379a00000000000000000000000000000000000000000000000000000000081526004018080602001828103825260218152602001806124656021913960400191505060405180910390fd5b826117f485611562565b1015611868576040517f08c379a000000000000000000000000000000000000000000000000000000000815260040180806020018281038252601f8152602001807f45524332303a204e6f7420656e6f75676820746f6b656e20746f206275726e0081525060200191505060405180910390fd5b611874846000856122a1565b6118c983600160008773ffffffffffffffffffffffffffffffffffffffff1673ffffffffffffffffffffffffffffffffffffffff1681526020019081526020016000206000015461218790919063ffffffff16565b600160008673ffffffffffffffffffffffffffffffffffffffff1673ffffffffffffffffffffffffffffffffffffffff16815260200190815260200160002060000181905550611924836008546120ff90919063ffffffff16565b600881905550600073ffffffffffffffffffffffffffffffffffffffff168473ffffffffffffffffffffffffffffffffffffffff167fddf252ad1be2c89b69c2b068fc378daa952ba7f163c4a11628f55a4df523b3ef856040518082815260200191505060405180910390a350505050565b8260006119a282610fb6565b9050600954600160008473ffffffffffffffffffffffffffffffffffffffff1673ffffffffffffffffffffffffffffffffffffffff168152602001908152602001600020600101819055506000811115611b1357611a4b81600160008573ffffffffffffffffffffffffffffffffffffffff1673ffffffffffffffffffffffffffffffffffffffff168152602001908152602001600020600001546120ff90919063ffffffff16565b600160008473ffffffffffffffffffffffffffffffffffffffff1673ffffffffffffffffffffffffffffffffffffffff16815260200190815260200160002060000181905550611aa68160075461218790919063ffffffff16565b6007819055508173ffffffffffffffffffffffffffffffffffffffff16600073ffffffffffffffffffffffffffffffffffffffff167fddf252ad1be2c89b69c2b068fc378daa952ba7f163c4a11628f55a4df523b3ef836040518082815260200191505060405180910390a35b836000611b1f82610fb6565b9050600954600160008473ffffffffffffffffffffffffffffffffffffffff1673ffffffffffffffffffffffffffffffffffffffff168152602001908152602001600020600101819055506000811115611c9057611bc881600160008573ffffffffffffffffffffffffffffffffffffffff1673ffffffffffffffffffffffffffffffffffffffff168152602001908152602001600020600001546120ff90919063ffffffff16565b600160008473ffffffffffffffffffffffffffffffffffffffff1673ffffffffffffffffffffffffffffffffffffffff16815260200190815260200160002060000181905550611c238160075461218790919063ffffffff16565b6007819055508173ffffffffffffffffffffffffffffffffffffffff16600073ffffffffffffffffffffffffffffffffffffffff167fddf252ad1be2c89b69c2b068fc378daa952ba7f163c4a11628f55a4df523b3ef836040518082815260200191505060405180910390a35b600073ffffffffffffffffffffffffffffffffffffffff168773ffffffffffffffffffffffffffffffffffffffff161415611d16576040517f08c379a00000000000000000000000000000000000000000000000000000000081526004018080602001828103825260258152602001806124866025913960400191505060405180910390fd5b600073ffffffffffffffffffffffffffffffffffffffff168673ffffffffffffffffffffffffffffffffffffffff161415611d9c576040517f08c379a00000000000000000000000000000000000000000000000000000000081526004018080602001828103825260238152602001806123876023913960400191505060405180910390fd5b60008511611e12576040517f08c379a00000000000000000000000000000000000000000000000000000000081526004018080602001828103825260148152602001807f43616e206e6f742073656e64203020746f6b656e00000000000000000000000081525060200191505060405180910390fd5b84611e1c88611562565b1015611e90576040517f08c379a000000000000000000000000000000000000000000000000000000000815260040180806020018281038252601f8152602001807f45524332303a204e6f7420656e6f75676820746f6b656e20746f2073656e640081525060200191505060405180910390fd5b611e9b8787876122a1565b611ef085600160008a73ffffffffffffffffffffffffffffffffffffffff1673ffffffffffffffffffffffffffffffffffffffff1681526020019081526020016000206000015461218790919063ffffffff16565b600160008973ffffffffffffffffffffffffffffffffffffffff1673ffffffffffffffffffffffffffffffffffffffff16815260200190815260200160002060000181905550611f8b85600160008973ffffffffffffffffffffffffffffffffffffffff1673ffffffffffffffffffffffffffffffffffffffff168152602001908152602001600020600001546120ff90919063ffffffff16565b600160008873ffffffffffffffffffffffffffffffffffffffff1673ffffffffffffffffffffffffffffffffffffffff168152602001908152602001600020600001819055508573ffffffffffffffffffffffffffffffffffffffff168773ffffffffffffffffffffffffffffffffffffffff167fddf252ad1be2c89b69c2b068fc378daa952ba7f163c4a11628f55a4df523b3ef876040518082815260200191505060405180910390a350505050505050565b60008383111582906120ec576040517f08c379a00000000000000000000000000000000000000000000000000000000081526004018080602001828103825283818151815260200191508051906020019080838360005b838110156120b1578082015181840152602081019050612096565b50505050905090810190601f1680156120de5780820380516001836020036101000a031916815260200191505b509250505060405180910390fd5b5060008385039050809150509392505050565b60008082840190508381101561217d576040517f08c379a000000000000000000000000000000000000000000000000000000000815260040180806020018281038252601b8152602001807f536166654d6174683a206164646974696f6e206f766572666c6f77000000000081525060200191505060405180910390fd5b8091505092915050565b60006121c983836040518060400160405280601e81526020017f536166654d6174683a207375627472616374696f6e206f766572666c6f77000081525061203f565b905092915050565b6000808314156121e45760009050612251565b60008284029050828482816121f557fe5b041461224c576040517f08c379a00000000000000000000000000000000000000000000000000000000081526004018080602001828103825260218152602001806123f26021913960400191505060405180910390fd5b809150505b92915050565b600061229983836040518060400160405280601a81526020017f536166654d6174683a206469766973696f6e206279207a65726f0000000000008152506122a6565b905092915050565b505050565b60008083118290612352576040517f08c379a00000000000000000000000000000000000000000000000000000000081526004018080602001828103825283818151815260200191508051906020019080838360005b838110156123175780820151818401526020810190506122fc565b50505050905090810190601f1680156123445780820380516001836020036101000a031916815260200191505b509250505060405180910390fd5b50600083858161235e57fe5b049050809150509392505050565b60405180604001604052806000815260200160008152509056fe45524332303a207472616e7366657220746f20746865207a65726f20616464726573734f776e61626c653a206e6577206f776e657220697320746865207a65726f206164647265737345524332303a20617070726f766520746f20746865207a65726f2061646472657373536166654d6174683a206d756c7469706c69636174696f6e206f766572666c6f7745524332303a207472616e7366657220616d6f756e74206578636565647320616c6c6f77616e636543726f776e733a20747279696e6720746f207370656e64206c657373207468616e20657870656374656445524332303a206275726e2066726f6d20746865207a65726f206164647265737345524332303a207472616e736665722066726f6d20746865207a65726f206164647265737345524332303a20617070726f76652066726f6d20746865207a65726f206164647265737345524332303a2064656372656173656420616c6c6f77616e63652062656c6f77207a65726fa2646970667358221220aab3e2774edc0b75ffeb6e8ee4822147b19ead4440e988219254da916176cf2464736f6c634300060700334f776e61626c653a206e6577206f776e657220697320746865207a65726f2061646472657373",
  "immutableReferences": {},
  "source": "// contracts/Crowns.sol\r\n// SPDX-License-Identifier: MIT\r\npragma solidity 0.6.7;\r\n\r\nimport \"./../openzeppelin/contracts/access/Ownable.sol\";\r\nimport \"./../openzeppelin/contracts/GSN/Context.sol\";\r\nimport \"./../openzeppelin/contracts/token/ERC20/IERC20.sol\";\r\nimport \"./../openzeppelin/contracts/math/SafeMath.sol\";\r\nimport \"./../openzeppelin/contracts/utils/Address.sol\";\r\n\r\n/// @title Official token of Blocklords and the Seascape ecosystem.\r\n/// @author Medet Ahmetson\r\n/// @notice Crowns (CWS) is an ERC-20 token with a Rebase feature.\r\n/// Rebasing is a distribution of spent tokens among all current token holders.\r\n/// In order to appear in balance, rebased tokens need to be claimed by users by triggering transaction with the ERC-20 contract.\r\n/// @dev Implementation of the {IERC20} interface.\r\ncontract CrownsToken is Context, IERC20, Ownable {\r\n    using SafeMath for uint256;\r\n    using Address for address;\r\n\r\n    struct Account {\r\n        uint256 balance;\r\n        uint256 lastRebase;\r\n    }\r\n\r\n    mapping (address => Account) private _accounts;\r\n    mapping (address => mapping (address => uint256)) private _allowances;\r\n\r\n    uint256 private _totalSupply;\r\n\r\n    string private _name;\r\n    string private _symbol;\r\n    uint8 private _decimals;\r\n\r\n    uint256 private constant _minSpend = 10 ** 6;\r\n    uint256 private constant _decimalFactor = 10 ** 18;\r\n    uint256 private constant _million = 1000000;\r\n\r\n    /// @notice Total amount of tokens that have yet to be transferred to token holders as part of a rebase.\r\n    /// @dev Used Variable tracking unclaimed rebase token amounts.\r\n    uint256 public unclaimedRebase = 0;\r\n    /// @notice Amount of tokens spent by users that have not been rebased yet.\r\n    /// @dev Calling the rebase function will move the amount to {totalRebase}\r\n    uint256 public unconfirmedRebase = 0;\r\n    /// @notice Total amount of tokens that were rebased overall.\r\n    /// @dev Total aggregate rebase amount that is always increasing.\r\n    uint256 public totalRebase = 0;\r\n\r\n    /**\r\n     * @dev Sets the {name} and {symbol} of token.\r\n     * Initializes {decimals} with a default value of 18.\r\n     * Mints all tokens.\r\n     * Transfers ownership to another account. So, the token creator will not be counted as an owner.\r\n     */\r\n    constructor () public {\r\n        _name = \"Crowns\";\r\n        _symbol = \"CWS\";\r\n        _decimals = 18;\r\n\r\n        // Grant the minter roles to a specified account\r\n        address inGameAirdropper     = 0xFa4D7D1AC9b7a7454D09B8eAdc35aA70599329EA;\r\n        address rechargeDexManager   = 0x53bd91aEF5e84A61F9B87781A024ee648733f973;\r\n        address teamManager          = 0xB5de2b5186E1Edc947B73019F3102EF53c2Ac691;\r\n        address investManager        = 0x1D3Db9BCA5aa2CE931cE13B7B51f8E14F5895368;\r\n        address communityManager     = 0x0811e2DFb6482507461ca2Ab583844313f2549B5;\r\n        address newOwner             = msg.sender;\r\n\r\n        // 3 million tokens\r\n        uint256 inGameAirdrop        = 3 * _million * _decimalFactor;\r\n        uint256 rechargeDex          = inGameAirdrop;\r\n        // 1 million tokens\r\n        uint256 teamAllocation       = 1 * _million * _decimalFactor;\r\n        uint256 investment           = teamAllocation;\r\n        // 750,000 tokens\r\n        uint256 communityBounty      = 750000 * _decimalFactor;\r\n        // 1,25 million tokens\r\n        uint256 inGameReserve        = 1250000 * _decimalFactor; // reserve for the next 5 years.\r\n\r\n        _mint(inGameAirdropper,      inGameAirdrop);\r\n        _mint(rechargeDexManager,    rechargeDex);\r\n        _mint(teamManager,           teamAllocation);\r\n        _mint(investManager,         investment);\r\n        _mint(communityManager,      communityBounty);\r\n        _mint(newOwner,              inGameReserve);\r\n\r\n        transferOwnership(newOwner);\r\n   }\r\n\r\n    /**\r\n     * @notice Return amount of tokens that {account} gets during rebase\r\n     * @dev Used both internally and externally to calculate the rebase amount\r\n     * @param account is an address of token holder to calculate for\r\n     * @return amount of tokens that player could get\r\n     */\r\n    function rebaseOwing (address account) public view returns(uint256) {\r\n        Account memory _account = _accounts[account];\r\n\r\n        uint256 newRebase = totalRebase.sub(_account.lastRebase);\r\n        uint256 proportion = _account.balance.mul(newRebase);\r\n\r\n        // The rebase is not a part of total supply, since it was moved out of balances\r\n        uint256 supply = _totalSupply.sub(newRebase);\r\n\r\n        // rebase owed proportional to current balance of the account.\r\n        // The decimal factor is used to avoid floating issue.\r\n        uint256 rebase = proportion.mul(_decimalFactor).div(supply).div(_decimalFactor);\r\n\r\n        return rebase;\r\n    }\r\n\r\n    /**\r\n     * @dev Called before any edit of {account} balance.\r\n     * Modifier moves the belonging rebase amount to its balance.\r\n     * @param account is an address of Token holder.\r\n     */\r\n    modifier updateAccount(address account) {\r\n        uint256 owing = rebaseOwing(account);\r\n        _accounts[account].lastRebase = totalRebase;\r\n\r\n        if (owing > 0) {\r\n            _accounts[account].balance    = _accounts[account].balance.add(owing);\r\n            unclaimedRebase     = unclaimedRebase.sub(owing);\r\n\r\n            emit Transfer(\r\n                address(0),\r\n                account,\r\n                owing\r\n            );\r\n        }\r\n\r\n        _;\r\n    }\r\n\r\n    /**\r\n     * @dev Returns the name of the token.\r\n     */\r\n    function name() public view returns (string memory) {\r\n        return _name;\r\n    }\r\n\r\n    /**\r\n     * @dev Returns the symbol of the token, usually a shorter version of the\r\n     * name.\r\n     */\r\n    function symbol() public view returns (string memory) {\r\n        return _symbol;\r\n    }\r\n\r\n    /**\r\n     * @dev Returns the number of decimals used to get its user representation.\r\n     * For example, if `decimals` equals `2`, a balance of `505` tokens should\r\n     * be displayed to a user as `5,05` (`505 / 10 ** 2`).\r\n     *\r\n     * NOTE: This information is only used for _display_ purposes: it in\r\n     * no way affects any of the arithmetic of the contract, including\r\n     * {IERC20-balanceOf} and {IERC20-transfer}.\r\n     */\r\n    function decimals() public view returns (uint8) {\r\n        return _decimals;\r\n    }\r\n\r\n    /**\r\n     * @dev Returns the amount of tokens in existence.\r\n     */\r\n    function totalSupply() public view override returns (uint256) {\r\n        return _totalSupply;\r\n    }\r\n\r\n    /**\r\n     * @dev Returns the amount of tokens owned by `account`.\r\n     */\r\n    function balanceOf(address account) public view override returns (uint256) {\r\n        return _getBalance(account);\r\n    }\r\n\r\n    /**\r\n     * @dev Moves `amount` tokens from the caller's account to `recipient`.\r\n     *\r\n     * Returns a boolean value indicating whether the operation succeeded.\r\n     *\r\n     * Emits a {Transfer} event.\r\n     */\r\n    function transfer(address recipient, uint256 amount) public virtual override returns (bool) {\r\n        _transfer(_msgSender(), recipient, amount);\r\n        return true;\r\n    }\r\n\r\n    /**\r\n     * @dev Returns the remaining number of tokens that `spender` will be\r\n     * allowed to spend on behalf of `owner` through {transferFrom}. This is\r\n     * zero by default.\r\n     *\r\n     * This value changes when {approve} or {transferFrom} are called.\r\n     */\r\n    function allowance(address owner, address spender) public view virtual override returns (uint256) {\r\n        return _allowances[owner][spender];\r\n    }\r\n\r\n    /**\r\n     * @dev Sets `amount` as the allowance of `spender` over the caller's tokens.\r\n     *\r\n     * Returns a boolean value indicating whether the operation succeeded.\r\n     *\r\n     * IMPORTANT: Beware that changing an allowance with this method brings the risk\r\n     * that someone may use both the old and the new allowance by unfortunate\r\n     * transaction ordering. One possible solution to mitigate this race\r\n     * condition is to first reduce the spender's allowance to 0 and set the\r\n     * desired value afterwards:\r\n     * https://github.com/ethereum/EIPs/issues/20#issuecomment-263524729\r\n     *\r\n     * Emits an {Approval} event.\r\n     */\r\n    function approve(address spender, uint256 amount) public virtual override returns (bool) {\r\n        _approve(_msgSender(), spender, amount);\r\n        return true;\r\n    }\r\n\r\n    /**\r\n     * @dev Moves `amount` tokens from `sender` to `recipient` using the\r\n     * allowance mechanism. `amount` is then deducted from the caller's\r\n     * allowance.\r\n     *\r\n     * Returns a boolean value indicating whether the operation succeeded.\r\n     *\r\n     * Emits a {Transfer} event.\r\n     */\r\n    function transferFrom(address sender, address recipient, uint256 amount) public virtual override returns (bool) {\r\n        _transfer(sender, recipient, amount);\r\n        _approve(sender, _msgSender(), _allowances[sender][_msgSender()].sub(amount, \"ERC20: transfer amount exceeds allowance\"));\r\n        return true;\r\n    }\r\n\r\n    /**\r\n     * @dev Atomically increases the allowance granted to `spender` by the caller.\r\n     *\r\n     * This is an alternative to {approve} that can be used as a mitigation for\r\n     * problems described in {IERC20-approve}.\r\n     *\r\n     * Emits an {Approval} event indicating the updated allowance.\r\n     *\r\n     * Requirements:\r\n     *\r\n     * - `spender` cannot be the zero address.\r\n     */\r\n    function increaseAllowance(address spender, uint256 addedValue) public virtual returns (bool) {\r\n        _approve(_msgSender(), spender, _allowances[_msgSender()][spender].add(addedValue));\r\n        return true;\r\n    }\r\n\r\n    /**\r\n     * @dev Atomically decreases the allowance granted to `spender` by the caller.\r\n     *\r\n     * This is an alternative to {approve} that can be used as a mitigation for\r\n     * problems described in {IERC20-approve}.\r\n     *\r\n     * Emits an {Approval} event indicating the updated allowance.\r\n     *\r\n     * Requirements:\r\n     *\r\n     * - `spender` cannot be the zero address.\r\n     * - `spender` must have allowance for the caller of at least\r\n     * `subtractedValue`.\r\n     */\r\n    function decreaseAllowance(address spender, uint256 subtractedValue) public virtual returns (bool) {\r\n        _approve(_msgSender(), spender, _allowances[_msgSender()][spender].sub(subtractedValue, \"ERC20: decreased allowance below zero\"));\r\n        return true;\r\n    }\r\n\r\n    /**\r\n     * @dev Moves tokens `amount` from `sender` to `recipient`.\r\n     *\r\n     * This is internal function is equivalent to {transfer}, and can be used to\r\n     * e.g. implement automatic token fees, slashing mechanisms, etc.\r\n     *\r\n     * Emits a {Transfer} event.\r\n     *\r\n     * Requirements:\r\n     *\r\n     * - `sender` cannot be the zero address.\r\n     * - `recipient` cannot be the zero address.\r\n     * - `sender` must have a balance of at least `amount`.\r\n     */\r\n    function _transfer(address sender, address recipient, uint256 amount) internal updateAccount(sender) updateAccount(recipient) virtual {\r\n        require(sender != address(0), \"ERC20: transfer from the zero address\");\r\n        require(recipient != address(0), \"ERC20: transfer to the zero address\");\r\n        require(amount > 0, \"Can not send 0 token\");\r\n        require(_getBalance(sender) >= amount, \"ERC20: Not enough token to send\");\r\n\r\n        _beforeTokenTransfer(sender, recipient, amount);\r\n\r\n        _accounts[sender].balance =  _accounts[sender].balance.sub(amount);\r\n        _accounts[recipient].balance = _accounts[recipient].balance.add(amount);\r\n\r\n        emit Transfer(sender, recipient, amount);\r\n    }\r\n\r\n    /** @dev Creates `amount` tokens and assigns them to `account`, increasing\r\n     * the total supply.\r\n     *\r\n     * Emits a {Transfer} event with `from` set to the zero address.\r\n     *\r\n     * Requirements\r\n     *\r\n     * - `to` cannot be the zero address.\r\n     */\r\n    function _mint(address account, uint256 amount) internal virtual {\r\n        require(account != address(0), \"ERC20: mint to the zero address\");\r\n\r\n        _beforeTokenTransfer(address(0), account, amount);\r\n\r\n        _totalSupply = _totalSupply.add(amount);\r\n        _accounts[account].balance = _accounts[account].balance.add(amount);\r\n        emit Transfer(address(0), account, amount);\r\n    }\r\n\r\n    /**\r\n     * @dev Moves `amount` tokens from `account` to {unconfirmedRebase} without reducing the\r\n     * total supply. Will be rebased among token holders.\r\n     *\r\n     * Emits a {Transfer} event with `to` set to the zero address.\r\n     *\r\n     * Requirements\r\n     *\r\n     * - `account` cannot be the zero address.\r\n     * - `account` must have at least `amount` tokens.\r\n     */\r\n    function _burn(address account, uint256 amount) internal updateAccount(account) virtual {\r\n        require(account != address(0), \"ERC20: burn from the zero address\");\r\n        require(_getBalance(account) >= amount, \"ERC20: Not enough token to burn\");\r\n\r\n        _beforeTokenTransfer(account, address(0), amount);\r\n\r\n        _accounts[account].balance = _accounts[account].balance.sub(amount);\r\n\r\n        unconfirmedRebase = unconfirmedRebase.add(amount);\r\n\r\n        emit Transfer(account, address(0), amount);\r\n    }\r\n\r\n    /**\r\n     * @dev Sets `amount` as the allowance of `spender` over the `owner`s tokens.\r\n     *\r\n     * This is internal function is equivalent to `approve`, and can be used to\r\n     * e.g. set automatic allowances for certain subsystems, etc.\r\n     *\r\n     * Emits an {Approval} event.\r\n     *\r\n     * Requirements:\r\n     *\r\n     * - `owner` cannot be the zero address.\r\n     * - `spender` cannot be the zero address.\r\n     */\r\n    function _approve(address owner, address spender, uint256 amount) internal virtual {\r\n        require(owner != address(0), \"ERC20: approve from the zero address\");\r\n        require(spender != address(0), \"ERC20: approve to the zero address\");\r\n\r\n        _allowances[owner][spender] = amount;\r\n        emit Approval(owner, spender, amount);\r\n    }\r\n\r\n    /**\r\n     * @dev Hook that is called before any transfer of tokens. This includes\r\n     * minting and burning.\r\n     *\r\n     * Calling conditions:\r\n     *\r\n     * - when `from` and `to` are both non-zero, `amount` of ``from``'s tokens\r\n     * will be to transferred to `to`.\r\n     * - when `from` is zero, `amount` tokens will be minted for `to`.\r\n     * - when `to` is zero, `amount` of ``from``'s tokens will be burned.\r\n     * - `from` and `to` are never both zero.\r\n     *\r\n     * To learn more about hooks, head to xref:ROOT:extending-contracts.adoc#using-hooks[Using Hooks].\r\n     */\r\n    function _beforeTokenTransfer(address from, address to, uint256 amount) internal virtual { }\r\n\r\n    /**\r\n     * @notice Spend some token from caller's balance in the game.\r\n     * @dev Moves `amount` of token from caller to `unconfirmedRebase`.\r\n     * @param amount Amount of token used to spend\r\n     */\r\n    function spend(uint256 amount) public {\r\n        require(amount > _minSpend, \"Crowns: trying to spend less than expected\");\r\n        require(_getBalance(msg.sender) >= amount, \"Crowns: Not enough balance\");\r\n\r\n        _burn(msg.sender, amount);\r\n    }\r\n\r\n    /**\r\n     * @notice Return the rebase amount, when `account` balance was updated.\r\n     */\r\n    function getLastRebase(address account) public view returns (uint256) {\r\n        return _accounts[account].lastRebase;\r\n    }\r\n\r\n    /**\r\n     * @dev Returns actual balance of account as a sum of owned divends and current balance.\r\n     * @param account Address of Token holder.\r\n     * @return Token amount\r\n     */\r\n    function _getBalance(address account) private view returns (uint256) {\r\n        uint256 balance = _accounts[account].balance;\r\n    \tif (balance == 0) {\r\n    \t\treturn 0;\r\n    \t}\r\n    \tuint256 owing = rebaseOwing(account);\r\n\r\n    \treturn balance.add(owing);\r\n    }\r\n\r\n    /**\r\n     * @dev Emitted when `spent` tokens are moved `unconfirmedRebase` to `totalRebase`.\r\n     */\r\n    event Rebase(\r\n        uint256 spent,\r\n        uint256 totalRebase\r\n    );\r\n\r\n    /**\r\n     * @notice Rebasing is a unique feature of Crowns (CWS) token. It redistributes tokens spenth within game among all token holders.\r\n     * @dev Moves tokens from {unconfirmedRebase} to {totalRebase}.\r\n     * Any account balance related functions will use {totalRebase} to calculate the dividend shares for each account.\r\n     *\r\n     * Emits a {Rebase} event.\r\n     */\r\n    function rebase() public onlyOwner() returns (bool) {\r\n    \ttotalRebase = totalRebase.add(unconfirmedRebase);\r\n    \tunclaimedRebase = unclaimedRebase.add(unconfirmedRebase);\r\n    \tunconfirmedRebase = 0;\r\n\r\n        emit Rebase (\r\n            unconfirmedRebase,\r\n            totalRebase\r\n        );\r\n\r\n        return true;\r\n    }\r\n}\r\n",
  "sourcePath": "/home/node/app/contracts/crowns/erc-20/contracts/CrownsToken/CrownsToken.sol",
  "compiler": {
    "name": "solc",
    "version": "0.6.7+commit.b8d736ae.Emscripten.clang"
  },
  "schemaVersion": "3.3.0",
  "updatedAt": "2020-10-29T19:41:00.131Z",
  "networkType": "ethereum",
  "devdoc": {
    "author": "Medet Ahmetson",
    "details": "Implementation of the {IERC20} interface.",
    "methods": {
      "allowance(address,address)": {
        "details": "Returns the remaining number of tokens that `spender` will be allowed to spend on behalf of `owner` through {transferFrom}. This is zero by default.      * This value changes when {approve} or {transferFrom} are called."
      },
      "approve(address,uint256)": {
        "details": "Sets `amount` as the allowance of `spender` over the caller's tokens.      * Returns a boolean value indicating whether the operation succeeded.      * IMPORTANT: Beware that changing an allowance with this method brings the risk that someone may use both the old and the new allowance by unfortunate transaction ordering. One possible solution to mitigate this race condition is to first reduce the spender's allowance to 0 and set the desired value afterwards: https://github.com/ethereum/EIPs/issues/20#issuecomment-263524729      * Emits an {Approval} event."
      },
      "balanceOf(address)": {
        "details": "Returns the amount of tokens owned by `account`."
      },
      "constructor": {
        "details": "Sets the {name} and {symbol} of token. Initializes {decimals} with a default value of 18. Mints all tokens. Transfers ownership to another account. So, the token creator will not be counted as an owner."
      },
      "decimals()": {
        "details": "Returns the number of decimals used to get its user representation. For example, if `decimals` equals `2`, a balance of `505` tokens should be displayed to a user as `5,05` (`505 / 10 ** 2`).      * NOTE: This information is only used for _display_ purposes: it in no way affects any of the arithmetic of the contract, including {IERC20-balanceOf} and {IERC20-transfer}."
      },
      "decreaseAllowance(address,uint256)": {
        "details": "Atomically decreases the allowance granted to `spender` by the caller.      * This is an alternative to {approve} that can be used as a mitigation for problems described in {IERC20-approve}.      * Emits an {Approval} event indicating the updated allowance.      * Requirements:      * - `spender` cannot be the zero address. - `spender` must have allowance for the caller of at least `subtractedValue`."
      },
      "increaseAllowance(address,uint256)": {
        "details": "Atomically increases the allowance granted to `spender` by the caller.      * This is an alternative to {approve} that can be used as a mitigation for problems described in {IERC20-approve}.      * Emits an {Approval} event indicating the updated allowance.      * Requirements:      * - `spender` cannot be the zero address."
      },
      "name()": {
        "details": "Returns the name of the token."
      },
      "owner()": {
        "details": "Returns the address of the current owner."
      },
      "rebase()": {
        "details": "Moves tokens from {unconfirmedRebase} to {totalRebase}. Any account balance related functions will use {totalRebase} to calculate the dividend shares for each account.      * Emits a {Rebase} event."
      },
      "rebaseOwing(address)": {
        "details": "Used both internally and externally to calculate the rebase amount",
        "params": {
          "account": "is an address of token holder to calculate for"
        },
        "returns": {
          "_0": "amount of tokens that player could get"
        }
      },
      "renounceOwnership()": {
        "details": "Leaves the contract without owner. It will not be possible to call `onlyOwner` functions anymore. Can only be called by the current owner.     * NOTE: Renouncing ownership will leave the contract without an owner, thereby removing any functionality that is only available to the owner."
      },
      "spend(uint256)": {
        "details": "Moves `amount` of token from caller to `unconfirmedRebase`.",
        "params": {
          "amount": "Amount of token used to spend"
        }
      },
      "symbol()": {
        "details": "Returns the symbol of the token, usually a shorter version of the name."
      },
      "totalSupply()": {
        "details": "Returns the amount of tokens in existence."
      },
      "transfer(address,uint256)": {
        "details": "Moves `amount` tokens from the caller's account to `recipient`.      * Returns a boolean value indicating whether the operation succeeded.      * Emits a {Transfer} event."
      },
      "transferFrom(address,address,uint256)": {
        "details": "Moves `amount` tokens from `sender` to `recipient` using the allowance mechanism. `amount` is then deducted from the caller's allowance.      * Returns a boolean value indicating whether the operation succeeded.      * Emits a {Transfer} event."
      },
      "transferOwnership(address)": {
        "details": "Transfers ownership of the contract to a new account (`newOwner`). Can only be called by the current owner."
      }
    },
    "title": "Official token of Blocklords and the Seascape ecosystem."
  },
  "userdoc": {
    "methods": {
      "getLastRebase(address)": {
        "notice": "Return the rebase amount, when `account` balance was updated."
      },
      "rebase()": {
        "notice": "Rebasing is a unique feature of Crowns (CWS) token. It redistributes tokens spenth within game among all token holders."
      },
      "rebaseOwing(address)": {
        "notice": "Return amount of tokens that {account} gets during rebase"
      },
      "spend(uint256)": {
        "notice": "Spend some token from caller's balance in the game."
      }
    },
    "notice": "Crowns (CWS) is an ERC-20 token with a Rebase feature. Rebasing is a distribution of spent tokens among all current token holders. In order to appear in balance, rebased tokens need to be claimed by users by triggering transaction with the ERC-20 contract."
  }
}