{
  "contractName": "Staking",
  "abi": [
    {
      "inputs": [
        {
          "internalType": "contract IERC20",
          "name": "_CWS",
          "type": "address"
        }
      ],
      "stateMutability": "nonpayable",
      "type": "constructor"
    },
    {
      "anonymous": false,
      "inputs": [
        {
          "indexed": true,
          "internalType": "address",
          "name": "stakingToken",
          "type": "address"
        },
        {
          "indexed": true,
          "internalType": "address",
          "name": "owner",
          "type": "address"
        },
        {
          "indexed": false,
          "internalType": "uint256",
          "name": "amount",
          "type": "uint256"
        },
        {
          "indexed": false,
          "internalType": "uint256",
          "name": "startTime",
          "type": "uint256"
        }
      ],
      "name": "Claimed",
      "type": "event"
    },
    {
      "anonymous": false,
      "inputs": [
        {
          "indexed": true,
          "internalType": "address",
          "name": "stakingToken",
          "type": "address"
        },
        {
          "indexed": true,
          "internalType": "address",
          "name": "owner",
          "type": "address"
        },
        {
          "indexed": false,
          "internalType": "uint256",
          "name": "amount",
          "type": "uint256"
        },
        {
          "indexed": false,
          "internalType": "uint256",
          "name": "startTime",
          "type": "uint256"
        },
        {
          "indexed": false,
          "internalType": "uint256",
          "name": "totalStaked",
          "type": "uint256"
        }
      ],
      "name": "Deposited",
      "type": "event"
    },
    {
      "anonymous": false,
      "inputs": [
        {
          "indexed": true,
          "internalType": "address",
          "name": "previousOwner",
          "type": "address"
        },
        {
          "indexed": true,
          "internalType": "address",
          "name": "newOwner",
          "type": "address"
        }
      ],
      "name": "OwnershipTransferred",
      "type": "event"
    },
    {
      "anonymous": false,
      "inputs": [
        {
          "indexed": true,
          "internalType": "address",
          "name": "stakingToken",
          "type": "address"
        },
        {
          "indexed": false,
          "internalType": "uint256",
          "name": "reward",
          "type": "uint256"
        },
        {
          "indexed": false,
          "internalType": "uint256",
          "name": "startTime",
          "type": "uint256"
        },
        {
          "indexed": false,
          "internalType": "uint256",
          "name": "endTime",
          "type": "uint256"
        },
        {
          "indexed": false,
          "internalType": "uint256",
          "name": "generation",
          "type": "uint256"
        }
      ],
      "name": "SessionStarted",
      "type": "event"
    },
    {
      "anonymous": false,
      "inputs": [
        {
          "indexed": true,
          "internalType": "address",
          "name": "stakingToken",
          "type": "address"
        },
        {
          "indexed": true,
          "internalType": "address",
          "name": "owner",
          "type": "address"
        },
        {
          "indexed": false,
          "internalType": "uint256",
          "name": "amount",
          "type": "uint256"
        },
        {
          "indexed": false,
          "internalType": "uint256",
          "name": "startTime",
          "type": "uint256"
        },
        {
          "indexed": false,
          "internalType": "uint256",
          "name": "totalStaked",
          "type": "uint256"
        }
      ],
      "name": "Withdrawn",
      "type": "event"
    },
    {
      "inputs": [],
      "name": "CWS",
      "outputs": [
        {
          "internalType": "contract IERC20",
          "name": "",
          "type": "address"
        }
      ],
      "stateMutability": "view",
      "type": "function",
      "constant": true
    },
    {
      "inputs": [
        {
          "internalType": "address",
          "name": "",
          "type": "address"
        },
        {
          "internalType": "address",
          "name": "",
          "type": "address"
        }
      ],
      "name": "balances",
      "outputs": [
        {
          "internalType": "uint256",
          "name": "amount",
          "type": "uint256"
        },
        {
          "internalType": "uint256",
          "name": "claimed",
          "type": "uint256"
        },
        {
          "internalType": "uint256",
          "name": "startTime",
          "type": "uint256"
        },
        {
          "internalType": "bool",
          "name": "minted",
          "type": "bool"
        }
      ],
      "stateMutability": "view",
      "type": "function",
      "constant": true
    },
    {
      "inputs": [
        {
          "internalType": "address",
          "name": "",
          "type": "address"
        },
        {
          "internalType": "address",
          "name": "",
          "type": "address"
        }
      ],
      "name": "depositTime",
      "outputs": [
        {
          "internalType": "uint256",
          "name": "",
          "type": "uint256"
        }
      ],
      "stateMutability": "view",
      "type": "function",
      "constant": true
    },
    {
      "inputs": [],
      "name": "owner",
      "outputs": [
        {
          "internalType": "address",
          "name": "",
          "type": "address"
        }
      ],
      "stateMutability": "view",
      "type": "function",
      "constant": true
    },
    {
      "inputs": [],
      "name": "renounceOwnership",
      "outputs": [],
      "stateMutability": "nonpayable",
      "type": "function"
    },
    {
      "inputs": [
        {
          "internalType": "address",
          "name": "",
          "type": "address"
        }
      ],
      "name": "sessions",
      "outputs": [
        {
          "internalType": "uint256",
          "name": "totalReward",
          "type": "uint256"
        },
        {
          "internalType": "uint256",
          "name": "period",
          "type": "uint256"
        },
        {
          "internalType": "uint256",
          "name": "startTime",
          "type": "uint256"
        },
        {
          "internalType": "uint256",
          "name": "generation",
          "type": "uint256"
        },
        {
          "internalType": "uint256",
          "name": "claimed",
          "type": "uint256"
        },
        {
          "internalType": "uint256",
          "name": "amount",
          "type": "uint256"
        },
        {
          "internalType": "uint256",
          "name": "rewardUnit",
          "type": "uint256"
        }
      ],
      "stateMutability": "view",
      "type": "function",
      "constant": true
    },
    {
      "inputs": [
        {
          "internalType": "address",
          "name": "newOwner",
          "type": "address"
        }
      ],
      "name": "transferOwnership",
      "outputs": [],
      "stateMutability": "nonpayable",
      "type": "function"
    },
    {
      "inputs": [
        {
          "internalType": "address",
          "name": "_tokenAddress",
          "type": "address"
        }
      ],
      "name": "withdrawCWS",
      "outputs": [],
      "stateMutability": "nonpayable",
      "type": "function"
    },
    {
      "inputs": [
        {
          "internalType": "address",
          "name": "_tokenAddress",
          "type": "address"
        },
        {
          "internalType": "uint256",
          "name": "_totalReward",
          "type": "uint256"
        },
        {
          "internalType": "uint256",
          "name": "_period",
          "type": "uint256"
        },
        {
          "internalType": "uint256",
          "name": "_startTime",
          "type": "uint256"
        },
        {
          "internalType": "uint256",
          "name": "_generation",
          "type": "uint256"
        }
      ],
      "name": "startSession",
      "outputs": [],
      "stateMutability": "nonpayable",
      "type": "function"
    },
    {
      "inputs": [
        {
          "internalType": "address",
          "name": "_address",
          "type": "address"
        }
      ],
      "name": "setNFTFactory",
      "outputs": [],
      "stateMutability": "nonpayable",
      "type": "function"
    },
    {
      "inputs": [
        {
          "internalType": "contract IERC20",
          "name": "_token",
          "type": "address"
        },
        {
          "internalType": "uint256",
          "name": "_amount",
          "type": "uint256"
        }
      ],
      "name": "deposit",
      "outputs": [],
      "stateMutability": "nonpayable",
      "type": "function"
    },
    {
      "inputs": [
        {
          "internalType": "address",
          "name": "_tokenAddress",
          "type": "address"
        }
      ],
      "name": "claim",
      "outputs": [],
      "stateMutability": "nonpayable",
      "type": "function"
    },
    {
      "inputs": [
        {
          "internalType": "address",
          "name": "_tokenAddress",
          "type": "address"
        },
        {
          "internalType": "address",
          "name": "_owner",
          "type": "address"
        }
      ],
      "name": "getInterest",
      "outputs": [
        {
          "internalType": "uint256",
          "name": "",
          "type": "uint256"
        },
        {
          "internalType": "uint256",
          "name": "",
          "type": "uint256"
        },
        {
          "internalType": "uint256",
          "name": "",
          "type": "uint256"
        },
        {
          "internalType": "uint256",
          "name": "",
          "type": "uint256"
        },
        {
          "internalType": "uint256",
          "name": "",
          "type": "uint256"
        },
        {
          "internalType": "uint256",
          "name": "",
          "type": "uint256"
        },
        {
          "internalType": "uint256",
          "name": "",
          "type": "uint256"
        }
      ],
      "stateMutability": "view",
      "type": "function",
      "constant": true
    },
    {
      "inputs": [
        {
          "internalType": "contract IERC20",
          "name": "_token",
          "type": "address"
        },
        {
          "internalType": "uint256",
          "name": "_amount",
          "type": "uint256"
        }
      ],
      "name": "withdraw",
      "outputs": [],
      "stateMutability": "nonpayable",
      "type": "function"
    },
    {
      "inputs": [
        {
          "internalType": "address",
          "name": "_tokenAddress",
          "type": "address"
        }
      ],
      "name": "claimNFT",
      "outputs": [],
      "stateMutability": "nonpayable",
      "type": "function"
    },
    {
      "inputs": [
        {
          "internalType": "address",
          "name": "_tokenAddress",
          "type": "address"
        },
        {
          "internalType": "address",
          "name": "_owner",
          "type": "address"
        }
      ],
      "name": "stakedBalanceOf",
      "outputs": [
        {
          "internalType": "uint256",
          "name": "",
          "type": "uint256"
        }
      ],
      "stateMutability": "view",
      "type": "function",
      "constant": true
    },
    {
      "inputs": [
        {
          "internalType": "address",
          "name": "_tokenAddress",
          "type": "address"
        },
        {
          "internalType": "address",
          "name": "_owner",
          "type": "address"
        }
      ],
      "name": "earned",
      "outputs": [
        {
          "internalType": "uint256",
          "name": "",
          "type": "uint256"
        }
      ],
      "stateMutability": "view",
      "type": "function",
      "constant": true
    },
    {
      "inputs": [
        {
          "internalType": "address",
          "name": "_tokenAddress",
          "type": "address"
        },
        {
          "internalType": "address",
          "name": "_owner",
          "type": "address"
        }
      ],
      "name": "claimable",
      "outputs": [
        {
          "internalType": "uint256",
          "name": "",
          "type": "uint256"
        }
      ],
      "stateMutability": "view",
      "type": "function",
      "constant": true
    },
    {
      "inputs": [
        {
          "internalType": "address",
          "name": "_tokenAddress",
          "type": "address"
        }
      ],
      "name": "stakedBalance",
      "outputs": [
        {
          "internalType": "uint256",
          "name": "",
          "type": "uint256"
        }
      ],
      "stateMutability": "view",
      "type": "function",
      "constant": true
    }
  ],
  "bytecode": "0x60806040526001805560006004553480156200001a57600080fd5b5060405162003a0438038062003a04833981810160405260208110156200004057600080fd5b81019080805190602001909291905050506000620000636200014960201b60201c565b9050806000806101000a81548173ffffffffffffffffffffffffffffffffffffffff021916908373ffffffffffffffffffffffffffffffffffffffff1602179055508073ffffffffffffffffffffffffffffffffffffffff16600073ffffffffffffffffffffffffffffffffffffffff167f8be0079c531659141344cd1fd0a4f28419497f9722a3daafe3b4186f6b6457e060405160405180910390a35080600360006101000a81548173ffffffffffffffffffffffffffffffffffffffff021916908373ffffffffffffffffffffffffffffffffffffffff1602179055505062000151565b600033905090565b6138a380620001616000396000f3fe608060405234801561001057600080fd5b50600436106101215760003560e01c80638da5cb5b116100ad578063d4570c1c11610071578063d4570c1c1461061d578063de50fbb714610695578063edd7ca6f146106d9578063f2fde38b1461077b578063f3fef3a3146107bf57610121565b80638da5cb5b14610442578063aa0ba3261461048c578063c23f001f14610504578063cb2d93ce14610595578063d10fdb5c146105d957610121565b806347e7ef24116100f457806347e7ef24146102dc57806358c721fc1461032a5780636021726714610374578063715018a6146103cc5780637d0c4d47146103d657610121565b806306bb1ff8146101265780631e83409a1461019e578063211dc32d146101e2578063431a1b971461025a575b600080fd5b6101886004803603604081101561013c57600080fd5b81019080803573ffffffffffffffffffffffffffffffffffffffff169060200190929190803573ffffffffffffffffffffffffffffffffffffffff16906020019092919050505061080d565b6040518082815260200191505060405180910390f35b6101e0600480360360208110156101b457600080fd5b81019080803573ffffffffffffffffffffffffffffffffffffffff169060200190929190505050610832565b005b610244600480360360408110156101f857600080fd5b81019080803573ffffffffffffffffffffffffffffffffffffffff169060200190929190803573ffffffffffffffffffffffffffffffffffffffff169060200190929190505050610b51565b6040518082815260200191505060405180910390f35b61029c6004803603602081101561027057600080fd5b81019080803573ffffffffffffffffffffffffffffffffffffffff169060200190929190505050610bfb565b6040518088815260200187815260200186815260200185815260200184815260200183815260200182815260200197505050505050505060405180910390f35b610328600480360360408110156102f257600080fd5b81019080803573ffffffffffffffffffffffffffffffffffffffff16906020019092919080359060200190929190505050610c3d565b005b61033261131f565b604051808273ffffffffffffffffffffffffffffffffffffffff1673ffffffffffffffffffffffffffffffffffffffff16815260200191505060405180910390f35b6103b66004803603602081101561038a57600080fd5b81019080803573ffffffffffffffffffffffffffffffffffffffff169060200190929190505050611345565b6040518082815260200191505060405180910390f35b6103d4611391565b005b610440600480360360a08110156103ec57600080fd5b81019080803573ffffffffffffffffffffffffffffffffffffffff16906020019092919080359060200190929190803590602001909291908035906020019092919080359060200190929190505050611519565b005b61044a611a6e565b604051808273ffffffffffffffffffffffffffffffffffffffff1673ffffffffffffffffffffffffffffffffffffffff16815260200191505060405180910390f35b6104ee600480360360408110156104a257600080fd5b81019080803573ffffffffffffffffffffffffffffffffffffffff169060200190929190803573ffffffffffffffffffffffffffffffffffffffff169060200190929190505050611a97565b6040518082815260200191505060405180910390f35b6105666004803603604081101561051a57600080fd5b81019080803573ffffffffffffffffffffffffffffffffffffffff169060200190929190803573ffffffffffffffffffffffffffffffffffffffff169060200190929190505050611b21565b604051808581526020018481526020018381526020018215151515815260200194505050505060405180910390f35b6105d7600480360360208110156105ab57600080fd5b81019080803573ffffffffffffffffffffffffffffffffffffffff169060200190929190505050611b6b565b005b61061b600480360360208110156105ef57600080fd5b81019080803573ffffffffffffffffffffffffffffffffffffffff169060200190929190505050611c78565b005b61067f6004803603604081101561063357600080fd5b81019080803573ffffffffffffffffffffffffffffffffffffffff169060200190929190803573ffffffffffffffffffffffffffffffffffffffff169060200190929190505050611fa3565b6040518082815260200191505060405180910390f35b6106d7600480360360208110156106ab57600080fd5b81019080803573ffffffffffffffffffffffffffffffffffffffff169060200190929190505050611fb7565b005b61073b600480360360408110156106ef57600080fd5b81019080803573ffffffffffffffffffffffffffffffffffffffff169060200190929190803573ffffffffffffffffffffffffffffffffffffffff169060200190929190505050612372565b6040518088815260200187815260200186815260200185815260200184815260200183815260200182815260200197505050505050505060405180910390f35b6107bd6004803603602081101561079157600080fd5b81019080803573ffffffffffffffffffffffffffffffffffffffff169060200190929190505050612506565b005b61080b600480360360408110156107d557600080fd5b81019080803573ffffffffffffffffffffffffffffffffffffffff16906020019092919080359060200190929190505050612713565b005b6007602052816000526040600020602052806000526040600020600091509150505481565b6000600560008373ffffffffffffffffffffffffffffffffffffffff1673ffffffffffffffffffffffffffffffffffffffff16815260200190815260200160002090506000600660008473ffffffffffffffffffffffffffffffffffffffff1673ffffffffffffffffffffffffffffffffffffffff16815260200190815260200160002060003373ffffffffffffffffffffffffffffffffffffffff1673ffffffffffffffffffffffffffffffffffffffff16815260200190815260200160002090506000816000015411610952576040517f08c379a000000000000000000000000000000000000000000000000000000000815260040180806020018281038252602681526020018061363d6026913960400191505060405180910390fd5b600061095e8433612a93565b905060011515600360009054906101000a900473ffffffffffffffffffffffffffffffffffffffff1673ffffffffffffffffffffffffffffffffffffffff1663a9059cbb33846040518363ffffffff1660e01b8152600401808373ffffffffffffffffffffffffffffffffffffffff1673ffffffffffffffffffffffffffffffffffffffff16815260200182815260200192505050602060405180830381600087803b158015610a0d57600080fd5b505af1158015610a21573d6000803e3d6000fd5b505050506040513d6020811015610a3757600080fd5b8101908080519060200190929190505050151514610aa0576040517f08c379a00000000000000000000000000000000000000000000000000000000081526004018080602001828103825260358152602001806136ee6035913960400191505060405180910390fd5b610ab7818460040154612bf690919063ffffffff16565b8360040181905550610ad6818360010154612bf690919063ffffffff16565b82600101819055503373ffffffffffffffffffffffffffffffffffffffff168473ffffffffffffffffffffffffffffffffffffffff167f2f6639d24651730c7bf57c95ddbf96d66d11477e4ec626876f92c22e5f365e688342604051808381526020018281526020019250505060405180910390a350505050565b600080610b5e8484612a93565b9050610bf281600660008773ffffffffffffffffffffffffffffffffffffffff1673ffffffffffffffffffffffffffffffffffffffff16815260200190815260200160002060008673ffffffffffffffffffffffffffffffffffffffff1673ffffffffffffffffffffffffffffffffffffffff16815260200190815260200160002060010154612bf690919063ffffffff16565b91505092915050565b60056020528060005260406000206000915090508060000154908060010154908060020154908060030154908060040154908060050154908060060154905087565b60008111610c96576040517f08c379a000000000000000000000000000000000000000000000000000000000815260040180806020018281038252603c815260200180613806603c913960400191505060405180910390fd5b6000829050610ca481612c7e565b610cf9576040517f08c379a00000000000000000000000000000000000000000000000000000000081526004018080602001828103825260278152602001806137446027913960400191505060405180910390fd5b818373ffffffffffffffffffffffffffffffffffffffff166370a08231336040518263ffffffff1660e01b8152600401808273ffffffffffffffffffffffffffffffffffffffff1673ffffffffffffffffffffffffffffffffffffffff16815260200191505060206040518083038186803b158015610d7757600080fd5b505afa158015610d8b573d6000803e3d6000fd5b505050506040513d6020811015610da157600080fd5b81019080805190602001909291905050501015610e09576040517f08c379a00000000000000000000000000000000000000000000000000000000081526004018080602001828103825260318152602001806135356031913960400191505060405180910390fd5b600115158373ffffffffffffffffffffffffffffffffffffffff166323b872dd3330866040518463ffffffff1660e01b8152600401808473ffffffffffffffffffffffffffffffffffffffff1673ffffffffffffffffffffffffffffffffffffffff1681526020018373ffffffffffffffffffffffffffffffffffffffff1673ffffffffffffffffffffffffffffffffffffffff1681526020018281526020019350505050602060405180830381600087803b158015610ec857600080fd5b505af1158015610edc573d6000803e3d6000fd5b505050506040513d6020811015610ef257600080fd5b8101908080519060200190929190505050151514610f5b576040517f08c379a000000000000000000000000000000000000000000000000000000000815260040180806020018281038252603c8152602001806135aa603c913960400191505060405180910390fd5b6000600560008373ffffffffffffffffffffffffffffffffffffffff1673ffffffffffffffffffffffffffffffffffffffff16815260200190815260200160002090506000600660008473ffffffffffffffffffffffffffffffffffffffff1673ffffffffffffffffffffffffffffffffffffffff16815260200190815260200160002060003373ffffffffffffffffffffffffffffffffffffffff1673ffffffffffffffffffffffffffffffffffffffff16815260200190815260200160002090506000600760008573ffffffffffffffffffffffffffffffffffffffff1673ffffffffffffffffffffffffffffffffffffffff16815260200190815260200160002060003373ffffffffffffffffffffffffffffffffffffffff1673ffffffffffffffffffffffffffffffffffffffff168152602001908152602001600020549050600080905083600201548211156110c5578260030160009054906101000a900460ff1690505b60008360000154111561111b576110db85610832565b6110f2836000015487612bf690919063ffffffff16565b8360000181905550808360030160006101000a81548160ff0219169083151502179055506111fd565b604051806080016040528087815260200160008152602001428152602001821515815250600660008773ffffffffffffffffffffffffffffffffffffffff1673ffffffffffffffffffffffffffffffffffffffff16815260200190815260200160002060003373ffffffffffffffffffffffffffffffffffffffff1673ffffffffffffffffffffffffffffffffffffffff16815260200190815260200160002060008201518160000155602082015181600101556040820151816002015560608201518160030160006101000a81548160ff0219169083151502179055509050505b611214868560050154612bf690919063ffffffff16565b846005018190555042600760008773ffffffffffffffffffffffffffffffffffffffff1673ffffffffffffffffffffffffffffffffffffffff16815260200190815260200160002060003373ffffffffffffffffffffffffffffffffffffffff1673ffffffffffffffffffffffffffffffffffffffff168152602001908152602001600020819055503373ffffffffffffffffffffffffffffffffffffffff168573ffffffffffffffffffffffffffffffffffffffff167f8bab6aed5a508937051a144e61d6e61336834a66aaee250a00613ae6f744c4228842886005015460405180848152602001838152602001828152602001935050505060405180910390a350505050505050565b600360009054906101000a900473ffffffffffffffffffffffffffffffffffffffff1681565b6000600560008373ffffffffffffffffffffffffffffffffffffffff1673ffffffffffffffffffffffffffffffffffffffff168152602001908152602001600020600501549050919050565b611399612d74565b73ffffffffffffffffffffffffffffffffffffffff166000809054906101000a900473ffffffffffffffffffffffffffffffffffffffff1673ffffffffffffffffffffffffffffffffffffffff161461145a576040517f08c379a00000000000000000000000000000000000000000000000000000000081526004018080602001828103825260208152602001807f4f776e61626c653a2063616c6c6572206973206e6f7420746865206f776e657281525060200191505060405180910390fd5b600073ffffffffffffffffffffffffffffffffffffffff166000809054906101000a900473ffffffffffffffffffffffffffffffffffffffff1673ffffffffffffffffffffffffffffffffffffffff167f8be0079c531659141344cd1fd0a4f28419497f9722a3daafe3b4186f6b6457e060405160405180910390a360008060006101000a81548173ffffffffffffffffffffffffffffffffffffffff021916908373ffffffffffffffffffffffffffffffffffffffff160217905550565b611521612d74565b73ffffffffffffffffffffffffffffffffffffffff166000809054906101000a900473ffffffffffffffffffffffffffffffffffffffff1673ffffffffffffffffffffffffffffffffffffffff16146115e2576040517f08c379a00000000000000000000000000000000000000000000000000000000081526004018080602001828103825260208152602001807f4f776e61626c653a2063616c6c6572206973206e6f7420746865206f776e657281525060200191505060405180910390fd5b600073ffffffffffffffffffffffffffffffffffffffff168573ffffffffffffffffffffffffffffffffffffffff161415611668576040517f08c379a00000000000000000000000000000000000000000000000000000000081526004018080602001828103825260388152602001806137a46038913960400191505060405180910390fd5b6000151561167586612c7e565b1515146116cd576040517f08c379a00000000000000000000000000000000000000000000000000000000081526004018080602001828103825260248152602001806136976024913960400191505060405180910390fd5b428211611725576040517f08c379a000000000000000000000000000000000000000000000000000000000815260040180806020018281038252602c815260200180613611602c913960400191505060405180910390fd5b6000831161177e576040517f08c379a00000000000000000000000000000000000000000000000000000000081526004018080602001828103825260448152602001806135666044913960600191505060405180910390fd5b600084116117d7576040517f08c379a000000000000000000000000000000000000000000000000000000000815260040180806020018281038252604a8152602001806134c5604a913960600191505060405180910390fd5b60006117ee85600454612bf690919063ffffffff16565b905080600360009054906101000a900473ffffffffffffffffffffffffffffffffffffffff1673ffffffffffffffffffffffffffffffffffffffff166370a08231306040518263ffffffff1660e01b8152600401808273ffffffffffffffffffffffffffffffffffffffff1673ffffffffffffffffffffffffffffffffffffffff16815260200191505060206040518083038186803b15801561189057600080fd5b505afa1580156118a4573d6000803e3d6000fd5b505050506040513d60208110156118ba57600080fd5b81019080805190602001909291905050501015611922576040517f08c379a000000000000000000000000000000000000000000000000000000000815260040180806020018281038252603981526020018061376b6039913960400191505060405180910390fd5b60006119378587612d7c90919063ffffffff16565b90506040518060e00160405280878152602001868152602001858152602001848152602001600081526020016000815260200182815250600560008973ffffffffffffffffffffffffffffffffffffffff1673ffffffffffffffffffffffffffffffffffffffff168152602001908152602001600020600082015181600001556020820151816001015560408201518160020155606082015181600301556080820151816004015560a0820151816005015560c08201518160060155905050816004819055508673ffffffffffffffffffffffffffffffffffffffff167f3462f8387f45ab2b2fd99c793a818187d777228ab066e163fec6ba63116ec2c98786888801876040518085815260200184815260200183815260200182815260200194505050505060405180910390a250505050505050565b60008060009054906101000a900473ffffffffffffffffffffffffffffffffffffffff16905090565b6000600660008473ffffffffffffffffffffffffffffffffffffffff1673ffffffffffffffffffffffffffffffffffffffff16815260200190815260200160002060008373ffffffffffffffffffffffffffffffffffffffff1673ffffffffffffffffffffffffffffffffffffffff16815260200190815260200160002060000154905092915050565b6006602052816000526040600020602052806000526040600020600091509150508060000154908060010154908060020154908060030160009054906101000a900460ff16905084565b611b73612d74565b73ffffffffffffffffffffffffffffffffffffffff166000809054906101000a900473ffffffffffffffffffffffffffffffffffffffff1673ffffffffffffffffffffffffffffffffffffffff1614611c34576040517f08c379a00000000000000000000000000000000000000000000000000000000081526004018080602001828103825260208152602001807f4f776e61626c653a2063616c6c6572206973206e6f7420746865206f776e657281525060200191505060405180910390fd5b80600260006101000a81548173ffffffffffffffffffffffffffffffffffffffff021916908373ffffffffffffffffffffffffffffffffffffffff16021790555050565b611c8181612c7e565b611cd6576040517f08c379a00000000000000000000000000000000000000000000000000000000081526004018080602001828103825260238152602001806134626023913960400191505060405180910390fd5b60001515600660008373ffffffffffffffffffffffffffffffffffffffff1673ffffffffffffffffffffffffffffffffffffffff16815260200190815260200160002060003373ffffffffffffffffffffffffffffffffffffffff1673ffffffffffffffffffffffffffffffffffffffff16815260200190815260200160002060030160009054906101000a900460ff16151514611ddc576040517f08c379a00000000000000000000000000000000000000000000000000000000081526004018080602001828103825260208152602001807f5365617363617065205374616b696e673a20416c7265616479206d696e74656481525060200191505060405180910390fd5b600260009054906101000a900473ffffffffffffffffffffffffffffffffffffffff1673ffffffffffffffffffffffffffffffffffffffff166340c10f1933600560008573ffffffffffffffffffffffffffffffffffffffff1673ffffffffffffffffffffffffffffffffffffffff168152602001908152602001600020600301546040518363ffffffff1660e01b8152600401808373ffffffffffffffffffffffffffffffffffffffff1673ffffffffffffffffffffffffffffffffffffffff16815260200182815260200192505050602060405180830381600087803b158015611ec757600080fd5b505af1158015611edb573d6000803e3d6000fd5b505050506040513d6020811015611ef157600080fd5b810190808051906020019092919050505015611fa0576001600660008373ffffffffffffffffffffffffffffffffffffffff1673ffffffffffffffffffffffffffffffffffffffff16815260200190815260200160002060003373ffffffffffffffffffffffffffffffffffffffff1673ffffffffffffffffffffffffffffffffffffffff16815260200190815260200160002060030160006101000a81548160ff0219169083151502179055505b50565b6000611faf8383612a93565b905092915050565b611fbf612d74565b73ffffffffffffffffffffffffffffffffffffffff166000809054906101000a900473ffffffffffffffffffffffffffffffffffffffff1673ffffffffffffffffffffffffffffffffffffffff1614612080576040517f08c379a00000000000000000000000000000000000000000000000000000000081526004018080602001828103825260208152602001807f4f776e61626c653a2063616c6c6572206973206e6f7420746865206f776e657281525060200191505060405180910390fd5b6000600560008373ffffffffffffffffffffffffffffffffffffffff1673ffffffffffffffffffffffffffffffffffffffff168152602001908152602001600020600001541161211b576040517f08c379a000000000000000000000000000000000000000000000000000000000815260040180806020018281038252602b8152602001806135e6602b913960400191505060405180910390fd5b6000151561212882612c7e565b151514612180576040517f08c379a00000000000000000000000000000000000000000000000000000000081526004018080602001828103825260348152602001806136636034913960400191505060405180910390fd5b6000612219600560008473ffffffffffffffffffffffffffffffffffffffff1673ffffffffffffffffffffffffffffffffffffffff16815260200190815260200160002060040154600560008573ffffffffffffffffffffffffffffffffffffffff1673ffffffffffffffffffffffffffffffffffffffff16815260200190815260200160002060000154612dc690919063ffffffff16565b905060008111612274576040517f08c379a000000000000000000000000000000000000000000000000000000000815260040180806020018281038252602c815260200180613842602c913960400191505060405180910390fd5b6122ca30612280611a6e565b83600360009054906101000a900473ffffffffffffffffffffffffffffffffffffffff1673ffffffffffffffffffffffffffffffffffffffff16612e10909392919063ffffffff16565b600560008373ffffffffffffffffffffffffffffffffffffffff1673ffffffffffffffffffffffffffffffffffffffff16815260200190815260200160002060000154600560008473ffffffffffffffffffffffffffffffffffffffff1673ffffffffffffffffffffffffffffffffffffffff1681526020019081526020016000206004018190555061236881600454612dc690919063ffffffff16565b6004819055505050565b600080600080600080600080600560008b73ffffffffffffffffffffffffffffffffffffffff1673ffffffffffffffffffffffffffffffffffffffff16815260200190815260200160002090506000600660008c73ffffffffffffffffffffffffffffffffffffffff1673ffffffffffffffffffffffffffffffffffffffff16815260200190815260200160002060008b73ffffffffffffffffffffffffffffffffffffffff1673ffffffffffffffffffffffffffffffffffffffff1681526020019081526020016000209050600061247083600501546124626001548560000154612efd90919063ffffffff16565b612d7c90919063ffffffff16565b9050600061248b828560060154612efd90919063ffffffff16565b905060006124a6846002015442612dc690919063ffffffff16565b905060006124d385600101546124c58486612efd90919063ffffffff16565b612dc690919063ffffffff16565b905083866006015486600001546001548686869c509c509c509c509c509c509c5050505050505092959891949750929550565b61250e612d74565b73ffffffffffffffffffffffffffffffffffffffff166000809054906101000a900473ffffffffffffffffffffffffffffffffffffffff1673ffffffffffffffffffffffffffffffffffffffff16146125cf576040517f08c379a00000000000000000000000000000000000000000000000000000000081526004018080602001828103825260208152602001807f4f776e61626c653a2063616c6c6572206973206e6f7420746865206f776e657281525060200191505060405180910390fd5b600073ffffffffffffffffffffffffffffffffffffffff168173ffffffffffffffffffffffffffffffffffffffff161415612655576040517f08c379a000000000000000000000000000000000000000000000000000000000815260040180806020018281038252602681526020018061350f6026913960400191505060405180910390fd5b8073ffffffffffffffffffffffffffffffffffffffff166000809054906101000a900473ffffffffffffffffffffffffffffffffffffffff1673ffffffffffffffffffffffffffffffffffffffff167f8be0079c531659141344cd1fd0a4f28419497f9722a3daafe3b4186f6b6457e060405160405180910390a3806000806101000a81548173ffffffffffffffffffffffffffffffffffffffff021916908373ffffffffffffffffffffffffffffffffffffffff16021790555050565b60008290506000600660008373ffffffffffffffffffffffffffffffffffffffff1673ffffffffffffffffffffffffffffffffffffffff16815260200190815260200160002060003373ffffffffffffffffffffffffffffffffffffffff1673ffffffffffffffffffffffffffffffffffffffff168152602001908152602001600020905082816000015410156127f5576040517f08c379a00000000000000000000000000000000000000000000000000000000081526004018080602001828103825260338152602001806136bb6033913960400191505060405180910390fd5b6127fe82610832565b600115158473ffffffffffffffffffffffffffffffffffffffff1663a9059cbb33866040518363ffffffff1660e01b8152600401808373ffffffffffffffffffffffffffffffffffffffff1673ffffffffffffffffffffffffffffffffffffffff16815260200182815260200192505050602060405180830381600087803b15801561288957600080fd5b505af115801561289d573d6000803e3d6000fd5b505050506040513d60208110156128b357600080fd5b810190808051906020019092919050505015151461291c576040517f08c379a00000000000000000000000000000000000000000000000000000000081526004018080602001828103825260408152602001806134856040913960400191505060405180910390fd5b612933838260000154612dc690919063ffffffff16565b816000018190555061299083600560008573ffffffffffffffffffffffffffffffffffffffff1673ffffffffffffffffffffffffffffffffffffffff16815260200190815260200160002060050154612dc690919063ffffffff16565b600560008473ffffffffffffffffffffffffffffffffffffffff1673ffffffffffffffffffffffffffffffffffffffff168152602001908152602001600020600501819055503373ffffffffffffffffffffffffffffffffffffffff168273ffffffffffffffffffffffffffffffffffffffff167f3cae9923fd3c2f468aa25a8ef687923e37f957459557c0380fd06526c0b8cdbc8542600560008873ffffffffffffffffffffffffffffffffffffffff1673ffffffffffffffffffffffffffffffffffffffff1681526020019081526020016000206005015460405180848152602001838152602001828152602001935050505060405180910390a350505050565b600080600560008573ffffffffffffffffffffffffffffffffffffffff1673ffffffffffffffffffffffffffffffffffffffff16815260200190815260200160002090506000600660008673ffffffffffffffffffffffffffffffffffffffff1673ffffffffffffffffffffffffffffffffffffffff16815260200190815260200160002060008573ffffffffffffffffffffffffffffffffffffffff1673ffffffffffffffffffffffffffffffffffffffff16815260200190815260200160002090506000612b888360050154612b7a6001548560000154612efd90919063ffffffff16565b612d7c90919063ffffffff16565b90506000612ba3828560060154612efd90919063ffffffff16565b90506000612bbe846002015442612dc690919063ffffffff16565b9050612be98460010154612bdb8385612efd90919063ffffffff16565b612dc690919063ffffffff16565b9550505050505092915050565b600080828401905083811015612c74576040517f08c379a000000000000000000000000000000000000000000000000000000000815260040180806020018281038252601b8152602001807f536166654d6174683a206164646974696f6e206f766572666c6f77000000000081525060200191505060405180910390fd5b8091505092915050565b600080600560008473ffffffffffffffffffffffffffffffffffffffff1673ffffffffffffffffffffffffffffffffffffffff168152602001908152602001600020600001541415612cd35760009050612d6f565b600560008373ffffffffffffffffffffffffffffffffffffffff1673ffffffffffffffffffffffffffffffffffffffff16815260200190815260200160002060010154600560008473ffffffffffffffffffffffffffffffffffffffff1673ffffffffffffffffffffffffffffffffffffffff1681526020019081526020016000206002015401421115612d6a5760009050612d6f565b600190505b919050565b600033905090565b6000612dbe83836040518060400160405280601a81526020017f536166654d6174683a206469766973696f6e206279207a65726f000000000000815250612f83565b905092915050565b6000612e0883836040518060400160405280601e81526020017f536166654d6174683a207375627472616374696f6e206f766572666c6f770000815250613049565b905092915050565b612ef7846323b872dd60e01b858585604051602401808473ffffffffffffffffffffffffffffffffffffffff1673ffffffffffffffffffffffffffffffffffffffff1681526020018373ffffffffffffffffffffffffffffffffffffffff1673ffffffffffffffffffffffffffffffffffffffff1681526020018281526020019350505050604051602081830303815290604052907bffffffffffffffffffffffffffffffffffffffffffffffffffffffff19166020820180517bffffffffffffffffffffffffffffffffffffffffffffffffffffffff8381831617835250505050613109565b50505050565b600080831415612f105760009050612f7d565b6000828402905082848281612f2157fe5b0414612f78576040517f08c379a00000000000000000000000000000000000000000000000000000000081526004018080602001828103825260218152602001806137236021913960400191505060405180910390fd5b809150505b92915050565b6000808311829061302f576040517f08c379a00000000000000000000000000000000000000000000000000000000081526004018080602001828103825283818151815260200191508051906020019080838360005b83811015612ff4578082015181840152602081019050612fd9565b50505050905090810190601f1680156130215780820380516001836020036101000a031916815260200191505b509250505060405180910390fd5b50600083858161303b57fe5b049050809150509392505050565b60008383111582906130f6576040517f08c379a00000000000000000000000000000000000000000000000000000000081526004018080602001828103825283818151815260200191508051906020019080838360005b838110156130bb5780820151818401526020810190506130a0565b50505050905090810190601f1680156130e85780820380516001836020036101000a031916815260200191505b509250505060405180910390fd5b5060008385039050809150509392505050565b606061316b826040518060400160405280602081526020017f5361666545524332303a206c6f772d6c6576656c2063616c6c206661696c65648152508573ffffffffffffffffffffffffffffffffffffffff166131f89092919063ffffffff16565b90506000815111156131f35780806020019051602081101561318c57600080fd5b81019080805190602001909291905050506131f2576040517f08c379a000000000000000000000000000000000000000000000000000000000815260040180806020018281038252602a8152602001806137dc602a913960400191505060405180910390fd5b5b505050565b60606132078484600085613210565b90509392505050565b606061321b85613416565b61328d576040517f08c379a000000000000000000000000000000000000000000000000000000000815260040180806020018281038252601d8152602001807f416464726573733a2063616c6c20746f206e6f6e2d636f6e747261637400000081525060200191505060405180910390fd5b600060608673ffffffffffffffffffffffffffffffffffffffff1685876040518082805190602001908083835b602083106132dd57805182526020820191506020810190506020830392506132ba565b6001836020036101000a03801982511681845116808217855250505050505090500191505060006040518083038185875af1925050503d806000811461333f576040519150601f19603f3d011682016040523d82523d6000602084013e613344565b606091505b5091509150811561335957809250505061340e565b60008151111561336c5780518082602001fd5b836040517f08c379a00000000000000000000000000000000000000000000000000000000081526004018080602001828103825283818151815260200191508051906020019080838360005b838110156133d35780820151818401526020810190506133b8565b50505050905090810190601f1680156134005780820380516001836020036101000a031916815260200191505b509250505060405180910390fd5b949350505050565b60008060007fc5d2460186f7233c927e7db2dcc703c0e500b653ca82273b7bfad8045d85a47060001b9050833f915080821415801561345857506000801b8214155b9250505091905056fe5365617363617065205374616b696e673a204e6f206163746976652073657373696f6e5365617363617065205374616b696e673a204661696c656420746f207472616e7366657220746f6b656e2066726f6d20636f6e747261637420746f20757365725365617363617065205374616b696e673a20546f74616c20726577617264206f6620746f6b656e7320746f2073686172652073686f756c642062652067726561746572207468616e20304f776e61626c653a206e6577206f776e657220697320746865207a65726f20616464726573735365617363617065205374616b696e673a204e6f7420656e6f756768204c5020746f6b656e7320746f206465706f7369745365617363617065205374616b696e673a204c617374696e6720706572696f64206f662073657373696f6e2073686f756c642062652067726561746572207468616e20305365617363617065205374616b696e673a204661696c656420746f207472616e73666572204c5020746f6b656e7320696e746f20636f6e74726163745365617363617065205374616b696e673a204e6f2073657373696f6e2077617320726567697374657265645374616b696e673a205365617373696f6e2073686f756c6420737461727420696e20746865206675747572655365617363617065205374616b696e673a204e6f206465706f7369742077617320666f756e645365617363617065205374616b696e673a2053657373696f6e2073686f756c6420656e64206265666f726520636c61696d696e675365617363617065205374616b696e673a2053657373696f6e20697320737461727465645365617363617065205374616b696e673a2045786365656473207468652062616c616e636520746861742075736572206861735365617363617065205374616b696e673a204661696c656420746f207472616e73666572207265776172642043575320746f6b656e536166654d6174683a206d756c7469706c69636174696f6e206f766572666c6f775365617363617065205374616b696e673a2053657373696f6e206973206e6f74206163746976655365617363617065205374616b696e673a204e6f7420656e6f7567682062616c616e6365206f662043726f776e7320666f72207265776172645365617363617065205374616b696e673a205374616b696e6720746f6b656e2073686f756c64206e6f7420626520657175616c20746f20305361666545524332303a204552433230206f7065726174696f6e20646964206e6f7420737563636565645365617363617065205374616b696e673a20416d6f756e7420746f206465706f7369742073686f756c642062652067726561746572207468616e20305365617363617065205374616b696e673a204e6f20746f6b656e7320746f207769746864726177206261636ba2646970667358221220f26a5cd3be899daae7732574ec48c0a1d75a896fb18f56b5c1aeeb79953c94e664736f6c63430006070033",
  "immutableReferences": {},
  "source": "pragma solidity 0.6.7;\r\n\r\nimport \"./openzeppelin/contracts/token/ERC20/IERC20.sol\";\r\nimport \"./openzeppelin/contracts/token/ERC20/SafeERC20.sol\";\r\nimport \"./openzeppelin/contracts/access/Ownable.sol\";\r\nimport \"./openzeppelin/contracts/math/SafeMath.sol\";\r\nimport \"./NFTFactory.sol\";\r\n\r\ncontract Staking is Ownable {\r\n    using SafeMath for uint256;\r\n    using SafeERC20 for IERC20;\r\n\r\n    uint256 scaler = 1**18;\r\n\t\r\n    NFTFactory nftFactory;\r\n    \r\n    IERC20 public CWS;\r\n\r\n    /// @dev Total amount of Crowns stored for all sessions\r\n    uint256 rewardBalance = 0;\r\n    \r\n    struct Session {\r\n        uint256 totalReward;\r\n\tuint256 period;\r\n\tuint256 startTime;\r\n\tuint256 generation;\r\n\tuint256 claimed;\r\n\tuint256 amount;\r\n\tuint256 rewardUnit;     // Reward per second = totalReward/period\r\n    }\r\n\r\n    struct Balance {\r\n\tuint256 amount;\r\n\tuint256 claimed;\r\n\tuint256 startTime;\r\n\tbool minted;\r\n    }\r\n\r\n    constructor(IERC20 _CWS) public {\r\n\tCWS = _CWS;\r\n    }\r\n\r\n    mapping(address => Session) public sessions;\r\n    mapping(address => mapping(address => Balance)) public balances;\r\n    mapping(address => mapping(address => uint)) public depositTime;\r\n\r\n    event SessionStarted(address indexed stakingToken, uint256 reward, uint256 startTime, uint256 endTime, uint256 generation);\r\n    event Deposited(address indexed stakingToken, address indexed owner, uint256 amount, uint256 startTime, uint256 totalStaked);\r\n    event Claimed(address indexed stakingToken, address indexed owner, uint256 amount, uint256 startTime);\r\n    event Withdrawn(address indexed stakingToken, address indexed owner, uint256 amount, uint256 startTime, uint256 totalStaked);\r\n    \r\n    //--------------------------------------------------\r\n    // Only owner\r\n    //--------------------------------------------------\r\n\r\n    /// @notice Withdraws CWS tokens used outside of Crowns\r\n    function withdrawCWS(address _tokenAddress) external onlyOwner {\r\n\trequire(sessions[_tokenAddress].totalReward > 0, \"Seascape Staking: No session was registered\");\r\n\trequire(isStartedFor(_tokenAddress) == false,    \"Seascape Staking: Session should end before claiming\");\r\n\r\n\tuint256 remained = sessions[_tokenAddress].totalReward.sub(sessions[_tokenAddress].claimed);\r\n\trequire(remained > 0,                            \"Seascape Staking: No tokens to withdraw back\");\r\n\r\n\tCWS.safeTransferFrom(address(this), owner(), remained);\r\n\r\n\t// Prevent from double distribution\r\n\tsessions[_tokenAddress].claimed = sessions[_tokenAddress].totalReward;\r\n\r\n\trewardBalance = rewardBalance.sub(remained);\r\n    }\r\n\r\n    /// @notice Starts a staking session for a finit _period of\r\n    /// time, starting from _startTime. The _totalReward of\r\n    /// CWS tokens will be distributed in every second. It allows to claim a\r\n    /// a _generation Seascape NFT.\r\n    function startSession(address _tokenAddress,\r\n\t\t\t  uint256 _totalReward,\r\n\t\t\t  uint256 _period,\r\n\t\t\t  uint256 _startTime,\r\n\t\t\t  uint256 _generation) external onlyOwner {\r\n\r\n\trequire(_tokenAddress != address(0),          \"Seascape Staking: Staking token should not be equal to 0\");\r\n\trequire(isStartedFor(_tokenAddress) == false, \"Seascape Staking: Session is started\");\r\n\trequire(_startTime > block.timestamp,         \"Staking: Seassion should start in the future\");\r\n\trequire(_period > 0,                          \"Seascape Staking: Lasting period of session should be greater than 0\");\r\n\trequire(_totalReward > 0,                     \"Seascape Staking: Total reward of tokens to share should be greater than 0\");\r\n\r\n\tuint256 newRewardBalance = rewardBalance.add(_totalReward);\r\n\t// Amount of tokens to reward should be in the balance already\r\n\trequire(CWS.balanceOf(address(this)) >= newRewardBalance, \"Seascape Staking: Not enough balance of Crowns for reward\");\r\n\r\n\tuint256 _rewardUnit = _totalReward.div(_period);\r\n\t\r\n\tsessions[_tokenAddress] = Session(_totalReward, _period, _startTime, _generation, 0, 0, _rewardUnit);\r\n\t\r\n\trewardBalance = newRewardBalance;\r\n\r\n\temit SessionStarted(_tokenAddress, _totalReward, _startTime, _startTime + _period, _generation);\r\n    }\r\n \r\n\r\n    function isStartedFor(address _stakingToken) internal view returns(bool) {\r\n\tif (sessions[_stakingToken].totalReward == 0) {\r\n\t    return false;\r\n\t}\r\n\r\n\tif (now > sessions[_stakingToken].startTime + sessions[_stakingToken].period) {\r\n\t    return false;\r\n\t}\r\n\r\n\treturn true;\r\n    }\r\n    \r\n    \r\n    /// @notice Sets a NFT factory that will mint a token for stakers\r\n    function setNFTFactory(address _address) external onlyOwner {\r\n\tnftFactory = NFTFactory(_address);\r\n    }\r\n\r\n\r\n    //--------------------------------------------------\r\n    // Only staker\r\n    //--------------------------------------------------\r\n\r\n    /// @notice Deposits _amount of LP token\r\n    /// of type _token into Staking contract.\r\n    function deposit(IERC20 _token, uint256 _amount) external {\r\n\trequire(_amount > 0, \"Seascape Staking: Amount to deposit should be greater than 0\");\r\n\taddress _tokenAddress     = address(_token);\r\n\trequire(isStartedFor(_tokenAddress), \"Seascape Staking: Session is not active\");\r\n\trequire(_token.balanceOf(msg.sender) >= _amount, \"Seascape Staking: Not enough LP tokens to deposit\");\r\n\trequire(_token.transferFrom(msg.sender, address(this), _amount) == true, \"Seascape Staking: Failed to transfer LP tokens into contract\");\r\n\r\n\tSession storage _session  = sessions[_tokenAddress];\r\n\tBalance storage _balance  = balances[_tokenAddress][msg.sender];\r\n\tuint _depositTime = depositTime[_tokenAddress][msg.sender];\r\n\r\n\r\n\tbool _minted             = false;\r\n\tif (_depositTime > _session.startTime) {\r\n\t    _minted = _balance.minted;\r\n\t}\r\n\t\t\r\n\tif (_balance.amount > 0) {\r\n\t    claim(_tokenAddress);\r\n\t    _balance.amount = _amount.add(_balance.amount);\r\n\t    _balance.minted = _minted;\r\n\t} else {\r\n\t    // If user withdrew all LP tokens, but deposited before for the session\r\n\t    // Means, that player still can't mint more token anymore.\r\n            balances[_tokenAddress][msg.sender] = Balance(_amount, 0, block.timestamp, _minted);\r\n\t}\r\n\t\r\n\t_session.amount                           = _session.amount.add(_amount);\r\n\tdepositTime[_tokenAddress][msg.sender]    = block.timestamp;\r\n       \r\n        emit Deposited(_tokenAddress, msg.sender, _amount, block.timestamp, _session.amount);\r\n    }\r\n\r\n    /// @notice Withdraws Earned CWS tokens from staked LP token\r\n    /// of type _token\r\n    function claim(address _tokenAddress) public {\r\n\tSession storage _session = sessions[_tokenAddress];\r\n\tBalance storage _balance = balances[_tokenAddress][msg.sender];\r\n\r\n\trequire(_balance.amount > 0, \"Seascape Staking: No deposit was found\");\r\n\t\r\n\tuint256 _interest = calculateInterest(_tokenAddress, msg.sender);\r\n\r\n\trequire(CWS.transfer(msg.sender, _interest) == true,\r\n\t\t\"Seascape Staking: Failed to transfer reward CWS token\");\r\n\t\t\r\n\t_session.claimed = _session.claimed.add(_interest);\r\n\t_balance.claimed = _balance.claimed.add(_interest);\r\n\r\n\temit Claimed(_tokenAddress, msg.sender, _interest, block.timestamp);\r\n    }\r\n\r\n    function calculateInterest(address _tokenAddress, address _owner) internal view returns(uint256) {\r\n\tSession storage _session = sessions[_tokenAddress];\r\n\tBalance storage _balance = balances[_tokenAddress][_owner];\r\n\r\n\t// How much of total deposit is belong to player as a floating number\r\n\t/*if (_balance.amount == 0 || _session.amount == 0) {\r\n\t    return 0;\r\n\t}\r\n\tif (isStartedFor(_tokenAddress) == false) {\r\n\t    return 0;\r\n\t    }*/\r\n\r\n\tuint256 _portion = _balance.amount.mul(scaler).div(_session.amount);\r\n\t\r\n       \tuint256 _interest = _session.rewardUnit.mul(_portion);\r\n\r\n\t// _balance.startTime is misleading.\r\n\t// Because, it's updated in every deposit time or claim time.\r\n\tuint256 _earnPeriod = block.timestamp.sub(_balance.startTime);\r\n\t\r\n\treturn _interest.mul(_earnPeriod).sub(_balance.claimed);\r\n    }\r\n\r\n    function getInterest(address _tokenAddress, address _owner) public view returns(uint256, // portion\r\n\t\t\t\t\t\t\t\t\t\t    uint256, // balance\r\n\t\t\t\t\t\t\t\t\t\t    uint256, // reward Unit\r\n\t\t\t\t\t\t\t\t\t\t    uint256, // scaler\r\n\t\t\t\t\t\t\t\t\t\t    uint256, // interest\r\n\t\t\t\t\t\t\t\t\t\t    uint256, // time\r\n\t\t\t\t\t\t\t\t\t\t    uint256) { // interest over time\r\n\tSession storage _session = sessions[_tokenAddress];\r\n\tBalance storage _balance = balances[_tokenAddress][_owner];\r\n\r\n\t// How much of total deposit is belong to player as a floating number\r\n\t/*if (_balance.amount == 0 || _session.amount == 0) {\r\n\t    return 0;\r\n\t}\r\n\tif (isStartedFor(_tokenAddress) == false) {\r\n\t    return 0;\r\n\t    }*/\r\n\r\n\tuint256 _portion = _balance.amount.mul(scaler).div(_session.amount);\r\n\t\r\n       \tuint256 _interest = _session.rewardUnit.mul(_portion);\r\n\r\n\t// _balance.startTime is misleading.\r\n\t// Because, it's updated in every deposit time or claim time.\r\n\tuint256 _earnPeriod = block.timestamp.sub(_balance.startTime);\r\n\t\r\n\tuint256 _claimable = _interest.mul(_earnPeriod).sub(_balance.claimed);\r\n\r\n\treturn (_portion, _session.rewardUnit, _balance.amount, scaler,\r\n\t\t_interest, _earnPeriod, _claimable);\r\n    }\r\n    \r\n    /// @notice Withdraws _amount of LP token\r\n    /// of type _token out of Staking contract.\r\n    function withdraw(IERC20 _token, uint256 _amount) external {\r\n\taddress _tokenAddress     = address(_token);\r\n\tBalance storage _balance  = balances[_tokenAddress][msg.sender];\r\n\r\n\trequire(_balance.amount >= _amount, \"Seascape Staking: Exceeds the balance that user has\");\r\n\r\n\tclaim(_tokenAddress);\r\n\r\n\trequire(_token.transfer(msg.sender, _amount) == true, \"Seascape Staking: Failed to transfer token from contract to user\");\r\n\t\r\n\t_balance.amount = _balance.amount.sub(_amount);\r\n\tsessions[_tokenAddress].amount = sessions[_tokenAddress].amount.sub(_amount);\r\n\r\n\temit Withdrawn(_tokenAddress, msg.sender, _amount, block.timestamp, sessions[_tokenAddress].amount);\r\n    }\r\n\r\n    /// @notice Mints an NFT for staker. One NFT per session, per token.\r\n    function claimNFT(address _tokenAddress) external {\r\n\trequire(isStartedFor(_tokenAddress), \"Seascape Staking: No active session\");\r\n\trequire(balances[_tokenAddress][msg.sender].minted == false, \"Seascape Staking: Already minted\");\r\n\r\n\tif (nftFactory.mint(msg.sender, sessions[_tokenAddress].generation)) {\r\n\t    balances[_tokenAddress][msg.sender].minted = true;\r\n\t}\r\n    }\r\n\r\n\r\n    //--------------------------------------------------\r\n    // Public methods\r\n    //--------------------------------------------------\r\n\r\n    /// @notice Returns amount of Token staked by _owner\r\n    function stakedBalanceOf(address _tokenAddress, address _owner) external view returns(uint256) {\r\n\treturn balances[_tokenAddress][_owner].amount;\r\n    }\r\n\r\n    /// @notice Returns amount of CWS Tokens earned by _address\r\n    function earned(address _tokenAddress, address _owner) external view returns(uint256) {\r\n\tuint256 _interest = calculateInterest(_tokenAddress, _owner);\r\n\treturn balances[_tokenAddress][_owner].claimed.add(_interest);\r\n    }\r\n\r\n    /// @notice Returns amount of CWS Tokens that _address could claim.\r\n    function claimable(address _tokenAddress, address _owner) external view returns(uint256) {\r\n\treturn calculateInterest(_tokenAddress, _owner);\r\n    }\r\n\r\n    /// @notice Returns total amount of Staked LP Tokens\r\n    function stakedBalance(address _tokenAddress) external view returns(uint256) {\r\n\treturn sessions[_tokenAddress].amount;\r\n    }\r\n}\r\n\r\n\r\n",
  "sourcePath": "/home/node/app/contracts/Staking.sol",
  "compiler": {
    "name": "solc",
    "version": "0.6.7+commit.b8d736ae.Emscripten.clang"
  },
  "schemaVersion": "3.3.0",
  "updatedAt": "2020-10-30T18:43:25.777Z",
  "networkType": "ethereum",
  "devdoc": {
    "methods": {
      "owner()": {
        "details": "Returns the address of the current owner."
      },
      "renounceOwnership()": {
        "details": "Leaves the contract without owner. It will not be possible to call `onlyOwner` functions anymore. Can only be called by the current owner.     * NOTE: Renouncing ownership will leave the contract without an owner, thereby removing any functionality that is only available to the owner."
      },
      "transferOwnership(address)": {
        "details": "Transfers ownership of the contract to a new account (`newOwner`). Can only be called by the current owner."
      }
    }
  },
  "userdoc": {
    "methods": {
      "claim(address)": {
        "notice": "Withdraws Earned CWS tokens from staked LP token of type _token"
      },
      "claimNFT(address)": {
        "notice": "Mints an NFT for staker. One NFT per session, per token."
      },
      "claimable(address,address)": {
        "notice": "Returns amount of CWS Tokens that _address could claim."
      },
      "deposit(address,uint256)": {
        "notice": "Deposits _amount of LP token of type _token into Staking contract."
      },
      "earned(address,address)": {
        "notice": "Returns amount of CWS Tokens earned by _address"
      },
      "setNFTFactory(address)": {
        "notice": "Sets a NFT factory that will mint a token for stakers"
      },
      "stakedBalance(address)": {
        "notice": "Returns total amount of Staked LP Tokens"
      },
      "stakedBalanceOf(address,address)": {
        "notice": "Returns amount of Token staked by _owner"
      },
      "startSession(address,uint256,uint256,uint256,uint256)": {
        "notice": "Starts a staking session for a finit _period of time, starting from _startTime. The _totalReward of CWS tokens will be distributed in every second. It allows to claim a a _generation Seascape NFT."
      },
      "withdraw(address,uint256)": {
        "notice": "Withdraws _amount of LP token of type _token out of Staking contract."
      },
      "withdrawCWS(address)": {
        "notice": "Withdraws CWS tokens used outside of Crowns"
      }
    }
  }
}