{
  "contractName": "Staking",
  "abi": [
    {
      "inputs": [
        {
          "internalType": "contract IERC20",
          "name": "_CWS",
          "type": "address"
        }
      ],
      "stateMutability": "nonpayable",
      "type": "constructor"
    },
    {
      "anonymous": false,
      "inputs": [
        {
          "indexed": true,
          "internalType": "address",
          "name": "stakingToken",
          "type": "address"
        },
        {
          "indexed": true,
          "internalType": "address",
          "name": "owner",
          "type": "address"
        },
        {
          "indexed": false,
          "internalType": "uint256",
          "name": "amount",
          "type": "uint256"
        },
        {
          "indexed": false,
          "internalType": "uint256",
          "name": "startTime",
          "type": "uint256"
        }
      ],
      "name": "Claimed",
      "type": "event"
    },
    {
      "anonymous": false,
      "inputs": [
        {
          "indexed": true,
          "internalType": "address",
          "name": "stakingToken",
          "type": "address"
        },
        {
          "indexed": true,
          "internalType": "address",
          "name": "owner",
          "type": "address"
        },
        {
          "indexed": false,
          "internalType": "uint256",
          "name": "amount",
          "type": "uint256"
        },
        {
          "indexed": false,
          "internalType": "uint256",
          "name": "startTime",
          "type": "uint256"
        },
        {
          "indexed": false,
          "internalType": "uint256",
          "name": "totalStaked",
          "type": "uint256"
        }
      ],
      "name": "Deposited",
      "type": "event"
    },
    {
      "anonymous": false,
      "inputs": [
        {
          "indexed": true,
          "internalType": "address",
          "name": "previousOwner",
          "type": "address"
        },
        {
          "indexed": true,
          "internalType": "address",
          "name": "newOwner",
          "type": "address"
        }
      ],
      "name": "OwnershipTransferred",
      "type": "event"
    },
    {
      "anonymous": false,
      "inputs": [
        {
          "indexed": true,
          "internalType": "address",
          "name": "stakingToken",
          "type": "address"
        },
        {
          "indexed": false,
          "internalType": "uint256",
          "name": "reward",
          "type": "uint256"
        },
        {
          "indexed": false,
          "internalType": "uint256",
          "name": "startTime",
          "type": "uint256"
        },
        {
          "indexed": false,
          "internalType": "uint256",
          "name": "endTime",
          "type": "uint256"
        },
        {
          "indexed": false,
          "internalType": "uint256",
          "name": "generation",
          "type": "uint256"
        }
      ],
      "name": "SessionStarted",
      "type": "event"
    },
    {
      "anonymous": false,
      "inputs": [
        {
          "indexed": true,
          "internalType": "address",
          "name": "stakingToken",
          "type": "address"
        },
        {
          "indexed": true,
          "internalType": "address",
          "name": "owner",
          "type": "address"
        },
        {
          "indexed": false,
          "internalType": "uint256",
          "name": "amount",
          "type": "uint256"
        },
        {
          "indexed": false,
          "internalType": "uint256",
          "name": "startTime",
          "type": "uint256"
        },
        {
          "indexed": false,
          "internalType": "uint256",
          "name": "totalStaked",
          "type": "uint256"
        }
      ],
      "name": "Withdrawn",
      "type": "event"
    },
    {
      "inputs": [],
      "name": "CWS",
      "outputs": [
        {
          "internalType": "contract IERC20",
          "name": "",
          "type": "address"
        }
      ],
      "stateMutability": "view",
      "type": "function",
      "constant": true
    },
    {
      "inputs": [
        {
          "internalType": "address",
          "name": "",
          "type": "address"
        },
        {
          "internalType": "address",
          "name": "",
          "type": "address"
        }
      ],
      "name": "balances",
      "outputs": [
        {
          "internalType": "uint256",
          "name": "amount",
          "type": "uint256"
        },
        {
          "internalType": "uint256",
          "name": "claimed",
          "type": "uint256"
        },
        {
          "internalType": "uint256",
          "name": "startTime",
          "type": "uint256"
        }
      ],
      "stateMutability": "view",
      "type": "function",
      "constant": true
    },
    {
      "inputs": [],
      "name": "owner",
      "outputs": [
        {
          "internalType": "address",
          "name": "",
          "type": "address"
        }
      ],
      "stateMutability": "view",
      "type": "function",
      "constant": true
    },
    {
      "inputs": [],
      "name": "renounceOwnership",
      "outputs": [],
      "stateMutability": "nonpayable",
      "type": "function"
    },
    {
      "inputs": [
        {
          "internalType": "address",
          "name": "",
          "type": "address"
        }
      ],
      "name": "sessions",
      "outputs": [
        {
          "internalType": "uint256",
          "name": "totalReward",
          "type": "uint256"
        },
        {
          "internalType": "uint256",
          "name": "period",
          "type": "uint256"
        },
        {
          "internalType": "uint256",
          "name": "startTime",
          "type": "uint256"
        },
        {
          "internalType": "uint256",
          "name": "generation",
          "type": "uint256"
        },
        {
          "internalType": "uint256",
          "name": "distributed",
          "type": "uint256"
        },
        {
          "internalType": "uint256",
          "name": "amount",
          "type": "uint256"
        }
      ],
      "stateMutability": "view",
      "type": "function",
      "constant": true
    },
    {
      "inputs": [
        {
          "internalType": "address",
          "name": "newOwner",
          "type": "address"
        }
      ],
      "name": "transferOwnership",
      "outputs": [],
      "stateMutability": "nonpayable",
      "type": "function"
    },
    {
      "inputs": [],
      "name": "withdrawCWS",
      "outputs": [],
      "stateMutability": "nonpayable",
      "type": "function"
    },
    {
      "inputs": [
        {
          "internalType": "contract IERC20",
          "name": "_stakingToken",
          "type": "address"
        },
        {
          "internalType": "uint256",
          "name": "_totalReward",
          "type": "uint256"
        },
        {
          "internalType": "uint256",
          "name": "_period",
          "type": "uint256"
        },
        {
          "internalType": "uint256",
          "name": "_startTime",
          "type": "uint256"
        },
        {
          "internalType": "uint256",
          "name": "_generation",
          "type": "uint256"
        }
      ],
      "name": "startSession",
      "outputs": [],
      "stateMutability": "nonpayable",
      "type": "function"
    },
    {
      "inputs": [
        {
          "internalType": "address",
          "name": "_address",
          "type": "address"
        }
      ],
      "name": "setNFTFactory",
      "outputs": [],
      "stateMutability": "nonpayable",
      "type": "function"
    },
    {
      "inputs": [
        {
          "internalType": "contract IERC20",
          "name": "_token",
          "type": "address"
        },
        {
          "internalType": "uint256",
          "name": "_amount",
          "type": "uint256"
        }
      ],
      "name": "deposit",
      "outputs": [],
      "stateMutability": "nonpayable",
      "type": "function"
    },
    {
      "inputs": [
        {
          "internalType": "contract IERC20",
          "name": "_token",
          "type": "address"
        }
      ],
      "name": "claim",
      "outputs": [],
      "stateMutability": "nonpayable",
      "type": "function"
    },
    {
      "inputs": [
        {
          "internalType": "contract IERC20",
          "name": "_token",
          "type": "address"
        },
        {
          "internalType": "uint256",
          "name": "_amount",
          "type": "uint256"
        }
      ],
      "name": "withdraw",
      "outputs": [],
      "stateMutability": "nonpayable",
      "type": "function"
    },
    {
      "inputs": [
        {
          "internalType": "contract IERC20",
          "name": "_token",
          "type": "address"
        }
      ],
      "name": "claimNFT",
      "outputs": [],
      "stateMutability": "nonpayable",
      "type": "function"
    },
    {
      "inputs": [
        {
          "internalType": "address",
          "name": "_tokenAddress",
          "type": "address"
        },
        {
          "internalType": "address",
          "name": "_owner",
          "type": "address"
        }
      ],
      "name": "stakedBalanceOf",
      "outputs": [
        {
          "internalType": "uint256",
          "name": "",
          "type": "uint256"
        }
      ],
      "stateMutability": "view",
      "type": "function",
      "constant": true
    },
    {
      "inputs": [
        {
          "internalType": "address",
          "name": "_tokenAddress",
          "type": "address"
        },
        {
          "internalType": "address",
          "name": "_owner",
          "type": "address"
        }
      ],
      "name": "earned",
      "outputs": [
        {
          "internalType": "uint256",
          "name": "",
          "type": "uint256"
        }
      ],
      "stateMutability": "view",
      "type": "function",
      "constant": true
    },
    {
      "inputs": [
        {
          "internalType": "address",
          "name": "_tokenAddress",
          "type": "address"
        },
        {
          "internalType": "address",
          "name": "_owner",
          "type": "address"
        }
      ],
      "name": "claimable",
      "outputs": [
        {
          "internalType": "uint256",
          "name": "",
          "type": "uint256"
        }
      ],
      "stateMutability": "view",
      "type": "function",
      "constant": true
    },
    {
      "inputs": [
        {
          "internalType": "address",
          "name": "_tokenAddress",
          "type": "address"
        }
      ],
      "name": "stakedBalance",
      "outputs": [
        {
          "internalType": "uint256",
          "name": "",
          "type": "uint256"
        }
      ],
      "stateMutability": "view",
      "type": "function",
      "constant": true
    }
  ],
  "bytecode": "0x608060405234801561001057600080fd5b5060405161241a38038061241a8339818101604052602081101561003357600080fd5b8101908080519060200190929190505050600061005461013960201b60201c565b9050806000806101000a81548173ffffffffffffffffffffffffffffffffffffffff021916908373ffffffffffffffffffffffffffffffffffffffff1602179055508073ffffffffffffffffffffffffffffffffffffffff16600073ffffffffffffffffffffffffffffffffffffffff167f8be0079c531659141344cd1fd0a4f28419497f9722a3daafe3b4186f6b6457e060405160405180910390a35080600160006101000a81548173ffffffffffffffffffffffffffffffffffffffff021916908373ffffffffffffffffffffffffffffffffffffffff16021790555050610141565b600033905090565b6122ca806101506000396000f3fe608060405234801561001057600080fd5b506004361061010b5760003560e01c80637f173080116100a2578063cb2d93ce11610071578063cb2d93ce146104ff578063d10fdb5c14610543578063d4570c1c14610587578063f2fde38b146105ff578063f3fef3a3146106435761010b565b80637f173080146103ad5780638da5cb5b146103b7578063aa0ba32614610401578063c23f001f146104795761010b565b806358c721fc116100de57806358c721fc1461029557806360217267146102df578063715018a6146103375780637d0c4d47146103415761010b565b80631e83409a14610110578063211dc32d14610154578063431a1b97146101cc57806347e7ef2414610247575b600080fd5b6101526004803603602081101561012657600080fd5b81019080803573ffffffffffffffffffffffffffffffffffffffff169060200190929190505050610691565b005b6101b66004803603604081101561016a57600080fd5b81019080803573ffffffffffffffffffffffffffffffffffffffff169060200190929190803573ffffffffffffffffffffffffffffffffffffffff1690602001909291905050506109a4565b6040518082815260200191505060405180910390f35b61020e600480360360208110156101e257600080fd5b81019080803573ffffffffffffffffffffffffffffffffffffffff169060200190929190505050610a4e565b60405180878152602001868152602001858152602001848152602001838152602001828152602001965050505050505060405180910390f35b6102936004803603604081101561025d57600080fd5b81019080803573ffffffffffffffffffffffffffffffffffffffff16906020019092919080359060200190929190505050610a8a565b005b61029d610f09565b604051808273ffffffffffffffffffffffffffffffffffffffff1673ffffffffffffffffffffffffffffffffffffffff16815260200191505060405180910390f35b610321600480360360208110156102f557600080fd5b81019080803573ffffffffffffffffffffffffffffffffffffffff169060200190929190505050610f2f565b6040518082815260200191505060405180910390f35b61033f610f7b565b005b6103ab600480360360a081101561035757600080fd5b81019080803573ffffffffffffffffffffffffffffffffffffffff16906020019092919080359060200190929190803590602001909291908035906020019092919080359060200190929190505050611103565b005b6103b5611353565b005b6103bf61141e565b604051808273ffffffffffffffffffffffffffffffffffffffff1673ffffffffffffffffffffffffffffffffffffffff16815260200191505060405180910390f35b6104636004803603604081101561041757600080fd5b81019080803573ffffffffffffffffffffffffffffffffffffffff169060200190929190803573ffffffffffffffffffffffffffffffffffffffff169060200190929190505050611447565b6040518082815260200191505060405180910390f35b6104db6004803603604081101561048f57600080fd5b81019080803573ffffffffffffffffffffffffffffffffffffffff169060200190929190803573ffffffffffffffffffffffffffffffffffffffff1690602001909291905050506114d1565b60405180848152602001838152602001828152602001935050505060405180910390f35b6105416004803603602081101561051557600080fd5b81019080803573ffffffffffffffffffffffffffffffffffffffff169060200190929190505050611508565b005b6105856004803603602081101561055957600080fd5b81019080803573ffffffffffffffffffffffffffffffffffffffff1690602001909291905050506115d4565b005b6105e96004803603604081101561059d57600080fd5b81019080803573ffffffffffffffffffffffffffffffffffffffff169060200190929190803573ffffffffffffffffffffffffffffffffffffffff1690602001909291905050506115d7565b6040518082815260200191505060405180910390f35b6106416004803603602081101561061557600080fd5b81019080803573ffffffffffffffffffffffffffffffffffffffff1690602001909291905050506115eb565b005b61068f6004803603604081101561065957600080fd5b81019080803573ffffffffffffffffffffffffffffffffffffffff169060200190929190803590602001909291905050506117f8565b005b600081905060003390506000600360008473ffffffffffffffffffffffffffffffffffffffff1673ffffffffffffffffffffffffffffffffffffffff16815260200190815260200160002060008373ffffffffffffffffffffffffffffffffffffffff1673ffffffffffffffffffffffffffffffffffffffff1681526020019081526020016000206000015411610773576040517f08c379a000000000000000000000000000000000000000000000000000000000815260040180806020018281038252602f815260200180612203602f913960400191505060405180910390fd5b600061077f8383611b50565b90506107d681600260008673ffffffffffffffffffffffffffffffffffffffff1673ffffffffffffffffffffffffffffffffffffffff16815260200190815260200160002060040154611d3c90919063ffffffff16565b600260008573ffffffffffffffffffffffffffffffffffffffff1673ffffffffffffffffffffffffffffffffffffffff168152602001908152602001600020600401819055506108ae81600360008673ffffffffffffffffffffffffffffffffffffffff1673ffffffffffffffffffffffffffffffffffffffff16815260200190815260200160002060008573ffffffffffffffffffffffffffffffffffffffff1673ffffffffffffffffffffffffffffffffffffffff16815260200190815260200160002060010154611d3c90919063ffffffff16565b600360008573ffffffffffffffffffffffffffffffffffffffff1673ffffffffffffffffffffffffffffffffffffffff16815260200190815260200160002060008473ffffffffffffffffffffffffffffffffffffffff1673ffffffffffffffffffffffffffffffffffffffff168152602001908152602001600020600101819055508173ffffffffffffffffffffffffffffffffffffffff168373ffffffffffffffffffffffffffffffffffffffff167f2f6639d24651730c7bf57c95ddbf96d66d11477e4ec626876f92c22e5f365e688342604051808381526020018281526020019250505060405180910390a350505050565b6000806109b18484611b50565b9050610a4581600360008773ffffffffffffffffffffffffffffffffffffffff1673ffffffffffffffffffffffffffffffffffffffff16815260200190815260200160002060008673ffffffffffffffffffffffffffffffffffffffff1673ffffffffffffffffffffffffffffffffffffffff16815260200190815260200160002060010154611d3c90919063ffffffff16565b91505092915050565b60026020528060005260406000206000915090508060000154908060010154908060020154908060030154908060040154908060050154905086565b60008111610ae3576040517f08c379a000000000000000000000000000000000000000000000000000000000815260040180806020018281038252603c815260200180612259603c913960400191505060405180910390fd5b6000829050610af181611dc4565b610b46576040517f08c379a00000000000000000000000000000000000000000000000000000000081526004018080602001828103825260278152602001806122326027913960400191505060405180910390fd5b60003390506000809050610ba584600260008673ffffffffffffffffffffffffffffffffffffffff1673ffffffffffffffffffffffffffffffffffffffff16815260200190815260200160002060050154611d3c90919063ffffffff16565b600260008573ffffffffffffffffffffffffffffffffffffffff1673ffffffffffffffffffffffffffffffffffffffff168152602001908152602001600020600501819055506000600360008573ffffffffffffffffffffffffffffffffffffffff1673ffffffffffffffffffffffffffffffffffffffff16815260200190815260200160002060008473ffffffffffffffffffffffffffffffffffffffff1673ffffffffffffffffffffffffffffffffffffffff168152602001908152602001600020600001541115610d9357610c7c85610691565b600360008473ffffffffffffffffffffffffffffffffffffffff1673ffffffffffffffffffffffffffffffffffffffff16815260200190815260200160002060008373ffffffffffffffffffffffffffffffffffffffff1673ffffffffffffffffffffffffffffffffffffffff168152602001908152602001600020600101549050610d90600360008573ffffffffffffffffffffffffffffffffffffffff1673ffffffffffffffffffffffffffffffffffffffff16815260200190815260200160002060008473ffffffffffffffffffffffffffffffffffffffff1673ffffffffffffffffffffffffffffffffffffffff1681526020019081526020016000206000015485611d3c90919063ffffffff16565b93505b604051806060016040528085815260200182815260200142815250600360008573ffffffffffffffffffffffffffffffffffffffff1673ffffffffffffffffffffffffffffffffffffffff16815260200190815260200160002060008473ffffffffffffffffffffffffffffffffffffffff1673ffffffffffffffffffffffffffffffffffffffff1681526020019081526020016000206000820151816000015560208201518160010155604082015181600201559050508173ffffffffffffffffffffffffffffffffffffffff168373ffffffffffffffffffffffffffffffffffffffff167f8bab6aed5a508937051a144e61d6e61336834a66aaee250a00613ae6f744c4228642600260008973ffffffffffffffffffffffffffffffffffffffff1673ffffffffffffffffffffffffffffffffffffffff1681526020019081526020016000206005015460405180848152602001838152602001828152602001935050505060405180910390a35050505050565b600160009054906101000a900473ffffffffffffffffffffffffffffffffffffffff1681565b6000600260008373ffffffffffffffffffffffffffffffffffffffff1673ffffffffffffffffffffffffffffffffffffffff168152602001908152602001600020600501549050919050565b610f83611eba565b73ffffffffffffffffffffffffffffffffffffffff166000809054906101000a900473ffffffffffffffffffffffffffffffffffffffff1673ffffffffffffffffffffffffffffffffffffffff1614611044576040517f08c379a00000000000000000000000000000000000000000000000000000000081526004018080602001828103825260208152602001807f4f776e61626c653a2063616c6c6572206973206e6f7420746865206f776e657281525060200191505060405180910390fd5b600073ffffffffffffffffffffffffffffffffffffffff166000809054906101000a900473ffffffffffffffffffffffffffffffffffffffff1673ffffffffffffffffffffffffffffffffffffffff167f8be0079c531659141344cd1fd0a4f28419497f9722a3daafe3b4186f6b6457e060405160405180910390a360008060006101000a81548173ffffffffffffffffffffffffffffffffffffffff021916908373ffffffffffffffffffffffffffffffffffffffff160217905550565b61110b611eba565b73ffffffffffffffffffffffffffffffffffffffff166000809054906101000a900473ffffffffffffffffffffffffffffffffffffffff1673ffffffffffffffffffffffffffffffffffffffff16146111cc576040517f08c379a00000000000000000000000000000000000000000000000000000000081526004018080602001828103825260208152602001807f4f776e61626c653a2063616c6c6572206973206e6f7420746865206f776e657281525060200191505060405180910390fd5b6000859050600015156111de82611dc4565b151514611236576040517f08c379a00000000000000000000000000000000000000000000000000000000081526004018080602001828103825260248152602001806121be6024913960400191505060405180910390fd5b6040518060c00160405280868152602001858152602001848152602001838152602001600081526020016000815250600260008373ffffffffffffffffffffffffffffffffffffffff1673ffffffffffffffffffffffffffffffffffffffff168152602001908152602001600020600082015181600001556020820151816001015560408201518160020155606082015181600301556080820151816004015560a082015181600501559050508073ffffffffffffffffffffffffffffffffffffffff167f3462f8387f45ab2b2fd99c793a818187d777228ab066e163fec6ba63116ec2c98685878701866040518085815260200184815260200183815260200182815260200194505050505060405180910390a2505050505050565b61135b611eba565b73ffffffffffffffffffffffffffffffffffffffff166000809054906101000a900473ffffffffffffffffffffffffffffffffffffffff1673ffffffffffffffffffffffffffffffffffffffff161461141c576040517f08c379a00000000000000000000000000000000000000000000000000000000081526004018080602001828103825260208152602001807f4f776e61626c653a2063616c6c6572206973206e6f7420746865206f776e657281525060200191505060405180910390fd5b565b60008060009054906101000a900473ffffffffffffffffffffffffffffffffffffffff16905090565b6000600360008473ffffffffffffffffffffffffffffffffffffffff1673ffffffffffffffffffffffffffffffffffffffff16815260200190815260200160002060008373ffffffffffffffffffffffffffffffffffffffff1673ffffffffffffffffffffffffffffffffffffffff16815260200190815260200160002060000154905092915050565b6003602052816000526040600020602052806000526040600020600091509150508060000154908060010154908060020154905083565b611510611eba565b73ffffffffffffffffffffffffffffffffffffffff166000809054906101000a900473ffffffffffffffffffffffffffffffffffffffff1673ffffffffffffffffffffffffffffffffffffffff16146115d1576040517f08c379a00000000000000000000000000000000000000000000000000000000081526004018080602001828103825260208152602001807f4f776e61626c653a2063616c6c6572206973206e6f7420746865206f776e657281525060200191505060405180910390fd5b50565b50565b60006115e38383611b50565b905092915050565b6115f3611eba565b73ffffffffffffffffffffffffffffffffffffffff166000809054906101000a900473ffffffffffffffffffffffffffffffffffffffff1673ffffffffffffffffffffffffffffffffffffffff16146116b4576040517f08c379a00000000000000000000000000000000000000000000000000000000081526004018080602001828103825260208152602001807f4f776e61626c653a2063616c6c6572206973206e6f7420746865206f776e657281525060200191505060405180910390fd5b600073ffffffffffffffffffffffffffffffffffffffff168173ffffffffffffffffffffffffffffffffffffffff16141561173a576040517f08c379a00000000000000000000000000000000000000000000000000000000081526004018080602001828103825260268152602001806121636026913960400191505060405180910390fd5b8073ffffffffffffffffffffffffffffffffffffffff166000809054906101000a900473ffffffffffffffffffffffffffffffffffffffff1673ffffffffffffffffffffffffffffffffffffffff167f8be0079c531659141344cd1fd0a4f28419497f9722a3daafe3b4186f6b6457e060405160405180910390a3806000806101000a81548173ffffffffffffffffffffffffffffffffffffffff021916908373ffffffffffffffffffffffffffffffffffffffff16021790555050565b6000829050600033905082600360008473ffffffffffffffffffffffffffffffffffffffff1673ffffffffffffffffffffffffffffffffffffffff16815260200190815260200160002060008373ffffffffffffffffffffffffffffffffffffffff1673ffffffffffffffffffffffffffffffffffffffff1681526020019081526020016000206000015410156118da576040517f08c379a00000000000000000000000000000000000000000000000000000000081526004018080602001828103825260358152602001806121896035913960400191505060405180910390fd5b6118e384610691565b61197583600360008573ffffffffffffffffffffffffffffffffffffffff1673ffffffffffffffffffffffffffffffffffffffff16815260200190815260200160002060008473ffffffffffffffffffffffffffffffffffffffff1673ffffffffffffffffffffffffffffffffffffffff16815260200190815260200160002060000154611ec290919063ffffffff16565b600360008473ffffffffffffffffffffffffffffffffffffffff1673ffffffffffffffffffffffffffffffffffffffff16815260200190815260200160002060008373ffffffffffffffffffffffffffffffffffffffff1673ffffffffffffffffffffffffffffffffffffffff16815260200190815260200160002060000181905550611a4d83600260008573ffffffffffffffffffffffffffffffffffffffff1673ffffffffffffffffffffffffffffffffffffffff16815260200190815260200160002060050154611ec290919063ffffffff16565b600260008473ffffffffffffffffffffffffffffffffffffffff1673ffffffffffffffffffffffffffffffffffffffff168152602001908152602001600020600501819055508073ffffffffffffffffffffffffffffffffffffffff168273ffffffffffffffffffffffffffffffffffffffff167f3cae9923fd3c2f468aa25a8ef687923e37f957459557c0380fd06526c0b8cdbc8542600260008873ffffffffffffffffffffffffffffffffffffffff1673ffffffffffffffffffffffffffffffffffffffff1681526020019081526020016000206005015460405180848152602001838152602001828152602001935050505060405180910390a350505050565b600080611bea600260008673ffffffffffffffffffffffffffffffffffffffff1673ffffffffffffffffffffffffffffffffffffffff16815260200190815260200160002060010154600260008773ffffffffffffffffffffffffffffffffffffffff1673ffffffffffffffffffffffffffffffffffffffff16815260200190815260200160002060000154611f0c90919063ffffffff16565b905060004290506000611c85600360008873ffffffffffffffffffffffffffffffffffffffff1673ffffffffffffffffffffffffffffffffffffffff16815260200190815260200160002060008773ffffffffffffffffffffffffffffffffffffffff1673ffffffffffffffffffffffffffffffffffffffff1681526020019081526020016000206002015483611ec290919063ffffffff16565b90506000600360008873ffffffffffffffffffffffffffffffffffffffff1673ffffffffffffffffffffffffffffffffffffffff16815260200190815260200160002060008773ffffffffffffffffffffffffffffffffffffffff1673ffffffffffffffffffffffffffffffffffffffff168152602001908152602001600020600101549050611d3081611d228487611f5690919063ffffffff16565b611ec290919063ffffffff16565b94505050505092915050565b600080828401905083811015611dba576040517f08c379a000000000000000000000000000000000000000000000000000000000815260040180806020018281038252601b8152602001807f536166654d6174683a206164646974696f6e206f766572666c6f77000000000081525060200191505060405180910390fd5b8091505092915050565b600080600260008473ffffffffffffffffffffffffffffffffffffffff1673ffffffffffffffffffffffffffffffffffffffff168152602001908152602001600020600001541415611e195760009050611eb5565b600260008373ffffffffffffffffffffffffffffffffffffffff1673ffffffffffffffffffffffffffffffffffffffff16815260200190815260200160002060010154600260008473ffffffffffffffffffffffffffffffffffffffff1673ffffffffffffffffffffffffffffffffffffffff1681526020019081526020016000206002015401421115611eb05760009050611eb5565b600190505b919050565b600033905090565b6000611f0483836040518060400160405280601e81526020017f536166654d6174683a207375627472616374696f6e206f766572666c6f770000815250611fdc565b905092915050565b6000611f4e83836040518060400160405280601a81526020017f536166654d6174683a206469766973696f6e206279207a65726f00000000000081525061209c565b905092915050565b600080831415611f695760009050611fd6565b6000828402905082848281611f7a57fe5b0414611fd1576040517f08c379a00000000000000000000000000000000000000000000000000000000081526004018080602001828103825260218152602001806121e26021913960400191505060405180910390fd5b809150505b92915050565b6000838311158290612089576040517f08c379a00000000000000000000000000000000000000000000000000000000081526004018080602001828103825283818151815260200191508051906020019080838360005b8381101561204e578082015181840152602081019050612033565b50505050905090810190601f16801561207b5780820380516001836020036101000a031916815260200191505b509250505060405180910390fd5b5060008385039050809150509392505050565b60008083118290612148576040517f08c379a00000000000000000000000000000000000000000000000000000000081526004018080602001828103825283818151815260200191508051906020019080838360005b8381101561210d5780820151818401526020810190506120f2565b50505050905090810190601f16801561213a5780820380516001836020036101000a031916815260200191505b509250505060405180910390fd5b50600083858161215457fe5b04905080915050939250505056fe4f776e61626c653a206e6577206f776e657220697320746865207a65726f20616464726573735365617363617065205374616b696e673a2045786365656473207468652062616c616e6365207468617420706c61796572206861735365617363617065205374616b696e673a2053657373696f6e2069732073746172746564536166654d6174683a206d756c7469706c69636174696f6e206f766572666c6f775365617363617065205374616b696e673a204e6f204c50205374616b696e6720746f6b656e7320746f20636c61696d5365617363617065205374616b696e673a2053657373696f6e206973206e6f74206163746976655365617363617065205374616b696e673a20416d6f756e7420746f206465706f7369742073686f756c642062652067726561746572207468616e2030a2646970667358221220ccd96188ed4d500bd510bef0f65c8e7ca7397c63f3852c9ff9e052b8ab9c18bc64736f6c63430006070033",
  "immutableReferences": {},
  "source": "pragma solidity 0.6.7;\r\n\r\nimport \"./openzeppelin/contracts/token/ERC20/IERC20.sol\";\r\nimport \"./openzeppelin/contracts/token/ERC20/SafeERC20.sol\";\r\nimport \"./openzeppelin/contracts/access/Ownable.sol\";\r\n\r\ncontract Staking is Ownable {\r\n    using SafeMath for uint256;\r\n    using SafeERC20 for IERC20;\r\n\r\n    IERC20 public CWS;\r\n\r\n    struct Session {\r\n        uint256 totalReward;\r\n\tuint256 period;\r\n\tuint256 startTime;\r\n\tuint256 generation;\r\n\tuint256 distributed;\r\n\tuint256 amount;\r\n    }\r\n\r\n    struct Balance {\r\n\tuint256 amount;\r\n\tuint256 claimed;\r\n\tuint256 startTime;\r\n    }\r\n\r\n    constructor(IERC20 _CWS) public {\r\n\tCWS = _CWS;\r\n    }\r\n\r\n    mapping(address => Session) public sessions;\r\n    mapping(address => mapping(address => Balance)) public balances;\r\n\r\n    event SessionStarted(address indexed stakingToken, uint256 reward, uint256 startTime, uint256 endTime, uint256 generation);\r\n    event Deposited(address indexed stakingToken, address indexed owner, uint256 amount, uint256 startTime, uint256 totalStaked);\r\n    event Claimed(address indexed stakingToken, address indexed owner, uint256 amount, uint256 startTime);\r\n    event Withdrawn(address indexed stakingToken, address indexed owner, uint256 amount, uint256 startTime, uint256 totalStaked);\r\n    \r\n    //--------------------------------------------------\r\n    // Only owner\r\n    //--------------------------------------------------\r\n\r\n    /// @notice Withdraws CWS tokens used outside of Crowns\r\n    function withdrawCWS() external onlyOwner {\r\n    }\r\n\r\n    /// @notice Starts a staking session for a finit _period of\r\n    /// time, starting from _startTime. The _totalReward of\r\n    /// CWS tokens will be distributed in every block. It allows to claim a\r\n    /// a _generation Seascape NFT.\r\n    function startSession(IERC20 _stakingToken,\r\n\t\t\t  uint256 _totalReward,\r\n\t\t\t  uint256 _period,\r\n\t\t\t  uint256 _startTime,\r\n\t\t\t  uint256 _generation) external onlyOwner {\r\n\t// event for the staking token should not be started before.\r\n\taddress _tokenAddress = address(_stakingToken);\r\n\trequire(isStartedFor(_tokenAddress) == false, \"Seascape Staking: Session is started\");\r\n\t\r\n\tsessions[_tokenAddress] = Session(_totalReward, _period, _startTime, _generation, 0, 0);\r\n\r\n\temit SessionStarted(_tokenAddress, _totalReward, _startTime, _startTime + _period, _generation);\r\n    }\r\n \r\n\r\n    function isStartedFor(address _stakingToken) internal view returns(bool) {\r\n\tif (sessions[_stakingToken].totalReward == 0) {\r\n\t    return false;\r\n\t}\r\n\r\n\tif (now > sessions[_stakingToken].startTime + sessions[_stakingToken].period) {\r\n\t    return false;\r\n\t}\r\n\r\n\treturn true;\r\n    }\r\n    \r\n    \r\n    /// @notice Sets a NFT factory that will mint a token for stakers\r\n    function setNFTFactory(address _address) external onlyOwner {\r\n\r\n    }\r\n\r\n\r\n    //--------------------------------------------------\r\n    // Only staker\r\n    //--------------------------------------------------\r\n\r\n    /// @notice Deposits _amount of LP token\r\n    /// of type _token into Staking contract.\r\n    function deposit(IERC20 _token, uint256 _amount) external {\r\n\trequire(_amount > 0, \"Seascape Staking: Amount to deposit should be greater than 0\");\r\n\r\n\taddress _tokenAddress = address(_token);\r\n\trequire(isStartedFor(_tokenAddress), \"Seascape Staking: Session is not active\");\r\n\t\r\n\taddress _owner = msg.sender;\r\n\tuint256 _claimed = 0;\r\n\r\n\tsessions[_tokenAddress].amount = sessions[_tokenAddress].amount.add(_amount);\r\n\t\t\r\n\tif (balances[_tokenAddress][_owner].amount > 0) {\r\n\t    claim(_token);\r\n\t    _claimed = balances[_tokenAddress][_owner].claimed;\r\n\t    _amount = _amount.add(balances[_tokenAddress][_owner].amount);\r\n\t}\r\n\t\r\n\tbalances[_tokenAddress][_owner] = Balance(_amount, _claimed, now);\r\n       \r\n        emit Deposited(_tokenAddress, _owner, _amount, now, sessions[_tokenAddress].amount);\r\n    }\r\n\r\n    /// @notice Withdraws Earned CWS tokens from staked LP token\r\n    /// of type _token\r\n    function claim(IERC20 _token) public {\r\n        address _tokenAddress = address(_token);\r\n\taddress _owner = msg.sender;\r\n\r\n\trequire(balances[_tokenAddress][_owner].amount > 0, \"Seascape Staking: No LP Staking tokens to claim\");\r\n\t//require(sessions[_tokenAddress].totalReward > sessions[_tokenAddress].distributed, \"Seascape Staking: No more tokens left to distribute\");\r\n\r\n\tuint256 _interest = calculateInterest(_tokenAddress, _owner);\r\n\r\n\tsessions[_tokenAddress].distributed = sessions[_tokenAddress].distributed.add(_interest);\r\n\r\n\tbalances[_tokenAddress][_owner].claimed = balances[_tokenAddress][_owner].claimed.add(_interest);\r\n\r\n\temit Claimed(_tokenAddress, _owner, _interest, now);\r\n    }\r\n\r\n    function calculateInterest(address _tokenAddress, address _owner) internal view returns(uint256) {\r\n\t// total intereset/per second\r\n\tuint256 _interest = sessions[_tokenAddress].totalReward.div(sessions[_tokenAddress].period);\r\n\r\n\tuint256 _currentTime = now;\r\n\tuint256 _depositTime = _currentTime.sub(balances[_tokenAddress][_owner].startTime);\r\n\tuint256 _claimed = balances[_tokenAddress][_owner].claimed;\r\n\t\r\n\t// (return per second * balances.startTime) - balances.claimed\r\n\treturn _interest.mul(_depositTime).sub(_claimed);\r\n    }\r\n    \r\n    /// @notice Withdraws _amount of LP token\r\n    /// of type _token out of Staking contract.\r\n    function withdraw(IERC20 _token, uint256 _amount) external {\r\n\taddress _tokenAddress = address(_token);\r\n\taddress _owner = msg.sender;\r\n\r\n\trequire(balances[_tokenAddress][_owner].amount >= _amount, \"Seascape Staking: Exceeds the balance that player has\");\r\n\r\n\tclaim(_token);\r\n\r\n\tbalances[_tokenAddress][_owner].amount = balances[_tokenAddress][_owner].amount.sub(_amount);\r\n\tsessions[_tokenAddress].amount = sessions[_tokenAddress].amount.sub(_amount);\r\n\r\n\temit Withdrawn(_tokenAddress, _owner, _amount, now, sessions[_tokenAddress].amount);\r\n    }\r\n\r\n    /// @notice Mints an NFT for staker. One NFT per session, per token.\r\n    function claimNFT(IERC20 _token) external {\r\n\t\r\n    }\r\n\r\n\r\n    //--------------------------------------------------\r\n    // Public methods\r\n    //--------------------------------------------------\r\n\r\n    /// @notice Returns amount of Token staked by _owner\r\n    function stakedBalanceOf(address _tokenAddress, address _owner) external view returns(uint256) {\r\n\treturn balances[_tokenAddress][_owner].amount;\r\n    }\r\n\r\n    /// @notice Returns amount of CWS Tokens earned by _address\r\n    function earned(address _tokenAddress, address _owner) external view returns(uint256) {\r\n\tuint256 _interest = calculateInterest(_tokenAddress, _owner);\r\n\treturn balances[_tokenAddress][_owner].claimed.add(_interest);\r\n    }\r\n\r\n    /// @notice Returns amount of CWS Tokens that _address could claim.\r\n    function claimable(address _tokenAddress, address _owner) external view returns(uint256) {\r\n\treturn calculateInterest(_tokenAddress, _owner);\r\n    }\r\n\r\n    /// @notice Returns total amount of Staked LP Tokens\r\n    function stakedBalance(address _tokenAddress) external view returns(uint256) {\r\n\treturn sessions[_tokenAddress].amount;\r\n    }\r\n}\r\n\r\n\r\n",
  "sourcePath": "/home/node/app/contracts/Staking.sol",
  "compiler": {
    "name": "solc",
    "version": "0.6.7+commit.b8d736ae.Emscripten.clang"
  },
  "schemaVersion": "3.3.0",
  "updatedAt": "2020-10-25T04:54:42.531Z",
  "networkType": "ethereum",
  "devdoc": {
    "methods": {
      "owner()": {
        "details": "Returns the address of the current owner."
      },
      "renounceOwnership()": {
        "details": "Leaves the contract without owner. It will not be possible to call `onlyOwner` functions anymore. Can only be called by the current owner.     * NOTE: Renouncing ownership will leave the contract without an owner, thereby removing any functionality that is only available to the owner."
      },
      "transferOwnership(address)": {
        "details": "Transfers ownership of the contract to a new account (`newOwner`). Can only be called by the current owner."
      }
    }
  },
  "userdoc": {
    "methods": {
      "claim(address)": {
        "notice": "Withdraws Earned CWS tokens from staked LP token of type _token"
      },
      "claimNFT(address)": {
        "notice": "Mints an NFT for staker. One NFT per session, per token."
      },
      "claimable(address,address)": {
        "notice": "Returns amount of CWS Tokens that _address could claim."
      },
      "deposit(address,uint256)": {
        "notice": "Deposits _amount of LP token of type _token into Staking contract."
      },
      "earned(address,address)": {
        "notice": "Returns amount of CWS Tokens earned by _address"
      },
      "setNFTFactory(address)": {
        "notice": "Sets a NFT factory that will mint a token for stakers"
      },
      "stakedBalance(address)": {
        "notice": "Returns total amount of Staked LP Tokens"
      },
      "stakedBalanceOf(address,address)": {
        "notice": "Returns amount of Token staked by _owner"
      },
      "startSession(address,uint256,uint256,uint256,uint256)": {
        "notice": "Starts a staking session for a finit _period of time, starting from _startTime. The _totalReward of CWS tokens will be distributed in every block. It allows to claim a a _generation Seascape NFT."
      },
      "withdraw(address,uint256)": {
        "notice": "Withdraws _amount of LP token of type _token out of Staking contract."
      },
      "withdrawCWS()": {
        "notice": "Withdraws CWS tokens used outside of Crowns"
      }
    }
  }
}